{
  "contractName": "Game",
  "abi": [
    {
      "inputs": [
        {
          "internalType": "address",
          "name": "_token",
          "type": "address"
        }
      ],
      "stateMutability": "nonpayable",
      "type": "constructor"
    },
    {
      "inputs": [
        {
          "internalType": "uint256",
          "name": "amount",
          "type": "uint256"
        }
      ],
      "name": "buyToken",
      "outputs": [
        {
          "internalType": "bool",
          "name": "",
          "type": "bool"
        }
      ],
      "stateMutability": "nonpayable",
      "type": "function"
    },
    {
      "inputs": [
        {
          "internalType": "uint256",
          "name": "_gameId",
          "type": "uint256"
        },
        {
          "internalType": "uint256",
          "name": "_numCoins",
          "type": "uint256"
        },
        {
          "internalType": "uint256",
          "name": "_gameTime",
          "type": "uint256"
        },
        {
          "internalType": "uint256",
          "name": "_waitTime",
          "type": "uint256"
        },
        {
          "internalType": "uint256",
          "name": "_numPlayers",
          "type": "uint256"
        },
        {
          "internalType": "uint256",
          "name": "_numWinners",
          "type": "uint256"
        },
        {
          "internalType": "uint256[]",
          "name": "_winnerWeights",
          "type": "uint256[]"
        },
        {
          "internalType": "uint256",
          "name": "_gamePool",
          "type": "uint256"
        },
        {
          "internalType": "uint256",
          "name": "_lockIn",
          "type": "uint256"
        },
        {
          "internalType": "uint256",
          "name": "_playerContribution",
          "type": "uint256"
        }
      ],
      "name": "pseudoConstructor",
      "outputs": [],
      "stateMutability": "nonpayable",
      "type": "function"
    },
    {
      "inputs": [
        {
          "internalType": "uint256[]",
          "name": "coins",
          "type": "uint256[]"
        },
        {
          "internalType": "uint256[]",
          "name": "weightage",
          "type": "uint256[]"
        },
        {
          "internalType": "uint256",
          "name": "amount",
          "type": "uint256"
        }
      ],
      "name": "joinGame",
      "outputs": [
        {
          "internalType": "uint256",
          "name": "_gameId",
          "type": "uint256"
        }
      ],
      "stateMutability": "nonpayable",
      "type": "function"
    },
    {
      "inputs": [],
      "name": "startGame",
      "outputs": [],
      "stateMutability": "nonpayable",
      "type": "function"
    },
    {
      "inputs": [],
      "name": "finalize",
      "outputs": [],
      "stateMutability": "nonpayable",
      "type": "function"
    },
    {
      "inputs": [],
      "name": "expiredGame",
      "outputs": [],
      "stateMutability": "nonpayable",
      "type": "function"
    },
    {
      "inputs": [],
      "name": "endGame",
      "outputs": [
        {
          "internalType": "bool",
          "name": "",
          "type": "bool"
        }
      ],
      "stateMutability": "nonpayable",
      "type": "function"
    },
    {
      "inputs": [
        {
          "internalType": "address[]",
          "name": "winners",
          "type": "address[]"
        }
      ],
      "name": "distributePrize",
      "outputs": [],
      "stateMutability": "nonpayable",
      "type": "function"
    },
    {
      "inputs": [],
      "name": "getGameState",
      "outputs": [
        {
          "internalType": "uint256",
          "name": "",
          "type": "uint256"
        },
        {
          "internalType": "address",
          "name": "",
          "type": "address"
        },
        {
          "internalType": "uint256",
          "name": "",
          "type": "uint256"
        },
        {
          "internalType": "uint256",
          "name": "",
          "type": "uint256"
        },
        {
          "internalType": "uint256",
          "name": "",
          "type": "uint256"
        },
        {
          "internalType": "uint256",
          "name": "",
          "type": "uint256"
        },
        {
          "internalType": "uint256",
          "name": "",
          "type": "uint256"
        },
        {
          "internalType": "uint256",
          "name": "",
          "type": "uint256"
        },
        {
          "internalType": "uint256",
          "name": "",
          "type": "uint256"
        },
        {
          "internalType": "uint256",
          "name": "",
          "type": "uint256"
        },
        {
          "internalType": "uint256",
          "name": "",
          "type": "uint256"
        },
        {
          "internalType": "uint256",
          "name": "",
          "type": "uint256"
        }
      ],
      "stateMutability": "view",
      "type": "function",
      "constant": true
    }
  ],
  "bytecode": "0x608060405273604bcd042d2d5b355ece14b6ac3224d23f29a51c600b60036101000a81548173ffffffffffffffffffffffffffffffffffffffff021916908373ffffffffffffffffffffffffffffffffffffffff160217905550600b60039054906101000a900473ffffffffffffffffffffffffffffffffffffffff16600c60006101000a81548173ffffffffffffffffffffffffffffffffffffffff021916908373ffffffffffffffffffffffffffffffffffffffff16021790555042600d55348015620000cd57600080fd5b5060405162002ca138038062002ca18339818101604052810190620000f391906200016d565b6000600b60026101000a81548160ff02191690831515021790555080600f60006101000a81548173ffffffffffffffffffffffffffffffffffffffff021916908373ffffffffffffffffffffffffffffffffffffffff16021790555050620001e7565b6000815190506200016781620001cd565b92915050565b6000602082840312156200018057600080fd5b6000620001908482850162000156565b91505092915050565b6000620001a682620001ad565b9050919050565b600073ffffffffffffffffffffffffffffffffffffffff82169050919050565b620001d88162000199565b8114620001e457600080fd5b50565b612aaa80620001f76000396000f3fe608060405234801561001057600080fd5b50600436106100935760003560e01c80636cbc2ded116100665780636cbc2ded146100f8578063719e43d514610116578063b7d0628b14610146578063d65ab5f21461016f578063f1d5f9111461017957610093565b80630e5a1dbd146100985780631c0e8ce4146100a25780632d296bf1146100be5780634bb278f3146100ee575b600080fd5b6100a0610195565b005b6100bc60048036038101906100b79190611b2a565b6103f4565b005b6100d860048036038101906100d39190611ad8565b610574565b6040516100e591906123d2565b60405180910390f35b6100f6610768565b005b6101006109fb565b60405161010d91906123d2565b60405180910390f35b610130600480360381019061012b9190611a30565b610c22565b60405161013d91906126ed565b60405180910390f35b61014e61102e565b6040516101669c9b9a99989796959493929190612708565b60405180910390f35b610177611119565b005b610193600480360381019061018e91906119ef565b61128a565b005b600b60029054906101000a900460ff166101e4576040517f08c379a00000000000000000000000000000000000000000000000000000000081526004016101db9061250d565b60405180910390fd5b600a546003541061022a576040517f08c379a0000000000000000000000000000000000000000000000000000000008152600401610221906126cd565b60405180910390fd5b600b60039054906101000a900473ffffffffffffffffffffffffffffffffffffffff1673ffffffffffffffffffffffffffffffffffffffff163373ffffffffffffffffffffffffffffffffffffffff16146102ba576040517f08c379a00000000000000000000000000000000000000000000000000000000081526004016102b1906124ed565b60405180910390fd5b60016006546102c991906128b2565b600d54426102d7919061290c565b116102e157600080fd5b60005b6003548110156103e957600f60009054906101000a900473ffffffffffffffffffffffffffffffffffffffff1673ffffffffffffffffffffffffffffffffffffffff1663a9059cbb6010600084815260200190815260200160002060000160009054906101000a900473ffffffffffffffffffffffffffffffffffffffff166008546040518363ffffffff1660e01b81526004016103839291906123a9565b602060405180830381600087803b15801561039d57600080fd5b505af11580156103b1573d6000803e3d6000fd5b505050506040513d601f19601f820116820180604052508101906103d59190611aaf565b5080806103e190612988565b9150506102e4565b6103f1610768565b50565b83518514610437576040517f08c379a000000000000000000000000000000000000000000000000000000000815260040161042e9061244d565b60405180910390fd5b836009908051906020019061044d929190611805565b508960008190555033600160006101000a81548173ffffffffffffffffffffffffffffffffffffffff021916908373ffffffffffffffffffffffffffffffffffffffff16021790555085600a8190555060006003819055508860048190555087600581905550866006819055508460078190555082600281905550806008819055506000600b60006101000a81548160ff0219169083151502179055506000600b60016101000a81548160ff02191690831515021790555061050e82610574565b61054d576040517f08c379a00000000000000000000000000000000000000000000000000000000081526004016105449061242d565b60405180910390fd5b6001600b60026101000a81548160ff02191690831515021790555050505050505050505050565b60008082116105b8576040517f08c379a00000000000000000000000000000000000000000000000000000000081526004016105af9061264d565b60405180910390fd5b6000600f60009054906101000a900473ffffffffffffffffffffffffffffffffffffffff1673ffffffffffffffffffffffffffffffffffffffff1663dd62ed3e33306040518363ffffffff1660e01b8152600401610617929190612349565b60206040518083038186803b15801561062f57600080fd5b505afa158015610643573d6000803e3d6000fd5b505050506040513d601f19601f820116820180604052508101906106679190611b01565b9050828110156106ac576040517f08c379a00000000000000000000000000000000000000000000000000000000081526004016106a39061252d565b60405180910390fd5b600f60009054906101000a900473ffffffffffffffffffffffffffffffffffffffff1673ffffffffffffffffffffffffffffffffffffffff166323b872dd3330866040518463ffffffff1660e01b815260040161070b93929190612372565b602060405180830381600087803b15801561072557600080fd5b505af1158015610739573d6000803e3d6000fd5b505050506040513d601f19601f8201168201806040525081019061075d9190611aaf565b506001915050919050565b600b60039054906101000a900473ffffffffffffffffffffffffffffffffffffffff1673ffffffffffffffffffffffffffffffffffffffff163373ffffffffffffffffffffffffffffffffffffffff16146107f8576040517f08c379a00000000000000000000000000000000000000000000000000000000081526004016107ef9061240d565b60405180910390fd5b600c60009054906101000a900473ffffffffffffffffffffffffffffffffffffffff1673ffffffffffffffffffffffffffffffffffffffff166108fc479081150290604051600060405180830381858888f19350505050158015610860573d6000803e3d6000fd5b506000600f60009054906101000a900473ffffffffffffffffffffffffffffffffffffffff1673ffffffffffffffffffffffffffffffffffffffff166370a08231306040518263ffffffff1660e01b81526004016108be919061232e565b60206040518083038186803b1580156108d657600080fd5b505afa1580156108ea573d6000803e3d6000fd5b505050506040513d601f19601f8201168201806040525081019061090e9190611b01565b9050600f60009054906101000a900473ffffffffffffffffffffffffffffffffffffffff1673ffffffffffffffffffffffffffffffffffffffff1663a9059cbb600b60039054906101000a900473ffffffffffffffffffffffffffffffffffffffff16836040518363ffffffff1660e01b815260040161098f9291906123a9565b602060405180830381600087803b1580156109a957600080fd5b505af11580156109bd573d6000803e3d6000fd5b505050506040513d601f19601f820116820180604052508101906109e19190611aaf565b503073ffffffffffffffffffffffffffffffffffffffff16ff5b6000600b60029054906101000a900460ff16610a4c576040517f08c379a0000000000000000000000000000000000000000000000000000000008152600401610a439061250d565b60405180910390fd5b600b60039054906101000a900473ffffffffffffffffffffffffffffffffffffffff1673ffffffffffffffffffffffffffffffffffffffff163373ffffffffffffffffffffffffffffffffffffffff1614610adc576040517f08c379a0000000000000000000000000000000000000000000000000000000008152600401610ad39061240d565b60405180910390fd5b60011515600b60009054906101000a900460ff16151514610b32576040517f08c379a0000000000000000000000000000000000000000000000000000000008152600401610b29906125cd565b60405180910390fd5b60001515600b60019054906101000a900460ff16151514610b88576040517f08c379a0000000000000000000000000000000000000000000000000000000008152600401610b7f9061260d565b60405180910390fd5b6001600554610b9791906128b2565b600e5442610ba5919061290c565b11610be5576040517f08c379a0000000000000000000000000000000000000000000000000000000008152600401610bdc9061254d565b60405180910390fd5b6000600b60006101000a81548160ff0219169083151502179055506001600b60016101000a81548160ff0219169083151502179055506001905090565b6000600b60029054906101000a900460ff16610c73576040517f08c379a0000000000000000000000000000000000000000000000000000000008152600401610c6a9061250d565b60405180910390fd5b600a5460035410610cb9576040517f08c379a0000000000000000000000000000000000000000000000000000000008152600401610cb09061268d565b60405180910390fd5b60001515600b60009054906101000a900460ff16151514610d0f576040517f08c379a0000000000000000000000000000000000000000000000000000000008152600401610d06906124ad565b60405180910390fd5b60001515600b60019054906101000a900460ff16151514610d65576040517f08c379a0000000000000000000000000000000000000000000000000000000008152600401610d5c9061256d565b60405180910390fd5b600854821015610daa576040517f08c379a0000000000000000000000000000000000000000000000000000000008152600401610da1906125ad565b60405180910390fd5b60045484511015610df0576040517f08c379a0000000000000000000000000000000000000000000000000000000008152600401610de7906125ed565b60405180910390fd5b6000835111610e34576040517f08c379a0000000000000000000000000000000000000000000000000000000008152600401610e2b9061246d565b60405180910390fd5b8351835114610e78576040517f08c379a0000000000000000000000000000000000000000000000000000000008152600401610e6f9061258d565b60405180910390fd5b6000805b8451811015610ee657848181518110610ebe577f4e487b7100000000000000000000000000000000000000000000000000000000600052603260045260246000fd5b602002602001015182610ed1919061285c565b91508080610ede90612988565b915050610e7c565b50600081118015610ef75750606481105b610f36576040517f08c379a0000000000000000000000000000000000000000000000000000000008152600401610f2d906126ad565b60405180910390fd5b60006010600060036000815480929190610f4f90612988565b9190505581526020019081526020016000209050338160000160006101000a81548173ffffffffffffffffffffffffffffffffffffffff021916908373ffffffffffffffffffffffffffffffffffffffff16021790555085816001019080519060200190610fbe929190611805565b5084816002019080519060200190610fd7929190611805565b50610fe184610574565b611020576040517f08c379a00000000000000000000000000000000000000000000000000000000081526004016110179061242d565b60405180910390fd5b600054925050509392505050565b600080600080600080600080600080600080600b60029054906101000a900460ff1661108f576040517f08c379a0000000000000000000000000000000000000000000000000000000008152600401611086906123ed565b60405180910390fd5b600054600160009054906101000a900473ffffffffffffffffffffffffffffffffffffffff166002546003546004544760055460075460085447600e54600e54426110da919061290c565b60016005546110e991906128b2565b6110f3919061290c565b9b509b509b509b509b509b509b509b509b509b509b509b50909192939495969798999a9b565b600b60029054906101000a900460ff16611168576040517f08c379a000000000000000000000000000000000000000000000000000000000815260040161115f9061250d565b60405180910390fd5b600a54600354146111ae576040517f08c379a00000000000000000000000000000000000000000000000000000000081526004016111a59061248d565b60405180910390fd5b600b60039054906101000a900473ffffffffffffffffffffffffffffffffffffffff1673ffffffffffffffffffffffffffffffffffffffff163373ffffffffffffffffffffffffffffffffffffffff161461123e576040517f08c379a0000000000000000000000000000000000000000000000000000000008152600401611235906124ed565b60405180910390fd5b600160065461124d91906128b2565b600d544261125b919061290c565b111561126657600080fd5b6001600b60006101000a81548160ff02191690831515021790555042600e81905550565b600b60029054906101000a900460ff166112d9576040517f08c379a00000000000000000000000000000000000000000000000000000000081526004016112d09061250d565b60405180910390fd5b6000600754825114611320576040517f08c379a00000000000000000000000000000000000000000000000000000000081526004016113179061262d565b60405180910390fd5b600b60039054906101000a900473ffffffffffffffffffffffffffffffffffffffff1673ffffffffffffffffffffffffffffffffffffffff163373ffffffffffffffffffffffffffffffffffffffff16146113b0576040517f08c379a00000000000000000000000000000000000000000000000000000000081526004016113a79061240d565b60405180910390fd5b60001515600b60009054906101000a900460ff16151514611406576040517f08c379a00000000000000000000000000000000000000000000000000000000081526004016113fd906124cd565b60405180910390fd5b60011515600b60019054906101000a900460ff1615151461145c576040517f08c379a00000000000000000000000000000000000000000000000000000000081526004016114539061266d565b60405180910390fd5b600160055461146b91906128b2565b600e5442611479919061290c565b116114b9576040517f08c379a00000000000000000000000000000000000000000000000000000000081526004016114b09061254d565b60405180910390fd5b600090505b815181101561160e57600f60009054906101000a900473ffffffffffffffffffffffffffffffffffffffff1673ffffffffffffffffffffffffffffffffffffffff1663a9059cbb83838151811061153e577f4e487b7100000000000000000000000000000000000000000000000000000000600052603260045260246000fd5b602002602001015160098481548110611580577f4e487b7100000000000000000000000000000000000000000000000000000000600052603260045260246000fd5b90600052602060002001546040518363ffffffff1660e01b81526004016115a89291906123a9565b602060405180830381600087803b1580156115c257600080fd5b505af11580156115d6573d6000803e3d6000fd5b505050506040513d601f19601f820116820180604052508101906115fa9190611aaf565b50808061160690612988565b9150506114be565b600160009054906101000a900473ffffffffffffffffffffffffffffffffffffffff1673ffffffffffffffffffffffffffffffffffffffff166108fc479081150290604051600060405180830381858888f19350505050158015611676573d6000803e3d6000fd5b506000600f60009054906101000a900473ffffffffffffffffffffffffffffffffffffffff1673ffffffffffffffffffffffffffffffffffffffff166370a08231306040518263ffffffff1660e01b81526004016116d4919061232e565b60206040518083038186803b1580156116ec57600080fd5b505afa158015611700573d6000803e3d6000fd5b505050506040513d601f19601f820116820180604052508101906117249190611b01565b9050600f60009054906101000a900473ffffffffffffffffffffffffffffffffffffffff1673ffffffffffffffffffffffffffffffffffffffff1663a9059cbb600160009054906101000a900473ffffffffffffffffffffffffffffffffffffffff16836040518363ffffffff1660e01b81526004016117a59291906123a9565b602060405180830381600087803b1580156117bf57600080fd5b505af11580156117d3573d6000803e3d6000fd5b505050506040513d601f19601f820116820180604052508101906117f79190611aaf565b50611800610768565b505050565b828054828255906000526020600020908101928215611841579160200282015b82811115611840578251825591602001919060010190611825565b5b50905061184e9190611852565b5090565b5b8082111561186b576000816000905550600101611853565b5090565b600061188261187d846127f3565b6127c2565b905080838252602082019050828560208602820111156118a157600080fd5b60005b858110156118d157816118b78882611947565b8452602084019350602083019250506001810190506118a4565b5050509392505050565b60006118ee6118e98461281f565b6127c2565b9050808382526020820190508285602086028201111561190d57600080fd5b60005b8581101561193d578161192388826119c5565b845260208401935060208301925050600181019050611910565b5050509392505050565b60008135905061195681612a2f565b92915050565b600082601f83011261196d57600080fd5b813561197d84826020860161186f565b91505092915050565b600082601f83011261199757600080fd5b81356119a78482602086016118db565b91505092915050565b6000815190506119bf81612a46565b92915050565b6000813590506119d481612a5d565b92915050565b6000815190506119e981612a5d565b92915050565b600060208284031215611a0157600080fd5b600082013567ffffffffffffffff811115611a1b57600080fd5b611a278482850161195c565b91505092915050565b600080600060608486031215611a4557600080fd5b600084013567ffffffffffffffff811115611a5f57600080fd5b611a6b86828701611986565b935050602084013567ffffffffffffffff811115611a8857600080fd5b611a9486828701611986565b9250506040611aa5868287016119c5565b9150509250925092565b600060208284031215611ac157600080fd5b6000611acf848285016119b0565b91505092915050565b600060208284031215611aea57600080fd5b6000611af8848285016119c5565b91505092915050565b600060208284031215611b1357600080fd5b6000611b21848285016119da565b91505092915050565b6000806000806000806000806000806101408b8d031215611b4a57600080fd5b6000611b588d828e016119c5565b9a50506020611b698d828e016119c5565b9950506040611b7a8d828e016119c5565b9850506060611b8b8d828e016119c5565b9750506080611b9c8d828e016119c5565b96505060a0611bad8d828e016119c5565b95505060c08b013567ffffffffffffffff811115611bca57600080fd5b611bd68d828e01611986565b94505060e0611be78d828e016119c5565b935050610100611bf98d828e016119c5565b925050610120611c0b8d828e016119c5565b9150509295989b9194979a5092959850565b611c2681612940565b82525050565b611c3581612952565b82525050565b6000611c4860198361284b565b91507f5468652067616d65206973206e6f7420616374697661746564000000000000006000830152602082019050919050565b6000611c8860268361284b565b91507f6f6e6c7920746865206f7267616e697a6174696f6e2063616e20656e6420746860008301527f652067616d6500000000000000000000000000000000000000000000000000006020830152604082019050919050565b6000611cee60188361284b565b91507f546f6b656e207472616e73616374696f6e206661696c656400000000000000006000830152602082019050919050565b6000611d2e603d8361284b565b91507f4e756d626572206f662077696e6e65727320646f65736e2774206d617463682060008301527f776974682074686520776569676874616765206f662077696e6e6572730000006020830152604082019050919050565b6000611d94601f8361284b565b91507f57656967687461676520666f7220636f696e73206973206e6f742073656e74006000830152602082019050919050565b6000611dd4601e8361284b565b91507f4d69736d6174636820696e206e756d626572206f6620706c61796572732e00006000830152602082019050919050565b6000611e1460148361284b565b91507f5468652067616d652068617320737461727465640000000000000000000000006000830152602082019050919050565b6000611e5460108361284b565b91507f5468652067616d65206973206c697665000000000000000000000000000000006000830152602082019050919050565b6000611e9460288361284b565b91507f6f6e6c7920746865206f7267616e697a6174696f6e2063616e2073746172742060008301527f7468652067616d650000000000000000000000000000000000000000000000006020830152604082019050919050565b6000611efa601d8361284b565b91507f5468652067616d65206973206e6f7420796574206163746976617465640000006000830152602082019050919050565b6000611f3a60198361284b565b91507f436865636b2074686520746f6b656e20616c6c6f77616e6365000000000000006000830152602082019050919050565b6000611f7a60198361284b565b91507f47616d65206973207374696c6c20696e2070726f6772657373000000000000006000830152602082019050919050565b6000611fba60128361284b565b91507f5468652067616d652068617320656e64656400000000000000000000000000006000830152602082019050919050565b6000611ffa60268361284b565b91507f57656967687461676520666f7220616c6c20636f696e73206973206e6f74207060008301527f726573656e7400000000000000000000000000000000000000000000000000006020830152604082019050919050565b600061206060388361284b565b91507f506c6179657220686173206e6f7420636f6e747269627574656420746865206560008301527f7861637420616d6f756e7420666f72207468652067616d6500000000000000006020830152604082019050919050565b60006120c660148361284b565b91507f5468652067616d65206973206e6f74206c6976650000000000000000000000006000830152602082019050919050565b600061210660238361284b565b91507f596f75206861766520746f2063686f6f7365206174206c65617374203720636f60008301527f696e7300000000000000000000000000000000000000000000000000000000006020830152604082019050919050565b600061216c601e8361284b565b91507f5468652067616d652068617320616c726561647920636f6d706c6574656400006000830152602082019050919050565b60006121ac601d8361284b565b91507f4d69736d6174636820696e206e756d626572206f662077696e6e6572730000006000830152602082019050919050565b60006121ec60178361284b565b91507f596f752063616e27742073656e64203020746f6b656e730000000000000000006000830152602082019050919050565b600061222c601f8361284b565b91507f5468652067616d6520686173206e6f74206265656e20636f6d706c65746564006000830152602082019050919050565b600061226c60198361284b565b91507f54686520706c6179657220636f756e74207265616368656421000000000000006000830152602082019050919050565b60006122ac60178361284b565b91507f576569676874616765206973206e6f742070726f7065720000000000000000006000830152602082019050919050565b60006122ec60148361284b565b91507f506c6179657220636f756e7420726561636865640000000000000000000000006000830152602082019050919050565b6123288161297e565b82525050565b60006020820190506123436000830184611c1d565b92915050565b600060408201905061235e6000830185611c1d565b61236b6020830184611c1d565b9392505050565b60006060820190506123876000830186611c1d565b6123946020830185611c1d565b6123a1604083018461231f565b949350505050565b60006040820190506123be6000830185611c1d565b6123cb602083018461231f565b9392505050565b60006020820190506123e76000830184611c2c565b92915050565b6000602082019050818103600083015261240681611c3b565b9050919050565b6000602082019050818103600083015261242681611c7b565b9050919050565b6000602082019050818103600083015261244681611ce1565b9050919050565b6000602082019050818103600083015261246681611d21565b9050919050565b6000602082019050818103600083015261248681611d87565b9050919050565b600060208201905081810360008301526124a681611dc7565b9050919050565b600060208201905081810360008301526124c681611e07565b9050919050565b600060208201905081810360008301526124e681611e47565b9050919050565b6000602082019050818103600083015261250681611e87565b9050919050565b6000602082019050818103600083015261252681611eed565b9050919050565b6000602082019050818103600083015261254681611f2d565b9050919050565b6000602082019050818103600083015261256681611f6d565b9050919050565b6000602082019050818103600083015261258681611fad565b9050919050565b600060208201905081810360008301526125a681611fed565b9050919050565b600060208201905081810360008301526125c681612053565b9050919050565b600060208201905081810360008301526125e6816120b9565b9050919050565b60006020820190508181036000830152612606816120f9565b9050919050565b600060208201905081810360008301526126268161215f565b9050919050565b600060208201905081810360008301526126468161219f565b9050919050565b60006020820190508181036000830152612666816121df565b9050919050565b600060208201905081810360008301526126868161221f565b9050919050565b600060208201905081810360008301526126a68161225f565b9050919050565b600060208201905081810360008301526126c68161229f565b9050919050565b600060208201905081810360008301526126e6816122df565b9050919050565b6000602082019050612702600083018461231f565b92915050565b60006101808201905061271e600083018f61231f565b61272b602083018e611c1d565b612738604083018d61231f565b612745606083018c61231f565b612752608083018b61231f565b61275f60a083018a61231f565b61276c60c083018961231f565b61277960e083018861231f565b61278761010083018761231f565b61279561012083018661231f565b6127a361014083018561231f565b6127b161016083018461231f565b9d9c50505050505050505050505050565b6000604051905081810181811067ffffffffffffffff821117156127e9576127e8612a00565b5b8060405250919050565b600067ffffffffffffffff82111561280e5761280d612a00565b5b602082029050602081019050919050565b600067ffffffffffffffff82111561283a57612839612a00565b5b602082029050602081019050919050565b600082825260208201905092915050565b60006128678261297e565b91506128728361297e565b9250827fffffffffffffffffffffffffffffffffffffffffffffffffffffffffffffffff038211156128a7576128a66129d1565b5b828201905092915050565b60006128bd8261297e565b91506128c88361297e565b9250817fffffffffffffffffffffffffffffffffffffffffffffffffffffffffffffffff0483118215151615612901576129006129d1565b5b828202905092915050565b60006129178261297e565b91506129228361297e565b925082821015612935576129346129d1565b5b828203905092915050565b600061294b8261295e565b9050919050565b60008115159050919050565b600073ffffffffffffffffffffffffffffffffffffffff82169050919050565b6000819050919050565b60006129938261297e565b91507fffffffffffffffffffffffffffffffffffffffffffffffffffffffffffffffff8214156129c6576129c56129d1565b5b600182019050919050565b7f4e487b7100000000000000000000000000000000000000000000000000000000600052601160045260246000fd5b7f4e487b7100000000000000000000000000000000000000000000000000000000600052604160045260246000fd5b612a3881612940565b8114612a4357600080fd5b50565b612a4f81612952565b8114612a5a57600080fd5b50565b612a668161297e565b8114612a7157600080fd5b5056fea2646970667358221220957ff973f4695770989fe8e27f7a3c4909380aa894009393fa03cf75797bdb8f64736f6c63430008000033",
  "immutableReferences": {},
  "source": "// Coin Fantasy Game\r\n// SPDX-License-Identifier: CoinFantasy Game\r\n\r\npragma solidity ^0.8.0;\r\n\r\nimport \"@openzeppelin/contracts/token/ERC20/ERC20.sol\";\r\n\r\n\r\ncontract Game{\r\n    uint256 gameId;\r\n    address gameOwner;\r\n    uint256 gamePool;\r\n    uint256 curNumPlayers;\r\n    uint256 numCoins;\r\n    uint256 gameTime;\r\n    uint256 waitTime;\r\n    uint256 numWinners;\r\n    uint256 playerContribution;\r\n    uint256[] winnerWeights;\r\n    uint256 numPlayers;\r\n    bool live;\r\n    bool completed;\r\n    bool activated;\r\n    address orgAddress = 0x604BCD042D2d5B355ecE14B6aC3224d23F29a51c;\r\n    address payable orgWallet = payable(address(orgAddress));\r\n    uint256 createdTime = block.timestamp;\r\n    uint256 startTime;\r\n    ERC20 usdc;\r\n\r\n    struct Player {\r\n        address player;\r\n        uint256[] coins;\r\n        uint256[] weightage;\r\n    }\r\n\r\n    mapping(uint256 => Player) players;\r\n\r\n    constructor(\r\n        address _token\r\n    ){\r\n        activated = false;\r\n        usdc = ERC20(_token);\r\n    }\r\n\r\n    function buyToken(uint256 amount) public returns (bool) {\r\n        require(amount > 0, \"You can't send 0 tokens\");\r\n        uint256 allowance = usdc.allowance(msg.sender, address(this));\r\n        require(allowance >= amount, \"Check the token allowance\");\r\n        usdc.transferFrom(msg.sender, address(this), amount);\r\n        return true;\r\n    }\r\n\r\n    function pseudoConstructor(\r\n        uint256 _gameId,//                      -0\r\n        uint256 _numCoins,//                    -1\r\n        uint256 _gameTime,//                    -2\r\n        uint256 _waitTime,//                    -3\r\n        uint256 _numPlayers,//                  -4\r\n        uint256 _numWinners,//                  -5\r\n        uint256[] memory _winnerWeights,//      -6\r\n        uint256 _gamePool,//                    -7\r\n        uint256 _lockIn,//                      -8\r\n        uint256 _playerContribution//           -9\r\n    ) public {\r\n\r\n        require(\r\n            _numWinners == _winnerWeights.length,\r\n            \"Number of winners doesn't match with the weightage of winners\"\r\n        );\r\n\r\n        winnerWeights = _winnerWeights;\r\n\r\n        gameId = _gameId;\r\n        gameOwner = msg.sender;\r\n        numPlayers = _numPlayers;\r\n        curNumPlayers = 0;\r\n        numCoins = _numCoins;\r\n        gameTime = _gameTime;\r\n        waitTime = _waitTime;\r\n        numWinners = _numWinners;   \r\n        gamePool = _gamePool;\r\n        playerContribution = _playerContribution;\r\n        live = false;\r\n        completed = false;\r\n        require(buyToken(_lockIn), \"Token transaction failed\");\r\n        activated = true;\r\n    }\r\n\r\n  \r\n\r\n\r\n   \r\n\r\n    function joinGame(uint256[] memory coins, uint256[] memory weightage, uint256 amount)\r\n        public\r\n        returns (uint256 _gameId)\r\n    {\r\n        require(activated, \"The game is not yet activated\");\r\n        require(curNumPlayers < numPlayers, \"The player count reached!\");\r\n        require(live == false, \"The game has started\");\r\n        require(completed == false, \"The game has ended\");\r\n        require(\r\n            amount >= playerContribution,\r\n            \"Player has not contributed the exact amount for the game\"\r\n        );\r\n        require(\r\n            coins.length >= numCoins,\r\n            \"You have to choose at least 7 coins\"\r\n        );\r\n        require(weightage.length > 0, \"Weightage for coins is not sent\");\r\n        require(\r\n            weightage.length == coins.length,\r\n            \"Weightage for all coins is not present\"\r\n        );\r\n\r\n        \r\n\r\n        uint256 totalWeightage = 0;\r\n        for (uint256 i = 0; i < weightage.length; i++) {\r\n            totalWeightage += weightage[i];\r\n        }\r\n\r\n        require(\r\n            totalWeightage > 0 && totalWeightage < 100,\r\n            \"Weightage is not proper\"\r\n        );\r\n\r\n        Player storage newPlayer = players[curNumPlayers++];\r\n        newPlayer.player = msg.sender;\r\n        newPlayer.coins = coins;\r\n        newPlayer.weightage = weightage;\r\n\r\n        require(buyToken(amount), \"Token transaction failed\");\r\n\r\n        return gameId;\r\n    }\r\n\r\n     function startGame() public {\r\n        require(activated, \"The game is not yet activated\");\r\n        require(curNumPlayers == numPlayers, \"Mismatch in number of players.\");\r\n        require(\r\n            msg.sender == orgAddress,\r\n            \"only the organization can start the game\"\r\n        );\r\n        require(block.timestamp - createdTime <= waitTime*1);\r\n        live = true;\r\n        startTime = block.timestamp;\r\n    }\r\n\r\n    function finalize() public {\r\n        require(\r\n            msg.sender == orgAddress,\r\n            \"only the organization can end the game\"\r\n        );\r\n        orgWallet.transfer(address(this).balance);\r\n        uint256 rem_balance = usdc.balanceOf(address(this));\r\n        usdc.transfer(orgAddress, rem_balance);\r\n        \r\n        selfdestruct(payable(address(this)));\r\n        \r\n    }\r\n\r\n    function expiredGame() public {\r\n        require(activated, \"The game is not yet activated\");\r\n        require(curNumPlayers < numPlayers, \"Player count reached\");\r\n        require(\r\n            msg.sender == orgAddress,\r\n            \"only the organization can start the game\"\r\n        );\r\n        require(block.timestamp - createdTime > waitTime*1);\r\n        uint256 i;\r\n        for(i = 0; i < curNumPlayers; i++){\r\n            usdc.transfer(players[i].player, playerContribution);\r\n        }\r\n        finalize();\r\n    }\r\n\r\n\r\n   \r\n\r\n    \r\n\r\n    function endGame() public returns (bool) {\r\n        require(activated, \"The game is not yet activated\");\r\n        require(\r\n            msg.sender == orgAddress,\r\n            \"only the organization can end the game\"\r\n        );\r\n        require(live == true, \"The game is not live\");\r\n        require(completed == false, \"The game has already completed\");\r\n        require(\r\n            block.timestamp - startTime > gameTime * 1,\r\n            \"Game is still in progress\"\r\n        );\r\n\r\n        live = false;\r\n        completed = true;\r\n\r\n        return true;\r\n    }\r\n\r\n    function distributePrize(address[] memory winners) public {\r\n        require(activated, \"The game is not yet activated\");\r\n        uint256 i;\r\n        require(winners.length == numWinners, \"Mismatch in number of winners\");\r\n        require(\r\n            msg.sender == orgAddress,\r\n            \"only the organization can end the game\"\r\n        );\r\n        require(live == false, \"The game is live\");\r\n        require(completed == true, \"The game has not been completed\");\r\n        require(\r\n            block.timestamp - startTime > gameTime * 1,\r\n            \"Game is still in progress\"\r\n        );\r\n\r\n        for (i = 0; i < winners.length; i++) {\r\n            usdc.transfer(winners[i], winnerWeights[i]);\r\n        }\r\n        payable(gameOwner).transfer(address(this).balance);\r\n        uint256 balance = usdc.balanceOf(address(this));\r\n        usdc.transfer(gameOwner, balance);\r\n        finalize();\r\n    }\r\n\r\n    \r\n\r\n    function getGameState()\r\n        public\r\n        view\r\n        returns (\r\n            uint256,// gameId,                  -0\r\n            address,// gameOwner,               -1\r\n            uint256,// gamePool,                -2\r\n            uint256,// numPlayers,              -3\r\n            uint256,// numCoins,                -4\r\n            uint256,// contractBalance,         -5\r\n            //gameTime - should be in seconds\r\n            uint256,// gameTime,                -6\r\n            uint256,// numWinners,              -7\r\n            uint256,// playerContribution       -8\r\n            uint256,//account balance           -9\r\n            uint256,//startTime                 -10\r\n            uint256//ends in                    -11\r\n            // bool,   //live                   -12\r\n            // bool    //completed              -13\r\n        )\r\n    {\r\n        require(activated, \"The game is not activated\");\r\n        return (\r\n            gameId,\r\n            gameOwner,\r\n            gamePool,\r\n            curNumPlayers,\r\n            numCoins,\r\n            address(this).balance,\r\n            gameTime,\r\n            numWinners,\r\n            playerContribution,\r\n            address(this).balance,\r\n            startTime,\r\n            gameTime * 1 - (block.timestamp - startTime)\r\n            // live,\r\n            // completed\r\n        );\r\n    }\r\n}\r\n",
  "sourcePath": "D:/projects/coinFantasy/CoinFantasy/contracts/CoinGame.sol",
  "compiler": {
    "name": "solc",
    "version": "0.8.0+commit.c7dfd78e.Emscripten.clang"
  },
  "schemaVersion": "3.3.4",
  "updatedAt": "2021-05-03T10:42:28.497Z",
  "networkType": "ethereum",
  "devdoc": {
    "kind": "dev",
    "methods": {},
    "version": 1
  },
  "userdoc": {
    "kind": "user",
    "methods": {},
    "version": 1
  }
}