{
  "contractName": "Game",
  "abi": [
    {
      "inputs": [
        {
          "internalType": "address",
          "name": "_token",
          "type": "address"
        }
      ],
      "stateMutability": "nonpayable",
      "type": "constructor"
    },
    {
      "inputs": [
        {
          "internalType": "uint256",
          "name": "_gameId",
          "type": "uint256"
        },
        {
          "internalType": "uint256",
          "name": "_numCoins",
          "type": "uint256"
        },
        {
          "internalType": "uint256",
          "name": "_gameTime",
          "type": "uint256"
        },
        {
          "internalType": "uint256",
          "name": "_numPlayers",
          "type": "uint256"
        },
        {
          "internalType": "uint256",
          "name": "_numWinners",
          "type": "uint256"
        },
        {
          "internalType": "uint256[]",
          "name": "_winnerWeights",
          "type": "uint256[]"
        },
        {
          "internalType": "uint256",
          "name": "_gamePool",
          "type": "uint256"
        },
        {
          "internalType": "uint256",
          "name": "_lockIn",
          "type": "uint256"
        },
        {
          "internalType": "uint256",
          "name": "_playerContribution",
          "type": "uint256"
        }
      ],
      "name": "pseudoConstructor",
      "outputs": [],
      "stateMutability": "nonpayable",
      "type": "function"
    },
    {
      "inputs": [
        {
          "internalType": "uint256",
          "name": "amount",
          "type": "uint256"
        }
      ],
      "name": "buyToken",
      "outputs": [
        {
          "internalType": "bool",
          "name": "",
          "type": "bool"
        }
      ],
      "stateMutability": "nonpayable",
      "type": "function"
    },
    {
      "inputs": [],
      "name": "startGame",
      "outputs": [],
      "stateMutability": "nonpayable",
      "type": "function"
    },
    {
      "inputs": [
        {
          "internalType": "uint256[]",
          "name": "coins",
          "type": "uint256[]"
        },
        {
          "internalType": "uint256[]",
          "name": "weightage",
          "type": "uint256[]"
        },
        {
          "internalType": "uint256",
          "name": "amount",
          "type": "uint256"
        }
      ],
      "name": "joinGame",
      "outputs": [
        {
          "internalType": "uint256",
          "name": "_gameId",
          "type": "uint256"
        }
      ],
      "stateMutability": "nonpayable",
      "type": "function"
    },
    {
      "inputs": [],
      "name": "finalize",
      "outputs": [],
      "stateMutability": "nonpayable",
      "type": "function"
    },
    {
      "inputs": [],
      "name": "endGame",
      "outputs": [
        {
          "internalType": "bool",
          "name": "",
          "type": "bool"
        }
      ],
      "stateMutability": "nonpayable",
      "type": "function"
    },
    {
      "inputs": [
        {
          "internalType": "address[]",
          "name": "winners",
          "type": "address[]"
        }
      ],
      "name": "distributePrize",
      "outputs": [],
      "stateMutability": "nonpayable",
      "type": "function"
    },
    {
      "inputs": [],
      "name": "getGameState",
      "outputs": [
        {
          "internalType": "uint256",
          "name": "",
          "type": "uint256"
        },
        {
          "internalType": "address",
          "name": "",
          "type": "address"
        },
        {
          "internalType": "uint256",
          "name": "",
          "type": "uint256"
        },
        {
          "internalType": "uint256",
          "name": "",
          "type": "uint256"
        },
        {
          "internalType": "uint256",
          "name": "",
          "type": "uint256"
        },
        {
          "internalType": "uint256",
          "name": "",
          "type": "uint256"
        },
        {
          "internalType": "uint256",
          "name": "",
          "type": "uint256"
        },
        {
          "internalType": "uint256",
          "name": "",
          "type": "uint256"
        },
        {
          "internalType": "uint256",
          "name": "",
          "type": "uint256"
        },
        {
          "internalType": "uint256",
          "name": "",
          "type": "uint256"
        },
        {
          "internalType": "uint256",
          "name": "",
          "type": "uint256"
        },
        {
          "internalType": "uint256",
          "name": "",
          "type": "uint256"
        }
      ],
      "stateMutability": "view",
      "type": "function",
      "constant": true
    }
  ],
  "bytecode": "0x6080604052731c4804d9fa63e90ded85afcce779b9dd67e00f3a600a60036101000a81548173ffffffffffffffffffffffffffffffffffffffff021916908373ffffffffffffffffffffffffffffffffffffffff160217905550600a60039054906101000a900473ffffffffffffffffffffffffffffffffffffffff16600b60006101000a81548173ffffffffffffffffffffffffffffffffffffffff021916908373ffffffffffffffffffffffffffffffffffffffff16021790555042600c55348015620000cd57600080fd5b5060405162002979380380620029798339818101604052810190620000f391906200016d565b6000600a60026101000a81548160ff02191690831515021790555080600d60006101000a81548173ffffffffffffffffffffffffffffffffffffffff021916908373ffffffffffffffffffffffffffffffffffffffff16021790555050620001e7565b6000815190506200016781620001cd565b92915050565b6000602082840312156200018057600080fd5b6000620001908482850162000156565b91505092915050565b6000620001a682620001ad565b9050919050565b600073ffffffffffffffffffffffffffffffffffffffff82169050919050565b620001d88162000199565b8114620001e457600080fd5b50565b61278280620001f76000396000f3fe608060405234801561001057600080fd5b50600436106100885760003560e01c8063b7d0628b1161005b578063b7d0628b14610115578063d65ab5f21461013e578063f1d5f91114610148578063f4ff8a991461016457610088565b80632d296bf11461008d5780634bb278f3146100bd5780636cbc2ded146100c7578063719e43d5146100e5575b600080fd5b6100a760048036038101906100a29190611825565b610180565b6040516100b491906120ca565b60405180910390f35b6100c5610374565b005b6100cf610607565b6040516100dc91906120ca565b60405180910390f35b6100ff60048036038101906100fa919061177d565b61082e565b60405161010c91906123c5565b60405180910390f35b61011d610c3a565b6040516101359c9b9a999897969594939291906123e0565b60405180910390f35b610146610d25565b005b610162600480360381019061015d919061173c565b610e67565b005b61017e60048036038101906101799190611877565b6113da565b005b60008082116101c4576040517f08c379a00000000000000000000000000000000000000000000000000000000081526004016101bb90612345565b60405180910390fd5b6000600d60009054906101000a900473ffffffffffffffffffffffffffffffffffffffff1673ffffffffffffffffffffffffffffffffffffffff1663dd62ed3e33306040518363ffffffff1660e01b8152600401610223929190612041565b60206040518083038186803b15801561023b57600080fd5b505afa15801561024f573d6000803e3d6000fd5b505050506040513d601f19601f82011682018060405250810190610273919061184e565b9050828110156102b8576040517f08c379a00000000000000000000000000000000000000000000000000000000081526004016102af90612225565b60405180910390fd5b600d60009054906101000a900473ffffffffffffffffffffffffffffffffffffffff1673ffffffffffffffffffffffffffffffffffffffff166323b872dd3330866040518463ffffffff1660e01b81526004016103179392919061206a565b602060405180830381600087803b15801561033157600080fd5b505af1158015610345573d6000803e3d6000fd5b505050506040513d601f19601f8201168201806040525081019061036991906117fc565b506001915050919050565b600a60039054906101000a900473ffffffffffffffffffffffffffffffffffffffff1673ffffffffffffffffffffffffffffffffffffffff163373ffffffffffffffffffffffffffffffffffffffff1614610404576040517f08c379a00000000000000000000000000000000000000000000000000000000081526004016103fb90612105565b60405180910390fd5b600b60009054906101000a900473ffffffffffffffffffffffffffffffffffffffff1673ffffffffffffffffffffffffffffffffffffffff166108fc479081150290604051600060405180830381858888f1935050505015801561046c573d6000803e3d6000fd5b506000600d60009054906101000a900473ffffffffffffffffffffffffffffffffffffffff1673ffffffffffffffffffffffffffffffffffffffff166370a08231306040518263ffffffff1660e01b81526004016104ca9190612026565b60206040518083038186803b1580156104e257600080fd5b505afa1580156104f6573d6000803e3d6000fd5b505050506040513d601f19601f8201168201806040525081019061051a919061184e565b9050600d60009054906101000a900473ffffffffffffffffffffffffffffffffffffffff1673ffffffffffffffffffffffffffffffffffffffff1663a9059cbb600a60039054906101000a900473ffffffffffffffffffffffffffffffffffffffff16836040518363ffffffff1660e01b815260040161059b9291906120a1565b602060405180830381600087803b1580156105b557600080fd5b505af11580156105c9573d6000803e3d6000fd5b505050506040513d601f19601f820116820180604052508101906105ed91906117fc565b503073ffffffffffffffffffffffffffffffffffffffff16ff5b6000600a60029054906101000a900460ff16610658576040517f08c379a000000000000000000000000000000000000000000000000000000000815260040161064f90612205565b60405180910390fd5b600a60039054906101000a900473ffffffffffffffffffffffffffffffffffffffff1673ffffffffffffffffffffffffffffffffffffffff163373ffffffffffffffffffffffffffffffffffffffff16146106e8576040517f08c379a00000000000000000000000000000000000000000000000000000000081526004016106df90612105565b60405180910390fd5b60011515600a60009054906101000a900460ff1615151461073e576040517f08c379a0000000000000000000000000000000000000000000000000000000008152600401610735906122c5565b60405180910390fd5b60001515600a60019054906101000a900460ff16151514610794576040517f08c379a000000000000000000000000000000000000000000000000000000000815260040161078b90612305565b60405180910390fd5b60016005546107a3919061258a565b600c54426107b191906125e4565b116107f1576040517f08c379a00000000000000000000000000000000000000000000000000000000081526004016107e890612245565b60405180910390fd5b6000600a60006101000a81548160ff0219169083151502179055506001600a60016101000a81548160ff0219169083151502179055506001905090565b6000600a60029054906101000a900460ff1661087f576040517f08c379a000000000000000000000000000000000000000000000000000000000815260040161087690612205565b60405180910390fd5b600954600354106108c5576040517f08c379a00000000000000000000000000000000000000000000000000000000081526004016108bc90612385565b60405180910390fd5b60001515600a60009054906101000a900460ff1615151461091b576040517f08c379a0000000000000000000000000000000000000000000000000000000008152600401610912906121a5565b60405180910390fd5b60001515600a60019054906101000a900460ff16151514610971576040517f08c379a000000000000000000000000000000000000000000000000000000000815260040161096890612265565b60405180910390fd5b6007548210156109b6576040517f08c379a00000000000000000000000000000000000000000000000000000000081526004016109ad906122a5565b60405180910390fd5b600454845110156109fc576040517f08c379a00000000000000000000000000000000000000000000000000000000081526004016109f3906122e5565b60405180910390fd5b6000835111610a40576040517f08c379a0000000000000000000000000000000000000000000000000000000008152600401610a3790612165565b60405180910390fd5b8351835114610a84576040517f08c379a0000000000000000000000000000000000000000000000000000000008152600401610a7b90612285565b60405180910390fd5b6000805b8451811015610af257848181518110610aca577f4e487b7100000000000000000000000000000000000000000000000000000000600052603260045260246000fd5b602002602001015182610add9190612534565b91508080610aea90612660565b915050610a88565b50600081118015610b035750606481105b610b42576040517f08c379a0000000000000000000000000000000000000000000000000000000008152600401610b39906123a5565b60405180910390fd5b6000600e600060036000815480929190610b5b90612660565b9190505581526020019081526020016000209050338160000160006101000a81548173ffffffffffffffffffffffffffffffffffffffff021916908373ffffffffffffffffffffffffffffffffffffffff16021790555085816001019080519060200190610bca929190611552565b5084816002019080519060200190610be3929190611552565b50610bed84610180565b610c2c576040517f08c379a0000000000000000000000000000000000000000000000000000000008152600401610c2390612125565b60405180910390fd5b600054925050509392505050565b600080600080600080600080600080600080600a60029054906101000a900460ff16610c9b576040517f08c379a0000000000000000000000000000000000000000000000000000000008152600401610c92906120e5565b60405180910390fd5b600054600160009054906101000a900473ffffffffffffffffffffffffffffffffffffffff166002546003546004544760055460065460075447600c54600c5442610ce691906125e4565b6001600554610cf5919061258a565b610cff91906125e4565b9b509b509b509b509b509b509b509b509b509b509b509b50909192939495969798999a9b565b600a60029054906101000a900460ff16610d74576040517f08c379a0000000000000000000000000000000000000000000000000000000008152600401610d6b90612205565b60405180910390fd5b60095460035414610dba576040517f08c379a0000000000000000000000000000000000000000000000000000000008152600401610db190612185565b60405180910390fd5b600a60039054906101000a900473ffffffffffffffffffffffffffffffffffffffff1673ffffffffffffffffffffffffffffffffffffffff163373ffffffffffffffffffffffffffffffffffffffff1614610e4a576040517f08c379a0000000000000000000000000000000000000000000000000000000008152600401610e41906121e5565b60405180910390fd5b6001600a60006101000a81548160ff021916908315150217905550565b600a60029054906101000a900460ff16610eb6576040517f08c379a0000000000000000000000000000000000000000000000000000000008152600401610ead90612205565b60405180910390fd5b6000600654825114610efd576040517f08c379a0000000000000000000000000000000000000000000000000000000008152600401610ef490612325565b60405180910390fd5b600a60039054906101000a900473ffffffffffffffffffffffffffffffffffffffff1673ffffffffffffffffffffffffffffffffffffffff163373ffffffffffffffffffffffffffffffffffffffff1614610f8d576040517f08c379a0000000000000000000000000000000000000000000000000000000008152600401610f8490612105565b60405180910390fd5b60001515600a60009054906101000a900460ff16151514610fe3576040517f08c379a0000000000000000000000000000000000000000000000000000000008152600401610fda906121c5565b60405180910390fd5b60011515600a60019054906101000a900460ff16151514611039576040517f08c379a000000000000000000000000000000000000000000000000000000000815260040161103090612365565b60405180910390fd5b6001600554611048919061258a565b600c544261105691906125e4565b11611096576040517f08c379a000000000000000000000000000000000000000000000000000000000815260040161108d90612245565b60405180910390fd5b600090505b81518110156111eb57600d60009054906101000a900473ffffffffffffffffffffffffffffffffffffffff1673ffffffffffffffffffffffffffffffffffffffff1663a9059cbb83838151811061111b577f4e487b7100000000000000000000000000000000000000000000000000000000600052603260045260246000fd5b60200260200101516008848154811061115d577f4e487b7100000000000000000000000000000000000000000000000000000000600052603260045260246000fd5b90600052602060002001546040518363ffffffff1660e01b81526004016111859291906120a1565b602060405180830381600087803b15801561119f57600080fd5b505af11580156111b3573d6000803e3d6000fd5b505050506040513d601f19601f820116820180604052508101906111d791906117fc565b5080806111e390612660565b91505061109b565b600160009054906101000a900473ffffffffffffffffffffffffffffffffffffffff1673ffffffffffffffffffffffffffffffffffffffff166108fc479081150290604051600060405180830381858888f19350505050158015611253573d6000803e3d6000fd5b506000600d60009054906101000a900473ffffffffffffffffffffffffffffffffffffffff1673ffffffffffffffffffffffffffffffffffffffff166370a08231306040518263ffffffff1660e01b81526004016112b19190612026565b60206040518083038186803b1580156112c957600080fd5b505afa1580156112dd573d6000803e3d6000fd5b505050506040513d601f19601f82011682018060405250810190611301919061184e565b9050600d60009054906101000a900473ffffffffffffffffffffffffffffffffffffffff1673ffffffffffffffffffffffffffffffffffffffff1663a9059cbb600160009054906101000a900473ffffffffffffffffffffffffffffffffffffffff16836040518363ffffffff1660e01b81526004016113829291906120a1565b602060405180830381600087803b15801561139c57600080fd5b505af11580156113b0573d6000803e3d6000fd5b505050506040513d601f19601f820116820180604052508101906113d491906117fc565b50505050565b8351851461141d576040517f08c379a000000000000000000000000000000000000000000000000000000000815260040161141490612145565b60405180910390fd5b8360089080519060200190611433929190611552565b508860008190555033600160006101000a81548173ffffffffffffffffffffffffffffffffffffffff021916908373ffffffffffffffffffffffffffffffffffffffff16021790555085600981905550600060038190555087600481905550866005819055508460068190555082600281905550806007819055506000600a60006101000a81548160ff0219169083151502179055506000600a60016101000a81548160ff0219169083151502179055506114ed82610180565b61152c576040517f08c379a000000000000000000000000000000000000000000000000000000000815260040161152390612125565b60405180910390fd5b6001600a60026101000a81548160ff021916908315150217905550505050505050505050565b82805482825590600052602060002090810192821561158e579160200282015b8281111561158d578251825591602001919060010190611572565b5b50905061159b919061159f565b5090565b5b808211156115b85760008160009055506001016115a0565b5090565b60006115cf6115ca846124cb565b61249a565b905080838252602082019050828560208602820111156115ee57600080fd5b60005b8581101561161e57816116048882611694565b8452602084019350602083019250506001810190506115f1565b5050509392505050565b600061163b611636846124f7565b61249a565b9050808382526020820190508285602086028201111561165a57600080fd5b60005b8581101561168a57816116708882611712565b84526020840193506020830192505060018101905061165d565b5050509392505050565b6000813590506116a381612707565b92915050565b600082601f8301126116ba57600080fd5b81356116ca8482602086016115bc565b91505092915050565b600082601f8301126116e457600080fd5b81356116f4848260208601611628565b91505092915050565b60008151905061170c8161271e565b92915050565b60008135905061172181612735565b92915050565b60008151905061173681612735565b92915050565b60006020828403121561174e57600080fd5b600082013567ffffffffffffffff81111561176857600080fd5b611774848285016116a9565b91505092915050565b60008060006060848603121561179257600080fd5b600084013567ffffffffffffffff8111156117ac57600080fd5b6117b8868287016116d3565b935050602084013567ffffffffffffffff8111156117d557600080fd5b6117e1868287016116d3565b92505060406117f286828701611712565b9150509250925092565b60006020828403121561180e57600080fd5b600061181c848285016116fd565b91505092915050565b60006020828403121561183757600080fd5b600061184584828501611712565b91505092915050565b60006020828403121561186057600080fd5b600061186e84828501611727565b91505092915050565b60008060008060008060008060006101208a8c03121561189657600080fd5b60006118a48c828d01611712565b99505060206118b58c828d01611712565b98505060406118c68c828d01611712565b97505060606118d78c828d01611712565b96505060806118e88c828d01611712565b95505060a08a013567ffffffffffffffff81111561190557600080fd5b6119118c828d016116d3565b94505060c06119228c828d01611712565b93505060e06119338c828d01611712565b9250506101006119458c828d01611712565b9150509295985092959850929598565b61195e81612618565b82525050565b61196d8161262a565b82525050565b6000611980601983612523565b91507f5468652067616d65206973206e6f7420616374697661746564000000000000006000830152602082019050919050565b60006119c0602683612523565b91507f6f6e6c7920746865206f7267616e697a6174696f6e2063616e20656e6420746860008301527f652067616d6500000000000000000000000000000000000000000000000000006020830152604082019050919050565b6000611a26601883612523565b91507f546f6b656e207472616e73616374696f6e206661696c656400000000000000006000830152602082019050919050565b6000611a66603d83612523565b91507f4e756d626572206f662077696e6e65727320646f65736e2774206d617463682060008301527f776974682074686520776569676874616765206f662077696e6e6572730000006020830152604082019050919050565b6000611acc601f83612523565b91507f57656967687461676520666f7220636f696e73206973206e6f742073656e74006000830152602082019050919050565b6000611b0c601e83612523565b91507f4d69736d6174636820696e206e756d626572206f6620706c61796572732e00006000830152602082019050919050565b6000611b4c601483612523565b91507f5468652067616d652068617320737461727465640000000000000000000000006000830152602082019050919050565b6000611b8c601083612523565b91507f5468652067616d65206973206c697665000000000000000000000000000000006000830152602082019050919050565b6000611bcc602883612523565b91507f6f6e6c7920746865206f7267616e697a6174696f6e2063616e2073746172742060008301527f7468652067616d650000000000000000000000000000000000000000000000006020830152604082019050919050565b6000611c32601d83612523565b91507f5468652067616d65206973206e6f7420796574206163746976617465640000006000830152602082019050919050565b6000611c72601983612523565b91507f436865636b2074686520746f6b656e20616c6c6f77616e6365000000000000006000830152602082019050919050565b6000611cb2601983612523565b91507f47616d65206973207374696c6c20696e2070726f6772657373000000000000006000830152602082019050919050565b6000611cf2601283612523565b91507f5468652067616d652068617320656e64656400000000000000000000000000006000830152602082019050919050565b6000611d32602683612523565b91507f57656967687461676520666f7220616c6c20636f696e73206973206e6f74207060008301527f726573656e7400000000000000000000000000000000000000000000000000006020830152604082019050919050565b6000611d98603883612523565b91507f506c6179657220686173206e6f7420636f6e747269627574656420746865206560008301527f7861637420616d6f756e7420666f72207468652067616d6500000000000000006020830152604082019050919050565b6000611dfe601483612523565b91507f5468652067616d65206973206e6f74206c6976650000000000000000000000006000830152602082019050919050565b6000611e3e602383612523565b91507f596f75206861766520746f2063686f6f7365206174206c65617374203720636f60008301527f696e7300000000000000000000000000000000000000000000000000000000006020830152604082019050919050565b6000611ea4601e83612523565b91507f5468652067616d652068617320616c726561647920636f6d706c6574656400006000830152602082019050919050565b6000611ee4601d83612523565b91507f4d69736d6174636820696e206e756d626572206f662077696e6e6572730000006000830152602082019050919050565b6000611f24601783612523565b91507f596f752063616e27742073656e64203020746f6b656e730000000000000000006000830152602082019050919050565b6000611f64601f83612523565b91507f5468652067616d6520686173206e6f74206265656e20636f6d706c65746564006000830152602082019050919050565b6000611fa4601983612523565b91507f54686520706c6179657220636f756e74207265616368656421000000000000006000830152602082019050919050565b6000611fe4601783612523565b91507f576569676874616765206973206e6f742070726f7065720000000000000000006000830152602082019050919050565b61202081612656565b82525050565b600060208201905061203b6000830184611955565b92915050565b60006040820190506120566000830185611955565b6120636020830184611955565b9392505050565b600060608201905061207f6000830186611955565b61208c6020830185611955565b6120996040830184612017565b949350505050565b60006040820190506120b66000830185611955565b6120c36020830184612017565b9392505050565b60006020820190506120df6000830184611964565b92915050565b600060208201905081810360008301526120fe81611973565b9050919050565b6000602082019050818103600083015261211e816119b3565b9050919050565b6000602082019050818103600083015261213e81611a19565b9050919050565b6000602082019050818103600083015261215e81611a59565b9050919050565b6000602082019050818103600083015261217e81611abf565b9050919050565b6000602082019050818103600083015261219e81611aff565b9050919050565b600060208201905081810360008301526121be81611b3f565b9050919050565b600060208201905081810360008301526121de81611b7f565b9050919050565b600060208201905081810360008301526121fe81611bbf565b9050919050565b6000602082019050818103600083015261221e81611c25565b9050919050565b6000602082019050818103600083015261223e81611c65565b9050919050565b6000602082019050818103600083015261225e81611ca5565b9050919050565b6000602082019050818103600083015261227e81611ce5565b9050919050565b6000602082019050818103600083015261229e81611d25565b9050919050565b600060208201905081810360008301526122be81611d8b565b9050919050565b600060208201905081810360008301526122de81611df1565b9050919050565b600060208201905081810360008301526122fe81611e31565b9050919050565b6000602082019050818103600083015261231e81611e97565b9050919050565b6000602082019050818103600083015261233e81611ed7565b9050919050565b6000602082019050818103600083015261235e81611f17565b9050919050565b6000602082019050818103600083015261237e81611f57565b9050919050565b6000602082019050818103600083015261239e81611f97565b9050919050565b600060208201905081810360008301526123be81611fd7565b9050919050565b60006020820190506123da6000830184612017565b92915050565b6000610180820190506123f6600083018f612017565b612403602083018e611955565b612410604083018d612017565b61241d606083018c612017565b61242a608083018b612017565b61243760a083018a612017565b61244460c0830189612017565b61245160e0830188612017565b61245f610100830187612017565b61246d610120830186612017565b61247b610140830185612017565b612489610160830184612017565b9d9c50505050505050505050505050565b6000604051905081810181811067ffffffffffffffff821117156124c1576124c06126d8565b5b8060405250919050565b600067ffffffffffffffff8211156124e6576124e56126d8565b5b602082029050602081019050919050565b600067ffffffffffffffff821115612512576125116126d8565b5b602082029050602081019050919050565b600082825260208201905092915050565b600061253f82612656565b915061254a83612656565b9250827fffffffffffffffffffffffffffffffffffffffffffffffffffffffffffffffff0382111561257f5761257e6126a9565b5b828201905092915050565b600061259582612656565b91506125a083612656565b9250817fffffffffffffffffffffffffffffffffffffffffffffffffffffffffffffffff04831182151516156125d9576125d86126a9565b5b828202905092915050565b60006125ef82612656565b91506125fa83612656565b92508282101561260d5761260c6126a9565b5b828203905092915050565b600061262382612636565b9050919050565b60008115159050919050565b600073ffffffffffffffffffffffffffffffffffffffff82169050919050565b6000819050919050565b600061266b82612656565b91507fffffffffffffffffffffffffffffffffffffffffffffffffffffffffffffffff82141561269e5761269d6126a9565b5b600182019050919050565b7f4e487b7100000000000000000000000000000000000000000000000000000000600052601160045260246000fd5b7f4e487b7100000000000000000000000000000000000000000000000000000000600052604160045260246000fd5b61271081612618565b811461271b57600080fd5b50565b6127278161262a565b811461273257600080fd5b50565b61273e81612656565b811461274957600080fd5b5056fea264697066735822122080baddc7d70f262b7703c37a8e85a685689075da6e141cabb3b87e225bce985f64736f6c63430008000033",
  "immutableReferences": {},
  "source": "// Coin Fantasy Game\r\n// SPDX-License-Identifier: CoinFantasy Game\r\n\r\npragma solidity ^0.8.0;\r\n\r\nimport \"@openzeppelin/contracts/token/ERC20/ERC20.sol\";\r\n\r\n\r\ncontract Game{\r\n    uint256 gameId;\r\n    address gameOwner;\r\n    uint256 gamePool;\r\n    uint256 curNumPlayers;\r\n    uint256 numCoins;\r\n    uint256 gameTime;\r\n    uint256 numWinners;\r\n    uint256 playerContribution;\r\n    uint256[] winnerWeights;\r\n    uint256 numPlayers;\r\n    bool live;\r\n    bool completed;\r\n    bool activated;\r\n    address orgAddress = 0x1c4804d9FA63E90dED85aFcCe779b9dD67E00f3a;\r\n    address payable orgWallet = payable(address(orgAddress));\r\n    uint256 startTime = block.timestamp;\r\n    ERC20 usdc;\r\n\r\n    struct Player {\r\n        address player;\r\n        uint256[] coins;\r\n        uint256[] weightage;\r\n    }\r\n\r\n    mapping(uint256 => Player) players;\r\n\r\n    constructor(\r\n        address _token\r\n    ){\r\n        activated = false;\r\n        usdc = ERC20(_token);\r\n    }\r\n\r\n    function pseudoConstructor(\r\n        uint256 _gameId,//                      -0\r\n        uint256 _numCoins,//                    -1\r\n        uint256 _gameTime,//                    -2\r\n        uint256 _numPlayers,//                  -3\r\n        uint256 _numWinners,//                  -4\r\n        uint256[] memory _winnerWeights,//      -5\r\n        uint256 _gamePool,//                    -6\r\n        uint256 _lockIn,//                      -7\r\n        uint256 _playerContribution//           -8\r\n    ) public {\r\n\r\n        require(\r\n            _numWinners == _winnerWeights.length,\r\n            \"Number of winners doesn't match with the weightage of winners\"\r\n        );\r\n\r\n        winnerWeights = _winnerWeights;\r\n\r\n        gameId = _gameId;\r\n        gameOwner = msg.sender;\r\n        numPlayers = _numPlayers;\r\n        curNumPlayers = 0;\r\n        numCoins = _numCoins;\r\n        gameTime = _gameTime;\r\n        numWinners = _numWinners;   \r\n        gamePool = _gamePool;\r\n        playerContribution = _playerContribution;\r\n        live = false;\r\n        completed = false;\r\n        require(buyToken(_lockIn), \"Token transaction failed\");\r\n        activated = true;\r\n    }\r\n\r\n    function buyToken(uint256 amount) public returns (bool) {\r\n        require(amount > 0, \"You can't send 0 tokens\");\r\n        uint256 allowance = usdc.allowance(msg.sender, address(this));\r\n        require(allowance >= amount, \"Check the token allowance\");\r\n        usdc.transferFrom(msg.sender, address(this), amount);\r\n        return true;\r\n    }\r\n\r\n\r\n    function startGame() public {\r\n        require(activated, \"The game is not yet activated\");\r\n        require(curNumPlayers == numPlayers, \"Mismatch in number of players.\");\r\n        require(\r\n            msg.sender == orgAddress,\r\n            \"only the organization can start the game\"\r\n        );\r\n        live = true;\r\n    }\r\n\r\n    function joinGame(uint256[] memory coins, uint256[] memory weightage, uint256 amount)\r\n        public\r\n        returns (uint256 _gameId)\r\n    {\r\n        require(activated, \"The game is not yet activated\");\r\n        require(curNumPlayers < numPlayers, \"The player count reached!\");\r\n        require(live == false, \"The game has started\");\r\n        require(completed == false, \"The game has ended\");\r\n        require(\r\n            amount >= playerContribution,\r\n            \"Player has not contributed the exact amount for the game\"\r\n        );\r\n        require(\r\n            coins.length >= numCoins,\r\n            \"You have to choose at least 7 coins\"\r\n        );\r\n        require(weightage.length > 0, \"Weightage for coins is not sent\");\r\n        require(\r\n            weightage.length == coins.length,\r\n            \"Weightage for all coins is not present\"\r\n        );\r\n\r\n        \r\n\r\n        uint256 totalWeightage = 0;\r\n        for (uint256 i = 0; i < weightage.length; i++) {\r\n            totalWeightage += weightage[i];\r\n        }\r\n\r\n        require(\r\n            totalWeightage > 0 && totalWeightage < 100,\r\n            \"Weightage is not proper\"\r\n        );\r\n\r\n        Player storage newPlayer = players[curNumPlayers++];\r\n        newPlayer.player = msg.sender;\r\n        newPlayer.coins = coins;\r\n        newPlayer.weightage = weightage;\r\n\r\n        require(buyToken(amount), \"Token transaction failed\");\r\n\r\n        return gameId;\r\n    }\r\n\r\n    function finalize() public {\r\n        require(\r\n            msg.sender == orgAddress,\r\n            \"only the organization can end the game\"\r\n        );\r\n        orgWallet.transfer(address(this).balance);\r\n        uint256 rem_balance = usdc.balanceOf(address(this));\r\n        usdc.transfer(orgAddress, rem_balance);\r\n        \r\n        selfdestruct(payable(address(this)));\r\n        \r\n    }\r\n\r\n    function endGame() public returns (bool) {\r\n        require(activated, \"The game is not yet activated\");\r\n        require(\r\n            msg.sender == orgAddress,\r\n            \"only the organization can end the game\"\r\n        );\r\n        require(live == true, \"The game is not live\");\r\n        require(completed == false, \"The game has already completed\");\r\n        require(\r\n            block.timestamp - startTime > gameTime * 1,\r\n            \"Game is still in progress\"\r\n        );\r\n\r\n        live = false;\r\n        completed = true;\r\n\r\n        return true;\r\n    }\r\n\r\n    function distributePrize(address[] memory winners) public {\r\n        require(activated, \"The game is not yet activated\");\r\n        uint256 i;\r\n        require(winners.length == numWinners, \"Mismatch in number of winners\");\r\n        require(\r\n            msg.sender == orgAddress,\r\n            \"only the organization can end the game\"\r\n        );\r\n        require(live == false, \"The game is live\");\r\n        require(completed == true, \"The game has not been completed\");\r\n        require(\r\n            block.timestamp - startTime > gameTime * 1,\r\n            \"Game is still in progress\"\r\n        );\r\n\r\n        for (i = 0; i < winners.length; i++) {\r\n            usdc.transfer(winners[i], winnerWeights[i]);\r\n        }\r\n        payable(gameOwner).transfer(address(this).balance);\r\n        uint256 balance = usdc.balanceOf(address(this));\r\n        usdc.transfer(gameOwner, balance);\r\n    }\r\n\r\n    function getGameState()\r\n        public\r\n        view\r\n        returns (\r\n            uint256,// gameId,                  -0\r\n            address,// gameOwner,               -1\r\n            uint256,// gamePool,                -2\r\n            uint256,// numPlayers,              -3\r\n            uint256,// numCoins,                -4\r\n            uint256,// contractBalance,         -5\r\n            //gameTime - should be in seconds\r\n            uint256,// gameTime,                -6\r\n            uint256,// numWinners,              -7\r\n            uint256,// playerContribution       -8\r\n            uint256,//account balance           -9\r\n            uint256,//startTime                 -10\r\n            uint256//ends in                    -11\r\n            // bool,   //live                   -12\r\n            // bool    //completed              -13\r\n        )\r\n    {\r\n        require(activated, \"The game is not activated\");\r\n        return (\r\n            gameId,\r\n            gameOwner,\r\n            gamePool,\r\n            curNumPlayers,\r\n            numCoins,\r\n            address(this).balance,\r\n            gameTime,\r\n            numWinners,\r\n            playerContribution,\r\n            address(this).balance,\r\n            startTime,\r\n            gameTime * 1 - (block.timestamp - startTime)\r\n            // live,\r\n            // completed\r\n        );\r\n    }\r\n}\r\n",
  "sourcePath": "D:/projects/coinFantasy/CoinFantasy/contracts/CoinGame.sol",
  "compiler": {
    "name": "solc",
    "version": "0.8.0+commit.c7dfd78e.Emscripten.clang"
  },
  "schemaVersion": "3.3.4",
  "updatedAt": "2021-04-30T12:22:27.488Z",
  "networkType": "ethereum",
  "devdoc": {
    "kind": "dev",
    "methods": {},
    "version": 1
  },
  "userdoc": {
    "kind": "user",
    "methods": {},
    "version": 1
  }
}