{
  "contractName": "Game",
  "abi": [
    {
      "inputs": [
        {
          "internalType": "uint256",
          "name": "_gameId",
          "type": "uint256"
        },
        {
          "internalType": "uint256",
          "name": "_numCoins",
          "type": "uint256"
        },
        {
          "internalType": "uint256",
          "name": "_gameTime",
          "type": "uint256"
        },
        {
          "internalType": "uint256",
          "name": "_numWinners",
          "type": "uint256"
        },
        {
          "internalType": "uint256[]",
          "name": "_winnerWeights",
          "type": "uint256[]"
        },
        {
          "internalType": "uint256",
          "name": "_gamePool",
          "type": "uint256"
        },
        {
          "internalType": "uint256",
          "name": "_lockIn",
          "type": "uint256"
        },
        {
          "internalType": "uint256",
          "name": "_playerContribution",
          "type": "uint256"
        }
      ],
      "stateMutability": "payable",
      "type": "constructor",
      "payable": true
    },
    {
      "inputs": [],
      "name": "startGame",
      "outputs": [],
      "stateMutability": "nonpayable",
      "type": "function"
    },
    {
      "inputs": [
        {
          "internalType": "uint256[]",
          "name": "coins",
          "type": "uint256[]"
        },
        {
          "internalType": "uint256[]",
          "name": "weightage",
          "type": "uint256[]"
        }
      ],
      "name": "joinGame",
      "outputs": [
        {
          "internalType": "uint256",
          "name": "_gameId",
          "type": "uint256"
        }
      ],
      "stateMutability": "payable",
      "type": "function",
      "payable": true
    },
    {
      "inputs": [],
      "name": "finalize",
      "outputs": [],
      "stateMutability": "nonpayable",
      "type": "function"
    },
    {
      "inputs": [],
      "name": "endGame",
      "outputs": [
        {
          "internalType": "bool",
          "name": "",
          "type": "bool"
        }
      ],
      "stateMutability": "nonpayable",
      "type": "function"
    },
    {
      "inputs": [
        {
          "internalType": "address[]",
          "name": "winners",
          "type": "address[]"
        }
      ],
      "name": "distributePrize",
      "outputs": [],
      "stateMutability": "nonpayable",
      "type": "function"
    },
    {
      "inputs": [],
      "name": "getGameState",
      "outputs": [
        {
          "internalType": "uint256",
          "name": "",
          "type": "uint256"
        },
        {
          "internalType": "address",
          "name": "",
          "type": "address"
        },
        {
          "internalType": "uint256",
          "name": "",
          "type": "uint256"
        },
        {
          "internalType": "uint256",
          "name": "",
          "type": "uint256"
        },
        {
          "internalType": "uint256",
          "name": "",
          "type": "uint256"
        },
        {
          "internalType": "uint256",
          "name": "",
          "type": "uint256"
        },
        {
          "internalType": "uint256",
          "name": "",
          "type": "uint256"
        },
        {
          "internalType": "uint256",
          "name": "",
          "type": "uint256"
        },
        {
          "internalType": "uint256",
          "name": "",
          "type": "uint256"
        },
        {
          "internalType": "uint256",
          "name": "",
          "type": "uint256"
        },
        {
          "internalType": "uint256",
          "name": "",
          "type": "uint256"
        },
        {
          "internalType": "uint256",
          "name": "",
          "type": "uint256"
        }
      ],
      "stateMutability": "view",
      "type": "function",
      "constant": true
    }
  ],
  "bytecode": "0x608060405273604bcd042d2d5b355ece14b6ac3224d23f29a51c600960026101000a81548173ffffffffffffffffffffffffffffffffffffffff021916908373ffffffffffffffffffffffffffffffffffffffff160217905550600960029054906101000a900473ffffffffffffffffffffffffffffffffffffffff16600a60006101000a81548173ffffffffffffffffffffffffffffffffffffffff021916908373ffffffffffffffffffffffffffffffffffffffff16021790555042600b556040516200211d3803806200211d8339818101604052810190620000e59190620003e9565b60018383620000f591906200064d565b6200010191906200064d565b3460646200011091906200064d565b101562000154576040517f08c379a00000000000000000000000000000000000000000000000000000000081526004016200014b90620005b7565b60405180910390fd5b835185146200019a576040517f08c379a0000000000000000000000000000000000000000000000000000000008152600401620001919062000595565b60405180910390fd5b8360089080519060200190620001b2929190620002bf565b508760008190555033600160006101000a81548173ffffffffffffffffffffffffffffffffffffffff021916908373ffffffffffffffffffffffffffffffffffffffff160217905550600060038190555086600481905550856005819055508460068190555082600281905550806007819055506000600960006101000a81548160ff0219169083151502179055506000600960016101000a81548160ff0219169083151502179055507307865c6e87b9f70255377e024ace6630c1eaa37f600c60006101000a81548173ffffffffffffffffffffffffffffffffffffffff021916908373ffffffffffffffffffffffffffffffffffffffff160217905550505050505050505062000730565b828054828255906000526020600020908101928215620002fe579160200282015b82811115620002fd578251825591602001919060010190620002e0565b5b5090506200030d919062000311565b5090565b5b808211156200032c57600081600090555060010162000312565b5090565b60006200034762000341846200060d565b620005d9565b905080838252602082019050828560208602820111156200036757600080fd5b60005b858110156200039b5781620003808882620003d2565b8452602084019350602083019250506001810190506200036a565b5050509392505050565b600082601f830112620003b757600080fd5b8151620003c984826020860162000330565b91505092915050565b600081519050620003e38162000716565b92915050565b600080600080600080600080610100898b0312156200040757600080fd5b6000620004178b828c01620003d2565b98505060206200042a8b828c01620003d2565b97505060406200043d8b828c01620003d2565b9650506060620004508b828c01620003d2565b955050608089015167ffffffffffffffff8111156200046e57600080fd5b6200047c8b828c01620003a5565b94505060a06200048f8b828c01620003d2565b93505060c0620004a28b828c01620003d2565b92505060e0620004b58b828c01620003d2565b9150509295985092959890939650565b6000620004d4603d836200063c565b91507f4e756d626572206f662077696e6e65727320646f65736e2774206d617463682060008301527f776974682074686520776569676874616765206f662077696e6e6572730000006020830152604082019050919050565b60006200053c602e836200063c565b91507f43726561746f72206e6565647320746f206c6f636b496e2031302520746f206360008301527f7265617465207468652067616d650000000000000000000000000000000000006020830152604082019050919050565b60006020820190508181036000830152620005b081620004c5565b9050919050565b60006020820190508181036000830152620005d2816200052d565b9050919050565b6000604051905081810181811067ffffffffffffffff82111715620006035762000602620006e7565b5b8060405250919050565b600067ffffffffffffffff8211156200062b576200062a620006e7565b5b602082029050602081019050919050565b600082825260208201905092915050565b60006200065a82620006ae565b91506200066783620006ae565b9250817fffffffffffffffffffffffffffffffffffffffffffffffffffffffffffffffff0483118215151615620006a357620006a2620006b8565b5b828202905092915050565b6000819050919050565b7f4e487b7100000000000000000000000000000000000000000000000000000000600052601160045260246000fd5b7f4e487b7100000000000000000000000000000000000000000000000000000000600052604160045260246000fd5b6200072181620006ae565b81146200072d57600080fd5b50565b6119dd80620007406000396000f3fe6080604052600436106100555760003560e01c80634bb278f31461005a5780636cbc2ded14610071578063b7d0628b1461009c578063d65ab5f2146100d2578063f1d5f911146100e9578063f4aaf6f214610112575b600080fd5b34801561006657600080fd5b5061006f610142565b005b34801561007d57600080fd5b50610086610254565b60405161009391906113fc565b60405180910390f35b3480156100a857600080fd5b506100b161042c565b6040516100c99c9b9a99989796959493929190611652565b60405180910390f35b3480156100de57600080fd5b506100e76104c8565b005b3480156100f557600080fd5b50610110600480360381019061010b9190610e24565b6105b9565b005b61012c60048036038101906101279190610e65565b6108f2565b6040516101399190611637565b60405180910390f35b600960029054906101000a900473ffffffffffffffffffffffffffffffffffffffff1673ffffffffffffffffffffffffffffffffffffffff163373ffffffffffffffffffffffffffffffffffffffff16146101d2576040517f08c379a00000000000000000000000000000000000000000000000000000000081526004016101c990611417565b60405180910390fd5b600a60009054906101000a900473ffffffffffffffffffffffffffffffffffffffff1673ffffffffffffffffffffffffffffffffffffffff166108fc479081150290604051600060405180830381858888f1935050505015801561023a573d6000803e3d6000fd5b503073ffffffffffffffffffffffffffffffffffffffff16ff5b6000600960029054906101000a900473ffffffffffffffffffffffffffffffffffffffff1673ffffffffffffffffffffffffffffffffffffffff163373ffffffffffffffffffffffffffffffffffffffff16146102e6576040517f08c379a00000000000000000000000000000000000000000000000000000000081526004016102dd90611417565b60405180910390fd5b60011515600960009054906101000a900460ff1615151461033c576040517f08c379a000000000000000000000000000000000000000000000000000000000815260040161033390611557565b60405180910390fd5b60001515600960019054906101000a900460ff16151514610392576040517f08c379a000000000000000000000000000000000000000000000000000000000815260040161038990611597565b60405180910390fd5b60016005546103a191906117fc565b600b54426103af9190611856565b116103ef576040517f08c379a00000000000000000000000000000000000000000000000000000000081526004016103e6906114d7565b60405180910390fd5b6000600960006101000a81548160ff0219169083151502179055506001600960016101000a81548160ff0219169083151502179055506001905090565b600080600080600080600080600080600080600054600160009054906101000a900473ffffffffffffffffffffffffffffffffffffffff166002546003546004544760055460065460075447600b54600b54426104899190611856565b600160055461049891906117fc565b6104a29190611856565b9b509b509b509b509b509b509b509b509b509b509b509b50909192939495969798999a9b565b600380541461050c576040517f08c379a000000000000000000000000000000000000000000000000000000000815260040161050390611457565b60405180910390fd5b600960029054906101000a900473ffffffffffffffffffffffffffffffffffffffff1673ffffffffffffffffffffffffffffffffffffffff163373ffffffffffffffffffffffffffffffffffffffff161461059c576040517f08c379a0000000000000000000000000000000000000000000000000000000008152600401610593906114b7565b60405180910390fd5b6001600960006101000a81548160ff021916908315150217905550565b6000600654825114610600576040517f08c379a00000000000000000000000000000000000000000000000000000000081526004016105f7906115b7565b60405180910390fd5b600960029054906101000a900473ffffffffffffffffffffffffffffffffffffffff1673ffffffffffffffffffffffffffffffffffffffff163373ffffffffffffffffffffffffffffffffffffffff1614610690576040517f08c379a000000000000000000000000000000000000000000000000000000000815260040161068790611417565b60405180910390fd5b60001515600960009054906101000a900460ff161515146106e6576040517f08c379a00000000000000000000000000000000000000000000000000000000081526004016106dd90611497565b60405180910390fd5b60011515600960019054906101000a900460ff1615151461073c576040517f08c379a0000000000000000000000000000000000000000000000000000000008152600401610733906115d7565b60405180910390fd5b600160055461074b91906117fc565b600b54426107599190611856565b11610799576040517f08c379a0000000000000000000000000000000000000000000000000000000008152600401610790906114d7565b60405180910390fd5b600090505b8151811015610885578181815181106107e0577f4e487b7100000000000000000000000000000000000000000000000000000000600052603260045260246000fd5b602002602001015173ffffffffffffffffffffffffffffffffffffffff166108fc6008838154811061083b577f4e487b7100000000000000000000000000000000000000000000000000000000600052603260045260246000fd5b90600052602060002001549081150290604051600060405180830381858888f19350505050158015610871573d6000803e3d6000fd5b50808061087d906118d2565b91505061079e565b600160009054906101000a900473ffffffffffffffffffffffffffffffffffffffff1673ffffffffffffffffffffffffffffffffffffffff166108fc479081150290604051600060405180830381858888f193505050501580156108ed573d6000803e3d6000fd5b505050565b60006003805410610938576040517f08c379a000000000000000000000000000000000000000000000000000000000815260040161092f906115f7565b60405180910390fd5b60001515600960009054906101000a900460ff1615151461098e576040517f08c379a000000000000000000000000000000000000000000000000000000000815260040161098590611477565b60405180910390fd5b60001515600960019054906101000a900460ff161515146109e4576040517f08c379a00000000000000000000000000000000000000000000000000000000081526004016109db906114f7565b60405180910390fd5b600754341015610a29576040517f08c379a0000000000000000000000000000000000000000000000000000000008152600401610a2090611537565b60405180910390fd5b60045483511015610a6f576040517f08c379a0000000000000000000000000000000000000000000000000000000008152600401610a6690611577565b60405180910390fd5b6000825111610ab3576040517f08c379a0000000000000000000000000000000000000000000000000000000008152600401610aaa90611437565b60405180910390fd5b8251825114610af7576040517f08c379a0000000000000000000000000000000000000000000000000000000008152600401610aee90611517565b60405180910390fd5b6000805b8351811015610b6557838181518110610b3d577f4e487b7100000000000000000000000000000000000000000000000000000000600052603260045260246000fd5b602002602001015182610b5091906117a6565b91508080610b5d906118d2565b915050610afb565b50600081118015610b765750606481105b610bb5576040517f08c379a0000000000000000000000000000000000000000000000000000000008152600401610bac90611617565b60405180910390fd5b6000600d600060036000815480929190610bce906118d2565b9190505581526020019081526020016000209050338160000160006101000a81548173ffffffffffffffffffffffffffffffffffffffff021916908373ffffffffffffffffffffffffffffffffffffffff16021790555084816001019080519060200190610c3d929190610c64565b5083816002019080519060200190610c56929190610c64565b506000549250505092915050565b828054828255906000526020600020908101928215610ca0579160200282015b82811115610c9f578251825591602001919060010190610c84565b5b509050610cad9190610cb1565b5090565b5b80821115610cca576000816000905550600101610cb2565b5090565b6000610ce1610cdc8461173d565b61170c565b90508083825260208201905082856020860282011115610d0057600080fd5b60005b85811015610d305781610d168882610da6565b845260208401935060208301925050600181019050610d03565b5050509392505050565b6000610d4d610d4884611769565b61170c565b90508083825260208201905082856020860282011115610d6c57600080fd5b60005b85811015610d9c5781610d828882610e0f565b845260208401935060208301925050600181019050610d6f565b5050509392505050565b600081359050610db581611979565b92915050565b600082601f830112610dcc57600080fd5b8135610ddc848260208601610cce565b91505092915050565b600082601f830112610df657600080fd5b8135610e06848260208601610d3a565b91505092915050565b600081359050610e1e81611990565b92915050565b600060208284031215610e3657600080fd5b600082013567ffffffffffffffff811115610e5057600080fd5b610e5c84828501610dbb565b91505092915050565b60008060408385031215610e7857600080fd5b600083013567ffffffffffffffff811115610e9257600080fd5b610e9e85828601610de5565b925050602083013567ffffffffffffffff811115610ebb57600080fd5b610ec785828601610de5565b9150509250929050565b610eda8161188a565b82525050565b610ee98161189c565b82525050565b6000610efc602683611795565b91507f6f6e6c7920746865206f7267616e697a6174696f6e2063616e20656e6420746860008301527f652067616d6500000000000000000000000000000000000000000000000000006020830152604082019050919050565b6000610f62601f83611795565b91507f57656967687461676520666f7220636f696e73206973206e6f742073656e74006000830152602082019050919050565b6000610fa2601e83611795565b91507f4d69736d6174636820696e206e756d626572206f6620706c61796572732e00006000830152602082019050919050565b6000610fe2601483611795565b91507f5468652067616d652068617320737461727465640000000000000000000000006000830152602082019050919050565b6000611022601083611795565b91507f5468652067616d65206973206c697665000000000000000000000000000000006000830152602082019050919050565b6000611062602883611795565b91507f6f6e6c7920746865206f7267616e697a6174696f6e2063616e2073746172742060008301527f7468652067616d650000000000000000000000000000000000000000000000006020830152604082019050919050565b60006110c8601983611795565b91507f47616d65206973207374696c6c20696e2070726f6772657373000000000000006000830152602082019050919050565b6000611108601283611795565b91507f5468652067616d652068617320656e64656400000000000000000000000000006000830152602082019050919050565b6000611148602683611795565b91507f57656967687461676520666f7220616c6c20636f696e73206973206e6f74207060008301527f726573656e7400000000000000000000000000000000000000000000000000006020830152604082019050919050565b60006111ae603883611795565b91507f506c6179657220686173206e6f7420636f6e747269627574656420746865206560008301527f7861637420616d6f756e7420666f72207468652067616d6500000000000000006020830152604082019050919050565b6000611214601483611795565b91507f5468652067616d65206973206e6f74206c6976650000000000000000000000006000830152602082019050919050565b6000611254602383611795565b91507f596f75206861766520746f2063686f6f7365206174206c65617374203720636f60008301527f696e7300000000000000000000000000000000000000000000000000000000006020830152604082019050919050565b60006112ba601e83611795565b91507f5468652067616d652068617320616c726561647920636f6d706c6574656400006000830152602082019050919050565b60006112fa601d83611795565b91507f4d69736d6174636820696e206e756d626572206f662077696e6e6572730000006000830152602082019050919050565b600061133a601f83611795565b91507f5468652067616d6520686173206e6f74206265656e20636f6d706c65746564006000830152602082019050919050565b600061137a601983611795565b91507f54686520706c6179657220636f756e74207265616368656421000000000000006000830152602082019050919050565b60006113ba601783611795565b91507f576569676874616765206973206e6f742070726f7065720000000000000000006000830152602082019050919050565b6113f6816118c8565b82525050565b60006020820190506114116000830184610ee0565b92915050565b6000602082019050818103600083015261143081610eef565b9050919050565b6000602082019050818103600083015261145081610f55565b9050919050565b6000602082019050818103600083015261147081610f95565b9050919050565b6000602082019050818103600083015261149081610fd5565b9050919050565b600060208201905081810360008301526114b081611015565b9050919050565b600060208201905081810360008301526114d081611055565b9050919050565b600060208201905081810360008301526114f0816110bb565b9050919050565b60006020820190508181036000830152611510816110fb565b9050919050565b600060208201905081810360008301526115308161113b565b9050919050565b60006020820190508181036000830152611550816111a1565b9050919050565b6000602082019050818103600083015261157081611207565b9050919050565b6000602082019050818103600083015261159081611247565b9050919050565b600060208201905081810360008301526115b0816112ad565b9050919050565b600060208201905081810360008301526115d0816112ed565b9050919050565b600060208201905081810360008301526115f08161132d565b9050919050565b600060208201905081810360008301526116108161136d565b9050919050565b60006020820190508181036000830152611630816113ad565b9050919050565b600060208201905061164c60008301846113ed565b92915050565b600061018082019050611668600083018f6113ed565b611675602083018e610ed1565b611682604083018d6113ed565b61168f606083018c6113ed565b61169c608083018b6113ed565b6116a960a083018a6113ed565b6116b660c08301896113ed565b6116c360e08301886113ed565b6116d16101008301876113ed565b6116df6101208301866113ed565b6116ed6101408301856113ed565b6116fb6101608301846113ed565b9d9c50505050505050505050505050565b6000604051905081810181811067ffffffffffffffff821117156117335761173261194a565b5b8060405250919050565b600067ffffffffffffffff8211156117585761175761194a565b5b602082029050602081019050919050565b600067ffffffffffffffff8211156117845761178361194a565b5b602082029050602081019050919050565b600082825260208201905092915050565b60006117b1826118c8565b91506117bc836118c8565b9250827fffffffffffffffffffffffffffffffffffffffffffffffffffffffffffffffff038211156117f1576117f061191b565b5b828201905092915050565b6000611807826118c8565b9150611812836118c8565b9250817fffffffffffffffffffffffffffffffffffffffffffffffffffffffffffffffff048311821515161561184b5761184a61191b565b5b828202905092915050565b6000611861826118c8565b915061186c836118c8565b92508282101561187f5761187e61191b565b5b828203905092915050565b6000611895826118a8565b9050919050565b60008115159050919050565b600073ffffffffffffffffffffffffffffffffffffffff82169050919050565b6000819050919050565b60006118dd826118c8565b91507fffffffffffffffffffffffffffffffffffffffffffffffffffffffffffffffff8214156119105761190f61191b565b5b600182019050919050565b7f4e487b7100000000000000000000000000000000000000000000000000000000600052601160045260246000fd5b7f4e487b7100000000000000000000000000000000000000000000000000000000600052604160045260246000fd5b6119828161188a565b811461198d57600080fd5b50565b611999816118c8565b81146119a457600080fd5b5056fea26469706673582212203fd46ae3137347368a0457219698182fe9a4a9cf8fc85f90a05b817589cc486064736f6c63430008000033",
  "immutableReferences": {},
  "source": "// Coin Fantasy Game\r\n// SPDX-License-Identifier: CoinFantasy Game\r\n\r\npragma solidity ^0.8.0;\r\n\r\nimport \"@openzeppelin/contracts/utils/Context.sol\";\r\nimport \"@openzeppelin/contracts/token/ERC20/ERC20.sol\";\r\n\r\n\r\ncontract Game{\r\n    uint256 gameId;\r\n    address gameOwner;\r\n    uint256 gamePool;\r\n    uint256 numPlayers;\r\n    uint256 numCoins;\r\n    // uint256 contractBalance;\r\n    uint256 gameTime;\r\n    uint256 numWinners;\r\n    uint256 playerContribution;\r\n    uint256[] winnerWeights;\r\n    bool live;\r\n    bool completed;\r\n    address orgAddress = 0x604BCD042D2d5B355ecE14B6aC3224d23F29a51c;\r\n    address payable orgWallet = payable(address(orgAddress));\r\n    uint256 startTime = block.timestamp;\r\n    ERC20 usdc;\r\n    // int256[] startPrice;\r\n    // int256[] endPrice;\r\n\r\n    struct Player {\r\n        address player;\r\n        uint256[] coins;\r\n        uint256[] weightage;\r\n    }\r\n\r\n    mapping(uint256 => Player) players;\r\n\r\n    constructor(\r\n        uint256 _gameId,\r\n        uint256 _numCoins,\r\n        uint256 _gameTime,\r\n        uint256 _numWinners,\r\n        uint256[] memory _winnerWeights,\r\n        uint256 _gamePool,\r\n        uint256 _lockIn,\r\n        uint256 _playerContribution\r\n    ) payable {\r\n        require(\r\n            100 * msg.value >= (_lockIn * _gamePool * 1 wei),\r\n            \"Creator needs to lockIn 10% to create the game\"\r\n        );\r\n\r\n        require(\r\n            _numWinners == _winnerWeights.length,\r\n            \"Number of winners doesn't match with the weightage of winners\"\r\n        );\r\n\r\n        winnerWeights = _winnerWeights;\r\n\r\n        gameId = _gameId;\r\n        gameOwner = msg.sender;\r\n        numPlayers = 0;\r\n        numCoins = _numCoins;\r\n        // contractBalance = msg.value;\r\n        gameTime = _gameTime;\r\n        numWinners = _numWinners;\r\n        gamePool = _gamePool;\r\n        playerContribution = _playerContribution;\r\n        live = false;\r\n        completed = false;\r\n        usdc = ERC20(0x07865c6E87B9F70255377e024ace6630C1Eaa37F);\r\n    }\r\n\r\n    function startGame() public {\r\n        require(numPlayers == 3, \"Mismatch in number of players.\");\r\n        require(\r\n            msg.sender == orgAddress,\r\n            \"only the organization can start the game\"\r\n        );\r\n        live = true;\r\n    }\r\n\r\n    function joinGame(uint256[] memory coins, uint256[] memory weightage)\r\n        public\r\n        payable\r\n        returns (uint256 _gameId)\r\n    {\r\n        require(numPlayers < 3, \"The player count reached!\");\r\n        require(live == false, \"The game has started\");\r\n        require(completed == false, \"The game has ended\");\r\n        require(\r\n            msg.value >= playerContribution,\r\n            \"Player has not contributed the exact amount for the game\"\r\n        );\r\n        require(\r\n            coins.length >= numCoins,\r\n            \"You have to choose at least 7 coins\"\r\n        );\r\n        require(weightage.length > 0, \"Weightage for coins is not sent\");\r\n        require(\r\n            weightage.length == coins.length,\r\n            \"Weightage for all coins is not present\"\r\n        );\r\n\r\n        uint256 totalWeightage = 0;\r\n        for (uint256 i = 0; i < weightage.length; i++) {\r\n            totalWeightage += weightage[i];\r\n        }\r\n\r\n        require(\r\n            totalWeightage > 0 && totalWeightage < 100,\r\n            \"Weightage is not proper\"\r\n        );\r\n\r\n        Player storage newPlayer = players[numPlayers++];\r\n        newPlayer.player = msg.sender;\r\n        newPlayer.coins = coins;\r\n        newPlayer.weightage = weightage;\r\n        // contractBalance += msg.value;\r\n        return gameId;\r\n    }\r\n\r\n    function finalize() public {\r\n        require(\r\n            msg.sender == orgAddress,\r\n            \"only the organization can end the game\"\r\n        );\r\n        orgWallet.transfer(address(this).balance);\r\n        selfdestruct(payable(address(this)));\r\n    }\r\n\r\n    function endGame() public returns (bool) {\r\n        require(\r\n            msg.sender == orgAddress,\r\n            \"only the organization can end the game\"\r\n        );\r\n        require(live == true, \"The game is not live\");\r\n        require(completed == false, \"The game has already completed\");\r\n        require(\r\n            block.timestamp - startTime > gameTime * 1,\r\n            \"Game is still in progress\"\r\n        );\r\n\r\n        live = false;\r\n        completed = true;\r\n\r\n        return true;\r\n    }\r\n\r\n    function distributePrize(address[] memory winners) public {\r\n        uint256 i;\r\n        require(winners.length == numWinners, \"Mismatch in number of winners\");\r\n        require(\r\n            msg.sender == orgAddress,\r\n            \"only the organization can end the game\"\r\n        );\r\n        require(live == false, \"The game is live\");\r\n        require(completed == true, \"The game has not been completed\");\r\n        require(\r\n            block.timestamp - startTime > gameTime * 1,\r\n            \"Game is still in progress\"\r\n        );\r\n\r\n        for (i = 0; i < winners.length; i++) {\r\n            payable(winners[i]).transfer(winnerWeights[i]);\r\n        }\r\n        payable(gameOwner).transfer(address(this).balance);\r\n    }\r\n\r\n    function getGameState()\r\n        public\r\n        view\r\n        returns (\r\n            uint256, // gameId,\r\n            address, // gameOwner,\r\n            uint256, // gamePool,\r\n            uint256, // numPlayers,\r\n            uint256, // numCoins,\r\n            uint256, // contractBalance,\r\n            //gameTime - should be in seconds\r\n            uint256, // gameTime,\r\n            uint256, // numWinners,\r\n            uint256, // playerContribution\r\n            uint256, //account balance\r\n            uint256, //startTime\r\n            uint256 //ends in\r\n        )\r\n    {\r\n        return (\r\n            gameId,\r\n            gameOwner,\r\n            gamePool,\r\n            numPlayers,\r\n            numCoins,\r\n            address(this).balance,\r\n            gameTime,\r\n            numWinners,\r\n            playerContribution,\r\n            address(this).balance,\r\n            startTime,\r\n            gameTime * 1 - (block.timestamp - startTime)\r\n        );\r\n    }\r\n}\r\n",
  "sourcePath": "D:/projects/coinFantasy/CoinFantasy/contracts/CoinGame.sol",
  "compiler": {
    "name": "solc",
    "version": "0.8.0+commit.c7dfd78e.Emscripten.clang"
  },
  "schemaVersion": "3.3.4",
  "updatedAt": "2021-04-21T00:46:39.805Z",
  "networkType": "ethereum",
  "devdoc": {
    "kind": "dev",
    "methods": {},
    "version": 1
  },
  "userdoc": {
    "kind": "user",
    "methods": {},
    "version": 1
  }
}