{
  "contractName": "Game",
  "abi": [
    {
      "inputs": [
        {
          "internalType": "uint256",
          "name": "_gameId",
          "type": "uint256"
        },
        {
          "internalType": "uint256",
          "name": "_numCoins",
          "type": "uint256"
        },
        {
          "internalType": "uint256",
          "name": "_gameTime",
          "type": "uint256"
        },
        {
          "internalType": "uint256",
          "name": "_numWinners",
          "type": "uint256"
        },
        {
          "internalType": "uint256[]",
          "name": "_winnerWeights",
          "type": "uint256[]"
        },
        {
          "internalType": "uint256",
          "name": "_gamePool",
          "type": "uint256"
        },
        {
          "internalType": "uint256",
          "name": "_lockIn",
          "type": "uint256"
        },
        {
          "internalType": "uint256",
          "name": "_playerContribution",
          "type": "uint256"
        }
      ],
      "stateMutability": "payable",
      "type": "constructor",
      "payable": true
    },
    {
      "inputs": [],
      "name": "startGame",
      "outputs": [],
      "stateMutability": "nonpayable",
      "type": "function"
    },
    {
      "inputs": [
        {
          "internalType": "uint256[]",
          "name": "coins",
          "type": "uint256[]"
        },
        {
          "internalType": "uint256[]",
          "name": "weightage",
          "type": "uint256[]"
        }
      ],
      "name": "joinGame",
      "outputs": [
        {
          "internalType": "uint256",
          "name": "_gameId",
          "type": "uint256"
        }
      ],
      "stateMutability": "payable",
      "type": "function",
      "payable": true
    },
    {
      "inputs": [],
      "name": "finalize",
      "outputs": [],
      "stateMutability": "nonpayable",
      "type": "function"
    },
    {
      "inputs": [],
      "name": "gameEnded",
      "outputs": [
        {
          "internalType": "bool",
          "name": "",
          "type": "bool"
        }
      ],
      "stateMutability": "nonpayable",
      "type": "function"
    },
    {
      "inputs": [
        {
          "internalType": "address payable[]",
          "name": "winners",
          "type": "address[]"
        }
      ],
      "name": "distributePrize",
      "outputs": [],
      "stateMutability": "nonpayable",
      "type": "function"
    },
    {
      "inputs": [],
      "name": "getGameState",
      "outputs": [
        {
          "internalType": "uint256",
          "name": "",
          "type": "uint256"
        },
        {
          "internalType": "address",
          "name": "",
          "type": "address"
        },
        {
          "internalType": "uint256",
          "name": "",
          "type": "uint256"
        },
        {
          "internalType": "uint256",
          "name": "",
          "type": "uint256"
        },
        {
          "internalType": "uint256",
          "name": "",
          "type": "uint256"
        },
        {
          "internalType": "uint256",
          "name": "",
          "type": "uint256"
        },
        {
          "internalType": "uint256",
          "name": "",
          "type": "uint256"
        },
        {
          "internalType": "uint256",
          "name": "",
          "type": "uint256"
        },
        {
          "internalType": "uint256",
          "name": "",
          "type": "uint256"
        },
        {
          "internalType": "uint256",
          "name": "",
          "type": "uint256"
        }
      ],
      "stateMutability": "view",
      "type": "function",
      "constant": true
    }
  ],
  "bytecode": "0x608060405273604bcd042d2d5b355ece14b6ac3224d23f29a51c600a60026101000a81548173ffffffffffffffffffffffffffffffffffffffff021916908373ffffffffffffffffffffffffffffffffffffffff160217905550600a60029054906101000a900473ffffffffffffffffffffffffffffffffffffffff16600b60006101000a81548173ffffffffffffffffffffffffffffffffffffffff021916908373ffffffffffffffffffffffffffffffffffffffff16021790555060405162001eeb38038062001eeb8339818101604052810190620000e1919062000397565b60018383620000f19190620005fb565b620000fd9190620005fb565b3460646200010c9190620005fb565b101562000150576040517f08c379a0000000000000000000000000000000000000000000000000000000008152600401620001479062000565565b60405180910390fd5b8351851462000196576040517f08c379a00000000000000000000000000000000000000000000000000000000081526004016200018d9062000543565b60405180910390fd5b8360099080519060200190620001ae9291906200026d565b508760008190555033600160006101000a81548173ffffffffffffffffffffffffffffffffffffffff021916908373ffffffffffffffffffffffffffffffffffffffff16021790555060006003819055508660048190555034600581905550856006819055508460078190555082600281905550806008819055506000600a60006101000a81548160ff0219169083151502179055506000600a60016101000a81548160ff0219169083151502179055505050505050505050620006de565b828054828255906000526020600020908101928215620002ac579160200282015b82811115620002ab5782518255916020019190600101906200028e565b5b509050620002bb9190620002bf565b5090565b5b80821115620002da576000816000905550600101620002c0565b5090565b6000620002f5620002ef84620005bb565b62000587565b905080838252602082019050828560208602820111156200031557600080fd5b60005b858110156200034957816200032e888262000380565b84526020840193506020830192505060018101905062000318565b5050509392505050565b600082601f8301126200036557600080fd5b815162000377848260208601620002de565b91505092915050565b6000815190506200039181620006c4565b92915050565b600080600080600080600080610100898b031215620003b557600080fd5b6000620003c58b828c0162000380565b9850506020620003d88b828c0162000380565b9750506040620003eb8b828c0162000380565b9650506060620003fe8b828c0162000380565b955050608089015167ffffffffffffffff8111156200041c57600080fd5b6200042a8b828c0162000353565b94505060a06200043d8b828c0162000380565b93505060c0620004508b828c0162000380565b92505060e0620004638b828c0162000380565b9150509295985092959890939650565b600062000482603d83620005ea565b91507f4e756d626572206f662077696e6e65727320646f65736e2774206d617463682060008301527f776974682074686520776569676874616765206f662077696e6e6572730000006020830152604082019050919050565b6000620004ea602e83620005ea565b91507f43726561746f72206e6565647320746f206c6f636b496e2031302520746f206360008301527f7265617465207468652067616d650000000000000000000000000000000000006020830152604082019050919050565b600060208201905081810360008301526200055e8162000473565b9050919050565b600060208201905081810360008301526200058081620004db565b9050919050565b6000604051905081810181811067ffffffffffffffff82111715620005b157620005b062000695565b5b8060405250919050565b600067ffffffffffffffff821115620005d957620005d862000695565b5b602082029050602081019050919050565b600082825260208201905092915050565b600062000608826200065c565b915062000615836200065c565b9250817fffffffffffffffffffffffffffffffffffffffffffffffffffffffffffffffff048311821515161562000651576200065062000666565b5b828202905092915050565b6000819050919050565b7f4e487b7100000000000000000000000000000000000000000000000000000000600052601160045260246000fd5b7f4e487b7100000000000000000000000000000000000000000000000000000000600052604160045260246000fd5b620006cf816200065c565b8114620006db57600080fd5b50565b6117fd80620006ee6000396000f3fe6080604052600436106100555760003560e01c80632f6fe3961461005a5780634bb278f314610085578063b7d0628b1461009c578063d65ab5f2146100d0578063f1d5f911146100e7578063f4aaf6f214610110575b600080fd5b34801561006657600080fd5b5061006f610140565b60405161007c91906112b6565b60405180910390f35b34801561009157600080fd5b5061009a6102ff565b005b3480156100a857600080fd5b506100b1610318565b6040516100c79a9998979695949392919061150c565b60405180910390f35b3480156100dc57600080fd5b506100e5610383565b005b3480156100f357600080fd5b5061010e60048036038101906101099190610cde565b610474565b005b61012a60048036038101906101259190610d1f565b610793565b60405161013791906114f1565b60405180910390f35b6000600a60029054906101000a900473ffffffffffffffffffffffffffffffffffffffff1673ffffffffffffffffffffffffffffffffffffffff163373ffffffffffffffffffffffffffffffffffffffff16146101d2576040517f08c379a00000000000000000000000000000000000000000000000000000000081526004016101c9906112d1565b60405180910390fd5b60011515600a60009054906101000a900460ff16151514610228576040517f08c379a000000000000000000000000000000000000000000000000000000000815260040161021f90611411565b60405180910390fd5b60001515600a60019054906101000a900460ff1615151461027e576040517f08c379a000000000000000000000000000000000000000000000000000000000815260040161027590611451565b60405180910390fd5b60065442116102c2576040517f08c379a00000000000000000000000000000000000000000000000000000000081526004016102b990611391565b60405180910390fd5b6000600a60006101000a81548160ff0219169083151502179055506001600a60016101000a81548160ff0219169083151502179055506001905090565b3073ffffffffffffffffffffffffffffffffffffffff16ff5b600080600080600080600080600080600054600160009054906101000a900473ffffffffffffffffffffffffffffffffffffffff1660025460035460045460055460065460075460085447995099509950995099509950995099509950995090919293949596979899565b60038054146103c7576040517f08c379a00000000000000000000000000000000000000000000000000000000081526004016103be90611311565b60405180910390fd5b600a60029054906101000a900473ffffffffffffffffffffffffffffffffffffffff1673ffffffffffffffffffffffffffffffffffffffff163373ffffffffffffffffffffffffffffffffffffffff1614610457576040517f08c379a000000000000000000000000000000000000000000000000000000000815260040161044e90611371565b60405180910390fd5b6001600a60006101000a81548160ff021916908315150217905550565b60006007548251146104bb576040517f08c379a00000000000000000000000000000000000000000000000000000000081526004016104b290611471565b60405180910390fd5b600a60029054906101000a900473ffffffffffffffffffffffffffffffffffffffff1673ffffffffffffffffffffffffffffffffffffffff163373ffffffffffffffffffffffffffffffffffffffff161461054b576040517f08c379a0000000000000000000000000000000000000000000000000000000008152600401610542906112d1565b60405180910390fd5b60001515600a60009054906101000a900460ff161515146105a1576040517f08c379a000000000000000000000000000000000000000000000000000000000815260040161059890611351565b60405180910390fd5b60011515600a60019054906101000a900460ff161515146105f7576040517f08c379a00000000000000000000000000000000000000000000000000000000081526004016105ee90611491565b60405180910390fd5b600654421161063b576040517f08c379a000000000000000000000000000000000000000000000000000000000815260040161063290611391565b60405180910390fd5b600190505b8151811161072657818181518110610681577f4e487b7100000000000000000000000000000000000000000000000000000000600052603260045260246000fd5b602002602001015173ffffffffffffffffffffffffffffffffffffffff166108fc600983815481106106dc577f4e487b7100000000000000000000000000000000000000000000000000000000600052603260045260246000fd5b90600052602060002001549081150290604051600060405180830381858888f19350505050158015610712573d6000803e3d6000fd5b50808061071e906116f2565b915050610640565b600160009054906101000a900473ffffffffffffffffffffffffffffffffffffffff1673ffffffffffffffffffffffffffffffffffffffff166108fc479081150290604051600060405180830381858888f1935050505015801561078e573d6000803e3d6000fd5b505050565b600060038054106107d9576040517f08c379a00000000000000000000000000000000000000000000000000000000081526004016107d0906114b1565b60405180910390fd5b60001515600a60009054906101000a900460ff1615151461082f576040517f08c379a000000000000000000000000000000000000000000000000000000000815260040161082690611331565b60405180910390fd5b60001515600a60019054906101000a900460ff16151514610885576040517f08c379a000000000000000000000000000000000000000000000000000000000815260040161087c906113b1565b60405180910390fd5b6008543410156108ca576040517f08c379a00000000000000000000000000000000000000000000000000000000081526004016108c1906113f1565b60405180910390fd5b60045483511015610910576040517f08c379a000000000000000000000000000000000000000000000000000000000815260040161090790611431565b60405180910390fd5b6000825111610954576040517f08c379a000000000000000000000000000000000000000000000000000000000815260040161094b906112f1565b60405180910390fd5b8251825114610998576040517f08c379a000000000000000000000000000000000000000000000000000000000815260040161098f906113d1565b60405180910390fd5b6000805b8351811015610a06578381815181106109de577f4e487b7100000000000000000000000000000000000000000000000000000000600052603260045260246000fd5b6020026020010151826109f19190611642565b915080806109fe906116f2565b91505061099c565b50600081118015610a175750606481105b610a56576040517f08c379a0000000000000000000000000000000000000000000000000000000008152600401610a4d906114d1565b60405180910390fd5b6000600e600060036000815480929190610a6f906116f2565b9190505581526020019081526020016000209050338160000160006101000a81548173ffffffffffffffffffffffffffffffffffffffff021916908373ffffffffffffffffffffffffffffffffffffffff16021790555084816001019080519060200190610ade929190610b1e565b5083816002019080519060200190610af7929190610b1e565b503460056000828254610b0a9190611642565b925050819055506000549250505092915050565b828054828255906000526020600020908101928215610b5a579160200282015b82811115610b59578251825591602001919060010190610b3e565b5b509050610b679190610b6b565b5090565b5b80821115610b84576000816000905550600101610b6c565b5090565b6000610b9b610b96846115d9565b6115a8565b90508083825260208201905082856020860282011115610bba57600080fd5b60005b85811015610bea5781610bd08882610c60565b845260208401935060208301925050600181019050610bbd565b5050509392505050565b6000610c07610c0284611605565b6115a8565b90508083825260208201905082856020860282011115610c2657600080fd5b60005b85811015610c565781610c3c8882610cc9565b845260208401935060208301925050600181019050610c29565b5050509392505050565b600081359050610c6f81611799565b92915050565b600082601f830112610c8657600080fd5b8135610c96848260208601610b88565b91505092915050565b600082601f830112610cb057600080fd5b8135610cc0848260208601610bf4565b91505092915050565b600081359050610cd8816117b0565b92915050565b600060208284031215610cf057600080fd5b600082013567ffffffffffffffff811115610d0a57600080fd5b610d1684828501610c75565b91505092915050565b60008060408385031215610d3257600080fd5b600083013567ffffffffffffffff811115610d4c57600080fd5b610d5885828601610c9f565b925050602083013567ffffffffffffffff811115610d7557600080fd5b610d8185828601610c9f565b9150509250929050565b610d9481611698565b82525050565b610da3816116bc565b82525050565b6000610db6602683611631565b91507f6f6e6c7920746865206f7267616e697a6174696f6e2063616e20656e6420746860008301527f652067616d6500000000000000000000000000000000000000000000000000006020830152604082019050919050565b6000610e1c601f83611631565b91507f57656967687461676520666f7220636f696e73206973206e6f742073656e74006000830152602082019050919050565b6000610e5c601e83611631565b91507f4d69736d6174636820696e206e756d626572206f6620706c61796572732e00006000830152602082019050919050565b6000610e9c601483611631565b91507f5468652067616d652068617320737461727465640000000000000000000000006000830152602082019050919050565b6000610edc601083611631565b91507f5468652067616d65206973206c697665000000000000000000000000000000006000830152602082019050919050565b6000610f1c602883611631565b91507f6f6e6c7920746865206f7267616e697a6174696f6e2063616e2073746172742060008301527f7468652067616d650000000000000000000000000000000000000000000000006020830152604082019050919050565b6000610f82601983611631565b91507f47616d65206973207374696c6c20696e2070726f6772657373000000000000006000830152602082019050919050565b6000610fc2601283611631565b91507f5468652067616d652068617320656e64656400000000000000000000000000006000830152602082019050919050565b6000611002602683611631565b91507f57656967687461676520666f7220616c6c20636f696e73206973206e6f74207060008301527f726573656e7400000000000000000000000000000000000000000000000000006020830152604082019050919050565b6000611068603883611631565b91507f506c6179657220686173206e6f7420636f6e747269627574656420746865206560008301527f7861637420616d6f756e7420666f72207468652067616d6500000000000000006020830152604082019050919050565b60006110ce601483611631565b91507f5468652067616d65206973206e6f74206c6976650000000000000000000000006000830152602082019050919050565b600061110e602383611631565b91507f596f75206861766520746f2063686f6f7365206174206c65617374203720636f60008301527f696e7300000000000000000000000000000000000000000000000000000000006020830152604082019050919050565b6000611174601e83611631565b91507f5468652067616d652068617320616c726561647920636f6d706c6574656400006000830152602082019050919050565b60006111b4601d83611631565b91507f4d69736d6174636820696e206e756d626572206f662077696e6e6572730000006000830152602082019050919050565b60006111f4601f83611631565b91507f5468652067616d6520686173206e6f74206265656e20636f6d706c65746564006000830152602082019050919050565b6000611234601983611631565b91507f54686520706c6179657220636f756e74207265616368656421000000000000006000830152602082019050919050565b6000611274601783611631565b91507f576569676874616765206973206e6f742070726f7065720000000000000000006000830152602082019050919050565b6112b0816116e8565b82525050565b60006020820190506112cb6000830184610d9a565b92915050565b600060208201905081810360008301526112ea81610da9565b9050919050565b6000602082019050818103600083015261130a81610e0f565b9050919050565b6000602082019050818103600083015261132a81610e4f565b9050919050565b6000602082019050818103600083015261134a81610e8f565b9050919050565b6000602082019050818103600083015261136a81610ecf565b9050919050565b6000602082019050818103600083015261138a81610f0f565b9050919050565b600060208201905081810360008301526113aa81610f75565b9050919050565b600060208201905081810360008301526113ca81610fb5565b9050919050565b600060208201905081810360008301526113ea81610ff5565b9050919050565b6000602082019050818103600083015261140a8161105b565b9050919050565b6000602082019050818103600083015261142a816110c1565b9050919050565b6000602082019050818103600083015261144a81611101565b9050919050565b6000602082019050818103600083015261146a81611167565b9050919050565b6000602082019050818103600083015261148a816111a7565b9050919050565b600060208201905081810360008301526114aa816111e7565b9050919050565b600060208201905081810360008301526114ca81611227565b9050919050565b600060208201905081810360008301526114ea81611267565b9050919050565b600060208201905061150660008301846112a7565b92915050565b600061014082019050611522600083018d6112a7565b61152f602083018c610d8b565b61153c604083018b6112a7565b611549606083018a6112a7565b61155660808301896112a7565b61156360a08301886112a7565b61157060c08301876112a7565b61157d60e08301866112a7565b61158b6101008301856112a7565b6115996101208301846112a7565b9b9a5050505050505050505050565b6000604051905081810181811067ffffffffffffffff821117156115cf576115ce61176a565b5b8060405250919050565b600067ffffffffffffffff8211156115f4576115f361176a565b5b602082029050602081019050919050565b600067ffffffffffffffff8211156116205761161f61176a565b5b602082029050602081019050919050565b600082825260208201905092915050565b600061164d826116e8565b9150611658836116e8565b9250827fffffffffffffffffffffffffffffffffffffffffffffffffffffffffffffffff0382111561168d5761168c61173b565b5b828201905092915050565b60006116a3826116c8565b9050919050565b60006116b5826116c8565b9050919050565b60008115159050919050565b600073ffffffffffffffffffffffffffffffffffffffff82169050919050565b6000819050919050565b60006116fd826116e8565b91507fffffffffffffffffffffffffffffffffffffffffffffffffffffffffffffffff8214156117305761172f61173b565b5b600182019050919050565b7f4e487b7100000000000000000000000000000000000000000000000000000000600052601160045260246000fd5b7f4e487b7100000000000000000000000000000000000000000000000000000000600052604160045260246000fd5b6117a2816116aa565b81146117ad57600080fd5b50565b6117b9816116e8565b81146117c457600080fd5b5056fea2646970667358221220b331300f88f10d2da1e8d197af999fb585db9e3b61bf264bdde4e21f0c8a862664736f6c63430008000033",
  "immutableReferences": {},
  "source": "// Coin Fantasy Game\r\n// SPDX-License-Identifier: CoinFantasy Game\r\n\r\npragma solidity ^0.8.0;\r\n\r\n// import \"@chainlink/contracts/src/v0.6/interfaces/AggregatorV3Interface.sol\";\r\n// import \"https://github.com/smartcontractkit/chainlink/blob/master/evm-contracts/src/v0.6/interfaces/AggregatorV3Interface.sol\";\r\n\r\ncontract Game {\r\n    uint256 gameId;\r\n    address gameOwner;\r\n    uint256 gamePool;\r\n    uint256 numPlayers;\r\n    uint256 numCoins;\r\n    uint256 contractBalance;\r\n    //gameTime - should be in seconds\r\n    uint256 gameTime;\r\n    uint256 numWinners;\r\n    uint256 playerContribution;\r\n    uint256[] winnerWeights;\r\n    bool live;\r\n    bool completed;\r\n    address orgAddress = 0x604BCD042D2d5B355ecE14B6aC3224d23F29a51c;\r\n    address payable orgWallet = payable(address(orgAddress));\r\n    // AggregatorV3Interface[] internal priceFeed;\r\n    int256[] startPrice;\r\n    int256[] endPrice;\r\n\r\n    struct Player {\r\n        address player;\r\n        uint256[] coins;\r\n        uint256[] weightage;\r\n    }\r\n\r\n    mapping(uint256 => Player) players;\r\n\r\n    constructor(\r\n        uint256 _gameId,\r\n        uint256 _numCoins,\r\n        uint256 _gameTime,\r\n        uint256 _numWinners,\r\n        uint256[] memory _winnerWeights,\r\n        uint256 _gamePool,\r\n        uint256 _lockIn,\r\n        uint256 _playerContribution\r\n    ) payable {\r\n        /*Creator needs to mandatory lock in 10% of the gamePool money\r\n         * Lock In amount needs to be sent from the front end because we cannot calculate\r\n         * floating point (10%) in Solidity.\r\n         * Same for playerContribution - it has to come from the front end since\r\n         * totalGamePool/numOfPlayers cannot be done in Solidity\r\n         */\r\n\r\n        // priceFeed.push(AggregatorV3Interface(0x8A753747A1Fa494EC906cE90E9f37563A8AF630e));//ETH\r\n        // priceFeed.push(AggregatorV3Interface(0xd8bD0a1cB028a31AA859A21A3758685a95dE4623));//LINK\r\n        // priceFeed.push(AggregatorV3Interface(0xECe365B379E1dD183B20fc5f022230C044d51404));//BTC\r\n        require(\r\n            100 * msg.value >= (_lockIn * _gamePool * 1 wei),\r\n            \"Creator needs to lockIn 10% to create the game\"\r\n        );\r\n\r\n        require(\r\n            _numWinners == _winnerWeights.length,\r\n            \"Number of winners doesn't match with the weightage of winners\"\r\n        );\r\n\r\n        winnerWeights = _winnerWeights;\r\n\r\n        //Generates a unique GameID for every game\r\n        gameId = _gameId;\r\n        gameOwner = msg.sender;\r\n        numPlayers = 0;\r\n        numCoins = _numCoins;\r\n        contractBalance = msg.value;\r\n        gameTime = _gameTime;\r\n        numWinners = _numWinners;\r\n        gamePool = _gamePool;\r\n        playerContribution = _playerContribution;\r\n        live = false;\r\n        completed = false;\r\n    }\r\n\r\n    //assuming the contract address is availably publically,\r\n    //steps are taken to restrict the control function\r\n\r\n    function startGame() public {\r\n        require(numPlayers == 3, \"Mismatch in number of players.\");\r\n        require(\r\n            msg.sender == orgAddress,\r\n            \"only the organization can start the game\"\r\n        );\r\n        live = true;\r\n\r\n        // uint i;\r\n        // for(i=0; i < numCoins; i++){\r\n        //     (\r\n        //         uint80 roundID,\r\n        //         int price,\r\n        //         uint startedAt,\r\n        //         uint timeStamp,\r\n        //         uint80 answeredInRound\r\n        //     ) = priceFeed[i].latestRoundData();\r\n        //     startPrice.push(price);\r\n        // }\r\n    }\r\n\r\n    function joinGame(uint256[] memory coins, uint256[] memory weightage)\r\n        public\r\n        payable\r\n        returns (uint256 _gameId)\r\n    {\r\n        require(numPlayers < 3, \"The player count reached!\");\r\n        require(live == false, \"The game has started\");\r\n        require(completed == false, \"The game has ended\");\r\n        require(\r\n            msg.value >= playerContribution,\r\n            \"Player has not contributed the exact amount for the game\"\r\n        );\r\n        require(\r\n            coins.length >= numCoins,\r\n            \"You have to choose at least 7 coins\"\r\n        );\r\n        require(weightage.length > 0, \"Weightage for coins is not sent\");\r\n        require(\r\n            weightage.length == coins.length,\r\n            \"Weightage for all coins is not present\"\r\n        );\r\n\r\n        uint256 totalWeightage = 0;\r\n        for (uint256 i = 0; i < weightage.length; i++) {\r\n            totalWeightage += weightage[i];\r\n        }\r\n\r\n        require(\r\n            totalWeightage > 0 && totalWeightage < 100,\r\n            \"Weightage is not proper\"\r\n        );\r\n\r\n        Player storage newPlayer = players[numPlayers++];\r\n        newPlayer.player = msg.sender;\r\n        newPlayer.coins = coins;\r\n        newPlayer.weightage = weightage;\r\n        contractBalance += msg.value;\r\n        return gameId;\r\n    }\r\n\r\n    //Selfdestruct the contract and send the remaining funds to the contract address\r\n\r\n    function finalize() public {\r\n        selfdestruct(payable(address(this)));\r\n    }\r\n\r\n    function gameEnded() public returns (bool) {\r\n        require(\r\n            msg.sender == orgAddress,\r\n            \"only the organization can end the game\"\r\n        );\r\n        require(live == true, \"The game is not live\");\r\n        require(completed == false, \"The game has already completed\");\r\n        require(block.timestamp > gameTime, \"Game is still in progress\");\r\n\r\n        live = false;\r\n        completed = true;\r\n        // uint i;\r\n        // for(i=0; i < numCoins; i++){\r\n        //     (\r\n        //         uint80 roundID,\r\n        //         int price,\r\n        //         uint startedAt,\r\n        //         uint timeStamp,\r\n        //         uint80 answeredInRound\r\n        //     ) = priceFeed[i].latestRoundData();\r\n        //     endPrice.push(price);\r\n        // }\r\n\r\n        //Do the Oracle thing and calculate the winner/winners\r\n\r\n        /*\r\n\r\n        //for 5 coins\r\n        Based on the logic we decide, distribute the prize within numWinners\r\n        */\r\n        return true;\r\n    }\r\n\r\n    // function sendData() public view returns(int[] memory, int[] memory){\r\n    //     return (startPrice, endPrice);\r\n    // }\r\n\r\n    //Change it to internal later, keep public only for testing purposes\r\n\r\n    //this is to be set as private function\r\n    function distributePrize(address payable[] memory winners) public {\r\n        uint256 i;\r\n        require(winners.length == numWinners, \"Mismatch in number of winners\");\r\n        require(\r\n            msg.sender == orgAddress,\r\n            \"only the organization can end the game\"\r\n        );\r\n        require(live == false, \"The game is live\");\r\n        require(completed == true, \"The game has not been completed\");\r\n        require(block.timestamp > gameTime, \"Game is still in progress\");\r\n\r\n        for (i = 1; i <= winners.length; i++) {\r\n            winners[i].transfer(winnerWeights[i]);\r\n        }\r\n        payable(gameOwner).transfer(address(this).balance);\r\n    }\r\n\r\n    function getGameState()\r\n        public\r\n        view\r\n        returns (\r\n            uint256, // gameId,\r\n            address, // gameOwner,\r\n            uint256, // gamePool,\r\n            uint256, // numPlayers,\r\n            uint256, // numCoins,\r\n            uint256, // contractBalance,\r\n            //gameTime - should be in seconds\r\n            uint256, // gameTime,\r\n            uint256, // numWinners,\r\n            uint256, // playerContribution\r\n            uint256 //account balance\r\n        )\r\n    {\r\n        return (\r\n            gameId,\r\n            gameOwner,\r\n            gamePool,\r\n            numPlayers,\r\n            numCoins,\r\n            contractBalance,\r\n            gameTime,\r\n            numWinners,\r\n            playerContribution,\r\n            address(this).balance\r\n        );\r\n    }\r\n}\r\n",
  "sourcePath": "D:/blockchain/Internship/CoinFantasy/contracts/CoinGame.sol",
  "compiler": {
    "name": "solc",
    "version": "0.8.0+commit.c7dfd78e.Emscripten.clang"
  },
  "schemaVersion": "3.3.4",
  "updatedAt": "2021-04-14T09:20:48.391Z",
  "networkType": "ethereum",
  "devdoc": {
    "kind": "dev",
    "methods": {},
    "version": 1
  },
  "userdoc": {
    "kind": "user",
    "methods": {},
    "version": 1
  }
}