{
  "contractName": "Game",
  "abi": [
    {
      "inputs": [
        {
          "internalType": "uint256",
          "name": "_gameId",
          "type": "uint256"
        },
        {
          "internalType": "uint256",
          "name": "_numCoins",
          "type": "uint256"
        },
        {
          "internalType": "uint256",
          "name": "_gameTime",
          "type": "uint256"
        },
        {
          "internalType": "uint256",
          "name": "_numWinners",
          "type": "uint256"
        },
        {
          "internalType": "uint256",
          "name": "_gamePool",
          "type": "uint256"
        },
        {
          "internalType": "uint256",
          "name": "_lockIn",
          "type": "uint256"
        },
        {
          "internalType": "uint256",
          "name": "_playerContribution",
          "type": "uint256"
        }
      ],
      "stateMutability": "payable",
      "type": "constructor"
    },
    {
      "inputs": [
        {
          "internalType": "uint256[]",
          "name": "coins",
          "type": "uint256[]"
        },
        {
          "internalType": "uint256[]",
          "name": "weightage",
          "type": "uint256[]"
        }
      ],
      "name": "joinGame",
      "outputs": [
        {
          "internalType": "uint256",
          "name": "_gameId",
          "type": "uint256"
        }
      ],
      "stateMutability": "payable",
      "type": "function"
    },
    {
      "inputs": [],
      "name": "finalize",
      "outputs": [],
      "stateMutability": "nonpayable",
      "type": "function"
    },
    {
      "inputs": [],
      "name": "gameEnded",
      "outputs": [
        {
          "internalType": "bool",
          "name": "",
          "type": "bool"
        }
      ],
      "stateMutability": "view",
      "type": "function"
    },
    {
      "inputs": [
        {
          "internalType": "address payable",
          "name": "winner",
          "type": "address"
        },
        {
          "internalType": "uint256",
          "name": "amount",
          "type": "uint256"
        }
      ],
      "name": "distributePrize",
      "outputs": [],
      "stateMutability": "nonpayable",
      "type": "function"
    }
  ],
  "bytecode": "0x608060405260405162000e3d38038062000e3d83398181016040528101906200002991906200011a565b60018262000038919062000262565b34146200007c576040517f08c379a000000000000000000000000000000000000000000000000000000000815260040162000073906200022f565b60405180910390fd5b8660008190555033600160006101000a81548173ffffffffffffffffffffffffffffffffffffffff021916908373ffffffffffffffffffffffffffffffffffffffff16021790555060006003819055508560048190555034600581905550846006819055508360078190555082600281905550806008819055505050505050505062000316565b6000815190506200011481620002fc565b92915050565b600080600080600080600060e0888a0312156200013657600080fd5b6000620001468a828b0162000103565b9750506020620001598a828b0162000103565b96505060406200016c8a828b0162000103565b95505060606200017f8a828b0162000103565b9450506080620001928a828b0162000103565b93505060a0620001a58a828b0162000103565b92505060c0620001b88a828b0162000103565b91505092959891949750929550565b6000620001d6602e8362000251565b91507f43726561746f72206e6565647320746f206c6f636b496e2031302520746f206360008301527f7265617465207468652067616d650000000000000000000000000000000000006020830152604082019050919050565b600060208201905081810360008301526200024a81620001c7565b9050919050565b600082825260208201905092915050565b60006200026f82620002c3565b91506200027c83620002c3565b9250817fffffffffffffffffffffffffffffffffffffffffffffffffffffffffffffffff0483118215151615620002b857620002b7620002cd565b5b828202905092915050565b6000819050919050565b7f4e487b7100000000000000000000000000000000000000000000000000000000600052601160045260246000fd5b6200030781620002c3565b81146200031357600080fd5b50565b610b1780620003266000396000f3fe60806040526004361061003f5760003560e01c80632f6fe396146100445780634bb278f31461006f578063d5ea209a14610086578063f4aaf6f2146100af575b600080fd5b34801561005057600080fd5b506100596100df565b604051610066919061080a565b60405180910390f35b34801561007b57600080fd5b5061008461012c565b005b34801561009257600080fd5b506100ad60048036038101906100a89190610552565b610145565b005b6100c960048036038101906100c4919061058e565b610190565b6040516100d691906108e5565b60405180910390f35b60006006544211610125576040517f08c379a000000000000000000000000000000000000000000000000000000000815260040161011c90610845565b60405180910390fd5b6001905090565b3073ffffffffffffffffffffffffffffffffffffffff16ff5b8173ffffffffffffffffffffffffffffffffffffffff166108fc829081150290604051600060405180830381858888f1935050505015801561018b573d6000803e3d6000fd5b505050565b600060085434146101d6576040517f08c379a00000000000000000000000000000000000000000000000000000000081526004016101cd90610885565b60405180910390fd5b600083511161021a576040517f08c379a0000000000000000000000000000000000000000000000000000000008152600401610211906108a5565b60405180910390fd5b600082511161025e576040517f08c379a000000000000000000000000000000000000000000000000000000000815260040161025590610825565b60405180910390fd5b82518251146102a2576040517f08c379a000000000000000000000000000000000000000000000000000000000815260040161029990610865565b60405180910390fd5b6000805b8351811015610310578381815181106102e8577f4e487b7100000000000000000000000000000000000000000000000000000000600052603260045260246000fd5b6020026020010151826102fb919061096e565b9150808061030890610a0c565b9150506102a6565b506000811180156103215750606481105b610360576040517f08c379a0000000000000000000000000000000000000000000000000000000008152600401610357906108c5565b60405180910390fd5b6000600960006003600081548092919061037990610a0c565b9190505581526020019081526020016000209050338160000160006101000a81548173ffffffffffffffffffffffffffffffffffffffff021916908373ffffffffffffffffffffffffffffffffffffffff160217905550848160010190805190602001906103e8929190610428565b5083816002019080519060200190610401929190610428565b503460056000828254610414919061096e565b925050819055506000549250505092915050565b828054828255906000526020600020908101928215610464579160200282015b82811115610463578251825591602001919060010190610448565b5b5090506104719190610475565b5090565b5b8082111561048e576000816000905550600101610476565b5090565b60006104a56104a084610931565b610900565b905080838252602082019050828560208602820111156104c457600080fd5b60005b858110156104f457816104da888261053d565b8452602084019350602083019250506001810190506104c7565b5050509392505050565b60008135905061050d81610ab3565b92915050565b600082601f83011261052457600080fd5b8135610534848260208601610492565b91505092915050565b60008135905061054c81610aca565b92915050565b6000806040838503121561056557600080fd5b6000610573858286016104fe565b92505060206105848582860161053d565b9150509250929050565b600080604083850312156105a157600080fd5b600083013567ffffffffffffffff8111156105bb57600080fd5b6105c785828601610513565b925050602083013567ffffffffffffffff8111156105e457600080fd5b6105f085828601610513565b9150509250929050565b610603816109d6565b82525050565b6000610616601f8361095d565b91507f57656967687461676520666f7220636f696e73206973206e6f742073656e74006000830152602082019050919050565b600061065660198361095d565b91507f47616d65206973207374696c6c20696e2070726f6772657373000000000000006000830152602082019050919050565b600061069660268361095d565b91507f57656967687461676520666f7220616c6c20636f696e73206973206e6f74207060008301527f726573656e7400000000000000000000000000000000000000000000000000006020830152604082019050919050565b60006106fc60388361095d565b91507f506c6179657220686173206e6f7420636f6e747269627574656420746865206560008301527f7861637420616d6f756e7420666f72207468652067616d6500000000000000006020830152604082019050919050565b600061076260238361095d565b91507f596f75206861766520746f2063686f6f7365206174206c65617374203720636f60008301527f696e7300000000000000000000000000000000000000000000000000000000006020830152604082019050919050565b60006107c860178361095d565b91507f576569676874616765206973206e6f742070726f7065720000000000000000006000830152602082019050919050565b61080481610a02565b82525050565b600060208201905061081f60008301846105fa565b92915050565b6000602082019050818103600083015261083e81610609565b9050919050565b6000602082019050818103600083015261085e81610649565b9050919050565b6000602082019050818103600083015261087e81610689565b9050919050565b6000602082019050818103600083015261089e816106ef565b9050919050565b600060208201905081810360008301526108be81610755565b9050919050565b600060208201905081810360008301526108de816107bb565b9050919050565b60006020820190506108fa60008301846107fb565b92915050565b6000604051905081810181811067ffffffffffffffff8211171561092757610926610a84565b5b8060405250919050565b600067ffffffffffffffff82111561094c5761094b610a84565b5b602082029050602081019050919050565b600082825260208201905092915050565b600061097982610a02565b915061098483610a02565b9250827fffffffffffffffffffffffffffffffffffffffffffffffffffffffffffffffff038211156109b9576109b8610a55565b5b828201905092915050565b60006109cf826109e2565b9050919050565b60008115159050919050565b600073ffffffffffffffffffffffffffffffffffffffff82169050919050565b6000819050919050565b6000610a1782610a02565b91507fffffffffffffffffffffffffffffffffffffffffffffffffffffffffffffffff821415610a4a57610a49610a55565b5b600182019050919050565b7f4e487b7100000000000000000000000000000000000000000000000000000000600052601160045260246000fd5b7f4e487b7100000000000000000000000000000000000000000000000000000000600052604160045260246000fd5b610abc816109c4565b8114610ac757600080fd5b50565b610ad381610a02565b8114610ade57600080fd5b5056fea2646970667358221220ecafb715cdbad5a75a858e6659188a1e8c4c70c2c3a3dbfa3ecd3775c88e06e964736f6c63430008000033",
  "immutableReferences": {},
  "source": "// Coin Fantasy Game\r\n// SPDX-License-Identifier: CoinFantasy Game\r\n\r\npragma solidity ^0.8.0;\r\nimport \"@chainlink/contracts/src/v0.6/interfaces/AggregatorV3Interface.sol\";\r\n\r\n\r\ncontract Game {\r\n    uint gameId;\r\n    address gameOwner;\r\n    uint gamePool;\r\n    uint numPlayers;\r\n    uint numCoins;\r\n    uint contractBalance;\r\n    //gameTime - should be in seconds\r\n    uint gameTime;\r\n    uint numWinners;\r\n    uint playerContribution;\r\n    \r\n    struct Player {\r\n\r\n        address player;\r\n        uint[] coins;\r\n        uint[] weightage;\r\n    }\r\n    \r\n    mapping(uint => Player) players;\r\n    \r\n    constructor(uint _gameId, uint _numCoins, uint _gameTime, uint _numWinners, \r\n    uint _gamePool, uint _lockIn, uint _playerContribution) payable {\r\n        \r\n        /*Creator needs to mandatory lock in 10% of the gamePool money\r\n        * Lock In amount needs to be sent from the front end because we cannot calculate\r\n        * floating point (10%) in Solidity.\r\n        * Same for playerContribution - it has to come from the front end since\r\n        * totalGamePool/numOfPlayers cannot be done in Solidity\r\n        */\r\n        \r\n        require(msg.value == (_lockIn * 1 wei), \"Creator needs to lockIn 10% to create the game\");\r\n        \r\n        //Generates a unique GameID for every game\r\n        gameId = _gameId;\r\n        gameOwner = msg.sender;\r\n        numPlayers = 0;\r\n        numCoins = _numCoins;\r\n        contractBalance = msg.value;\r\n        gameTime = _gameTime;\r\n        numWinners = _numWinners;\r\n        gamePool = _gamePool;\r\n        playerContribution = _playerContribution;\r\n        \r\n    }\r\n    \r\n    function joinGame(uint[] memory coins, uint[] memory weightage) public payable returns(uint _gameId) {\r\n        require(msg.value == playerContribution, \"Player has not contributed the exact amount for the game\");\r\n        require(coins.length > 0, \"You have to choose at least 7 coins\");\r\n        require(weightage.length > 0, \"Weightage for coins is not sent\");\r\n        require(weightage.length == coins.length, \"Weightage for all coins is not present\");\r\n        \r\n        uint totalWeightage = 0;\r\n        for(uint i = 0; i< weightage.length; i++){\r\n            totalWeightage+= weightage[i];\r\n        }\r\n        \r\n        require(totalWeightage > 0 && totalWeightage < 100, \"Weightage is not proper\");\r\n        \r\n        Player storage newPlayer = players[numPlayers++];\r\n        newPlayer.player = msg.sender;\r\n        newPlayer.coins = coins;\r\n        newPlayer.weightage = weightage;\r\n        contractBalance += msg.value;\r\n        return gameId;\r\n        \r\n    }\r\n    \r\n    //Selfdestruct the contract and send the remaining funds to the contract address\r\n\r\n    function finalize() public {\r\n        selfdestruct(payable(address(this)));\r\n    }\r\n    \r\n    function gameEnded() public view returns(bool) {\r\n        require(block.timestamp > gameTime, \"Game is still in progress\");\r\n        //Do the Oracle thing and calculate the winner/winners\r\n        /*\r\n        Based on the logic we decide, distribute the prize within numWinners\r\n        */\r\n        return true;\r\n        \r\n    }\r\n    \r\n    //Change it to internal later, keep public only for testing purposes\r\n    function distributePrize(address payable winner, uint amount) public {\r\n        winner.transfer(amount);\r\n    }\r\n    \r\n    \r\n}\r\n",
  "sourcePath": "D:/projects/coinFantasy/CoinFantasy/contracts/CoinGame.sol",
  "compiler": {
    "name": "solc",
    "version": "0.8.0+commit.c7dfd78e.Emscripten.clang"
  },
  "schemaVersion": "3.3.4",
  "updatedAt": "2021-04-02T07:25:39.284Z",
  "devdoc": {
    "kind": "dev",
    "methods": {},
    "version": 1
  },
  "userdoc": {
    "kind": "user",
    "methods": {},
    "version": 1
  }
}