{
  "contractName": "Game",
  "abi": [
    {
      "inputs": [
        {
          "internalType": "uint256",
          "name": "_gameId",
          "type": "uint256"
        },
        {
          "internalType": "uint256",
          "name": "_numCoins",
          "type": "uint256"
        },
        {
          "internalType": "uint256",
          "name": "_gameTime",
          "type": "uint256"
        },
        {
          "internalType": "uint256",
          "name": "_numWinners",
          "type": "uint256"
        },
        {
          "internalType": "uint256[]",
          "name": "_winnerWeights",
          "type": "uint256[]"
        },
        {
          "internalType": "uint256",
          "name": "_gamePool",
          "type": "uint256"
        },
        {
          "internalType": "uint256",
          "name": "_lockIn",
          "type": "uint256"
        },
        {
          "internalType": "uint256",
          "name": "_playerContribution",
          "type": "uint256"
        }
      ],
      "stateMutability": "payable",
      "type": "constructor",
      "payable": true
    },
    {
      "inputs": [],
      "name": "startGame",
      "outputs": [],
      "stateMutability": "nonpayable",
      "type": "function"
    },
    {
      "inputs": [
        {
          "internalType": "uint256[]",
          "name": "coins",
          "type": "uint256[]"
        },
        {
          "internalType": "uint256[]",
          "name": "weightage",
          "type": "uint256[]"
        }
      ],
      "name": "joinGame",
      "outputs": [
        {
          "internalType": "uint256",
          "name": "_gameId",
          "type": "uint256"
        }
      ],
      "stateMutability": "payable",
      "type": "function",
      "payable": true
    },
    {
      "inputs": [],
      "name": "finalize",
      "outputs": [],
      "stateMutability": "nonpayable",
      "type": "function"
    },
    {
      "inputs": [],
      "name": "endGame",
      "outputs": [
        {
          "internalType": "bool",
          "name": "",
          "type": "bool"
        }
      ],
      "stateMutability": "nonpayable",
      "type": "function"
    },
    {
      "inputs": [
        {
          "internalType": "address payable[]",
          "name": "winners",
          "type": "address[]"
        }
      ],
      "name": "distributePrize",
      "outputs": [],
      "stateMutability": "nonpayable",
      "type": "function"
    },
    {
      "inputs": [],
      "name": "getGameState",
      "outputs": [
        {
          "internalType": "uint256",
          "name": "",
          "type": "uint256"
        },
        {
          "internalType": "address",
          "name": "",
          "type": "address"
        },
        {
          "internalType": "uint256",
          "name": "",
          "type": "uint256"
        },
        {
          "internalType": "uint256",
          "name": "",
          "type": "uint256"
        },
        {
          "internalType": "uint256",
          "name": "",
          "type": "uint256"
        },
        {
          "internalType": "uint256",
          "name": "",
          "type": "uint256"
        },
        {
          "internalType": "uint256",
          "name": "",
          "type": "uint256"
        },
        {
          "internalType": "uint256",
          "name": "",
          "type": "uint256"
        },
        {
          "internalType": "uint256",
          "name": "",
          "type": "uint256"
        },
        {
          "internalType": "uint256",
          "name": "",
          "type": "uint256"
        },
        {
          "internalType": "uint256",
          "name": "",
          "type": "uint256"
        },
        {
          "internalType": "uint256",
          "name": "",
          "type": "uint256"
        }
      ],
      "stateMutability": "view",
      "type": "function",
      "constant": true
    }
  ],
  "bytecode": "0x6080604052730d77b3d1e78e6de6e0326e08b4b9cf1791e4e236600960026101000a81548173ffffffffffffffffffffffffffffffffffffffff021916908373ffffffffffffffffffffffffffffffffffffffff160217905550600960029054906101000a900473ffffffffffffffffffffffffffffffffffffffff16600a60006101000a81548173ffffffffffffffffffffffffffffffffffffffff021916908373ffffffffffffffffffffffffffffffffffffffff16021790555042600b5560405162001fe038038062001fe08339818101604052810190620000e5919062000394565b60018383620000f59190620005f8565b620001019190620005f8565b346064620001109190620005f8565b101562000154576040517f08c379a00000000000000000000000000000000000000000000000000000000081526004016200014b9062000562565b60405180910390fd5b835185146200019a576040517f08c379a0000000000000000000000000000000000000000000000000000000008152600401620001919062000540565b60405180910390fd5b8360089080519060200190620001b29291906200026a565b508760008190555033600160006101000a81548173ffffffffffffffffffffffffffffffffffffffff021916908373ffffffffffffffffffffffffffffffffffffffff160217905550600060038190555086600481905550856005819055508460068190555082600281905550806007819055506000600960006101000a81548160ff0219169083151502179055506000600960016101000a81548160ff0219169083151502179055505050505050505050620006db565b828054828255906000526020600020908101928215620002a9579160200282015b82811115620002a85782518255916020019190600101906200028b565b5b509050620002b89190620002bc565b5090565b5b80821115620002d7576000816000905550600101620002bd565b5090565b6000620002f2620002ec84620005b8565b62000584565b905080838252602082019050828560208602820111156200031257600080fd5b60005b858110156200034657816200032b88826200037d565b84526020840193506020830192505060018101905062000315565b5050509392505050565b600082601f8301126200036257600080fd5b815162000374848260208601620002db565b91505092915050565b6000815190506200038e81620006c1565b92915050565b600080600080600080600080610100898b031215620003b257600080fd5b6000620003c28b828c016200037d565b9850506020620003d58b828c016200037d565b9750506040620003e88b828c016200037d565b9650506060620003fb8b828c016200037d565b955050608089015167ffffffffffffffff8111156200041957600080fd5b620004278b828c0162000350565b94505060a06200043a8b828c016200037d565b93505060c06200044d8b828c016200037d565b92505060e0620004608b828c016200037d565b9150509295985092959890939650565b60006200047f603d83620005e7565b91507f4e756d626572206f662077696e6e65727320646f65736e2774206d617463682060008301527f776974682074686520776569676874616765206f662077696e6e6572730000006020830152604082019050919050565b6000620004e7602e83620005e7565b91507f43726561746f72206e6565647320746f206c6f636b496e2031302520746f206360008301527f7265617465207468652067616d650000000000000000000000000000000000006020830152604082019050919050565b600060208201905081810360008301526200055b8162000470565b9050919050565b600060208201905081810360008301526200057d81620004d8565b9050919050565b6000604051905081810181811067ffffffffffffffff82111715620005ae57620005ad62000692565b5b8060405250919050565b600067ffffffffffffffff821115620005d657620005d562000692565b5b602082029050602081019050919050565b600082825260208201905092915050565b6000620006058262000659565b9150620006128362000659565b9250817fffffffffffffffffffffffffffffffffffffffffffffffffffffffffffffffff04831182151516156200064e576200064d62000663565b5b828202905092915050565b6000819050919050565b7f4e487b7100000000000000000000000000000000000000000000000000000000600052601160045260246000fd5b7f4e487b7100000000000000000000000000000000000000000000000000000000600052604160045260246000fd5b620006cc8162000659565b8114620006d857600080fd5b50565b6118f580620006eb6000396000f3fe6080604052600436106100555760003560e01c80634bb278f31461005a5780636cbc2ded14610071578063b7d0628b1461009c578063d65ab5f2146100d2578063f1d5f911146100e9578063f4aaf6f214610112575b600080fd5b34801561006657600080fd5b5061006f610142565b005b34801561007d57600080fd5b5061008661015b565b6040516100939190611302565b60405180910390f35b3480156100a857600080fd5b506100b1610333565b6040516100c99c9b9a99989796959493929190611558565b60405180910390f35b3480156100de57600080fd5b506100e76103cf565b005b3480156100f557600080fd5b50610110600480360381019061010b9190610d2a565b6104c0565b005b61012c60048036038101906101279190610d6b565b6107f8565b604051610139919061153d565b60405180910390f35b3073ffffffffffffffffffffffffffffffffffffffff16ff5b6000600960029054906101000a900473ffffffffffffffffffffffffffffffffffffffff1673ffffffffffffffffffffffffffffffffffffffff163373ffffffffffffffffffffffffffffffffffffffff16146101ed576040517f08c379a00000000000000000000000000000000000000000000000000000000081526004016101e49061131d565b60405180910390fd5b60011515600960009054906101000a900460ff16151514610243576040517f08c379a000000000000000000000000000000000000000000000000000000000815260040161023a9061145d565b60405180910390fd5b60001515600960019054906101000a900460ff16151514610299576040517f08c379a00000000000000000000000000000000000000000000000000000000081526004016102909061149d565b60405180910390fd5b60016005546102a89190611702565b600b54426102b6919061175c565b116102f6576040517f08c379a00000000000000000000000000000000000000000000000000000000081526004016102ed906113dd565b60405180910390fd5b6000600960006101000a81548160ff0219169083151502179055506001600960016101000a81548160ff0219169083151502179055506001905090565b600080600080600080600080600080600080600054600160009054906101000a900473ffffffffffffffffffffffffffffffffffffffff166002546003546004544760055460065460075447600b54600b5442610390919061175c565b600160055461039f9190611702565b6103a9919061175c565b9b509b509b509b509b509b509b509b509b509b509b509b50909192939495969798999a9b565b6003805414610413576040517f08c379a000000000000000000000000000000000000000000000000000000000815260040161040a9061135d565b60405180910390fd5b600960029054906101000a900473ffffffffffffffffffffffffffffffffffffffff1673ffffffffffffffffffffffffffffffffffffffff163373ffffffffffffffffffffffffffffffffffffffff16146104a3576040517f08c379a000000000000000000000000000000000000000000000000000000000815260040161049a906113bd565b60405180910390fd5b6001600960006101000a81548160ff021916908315150217905550565b6000600654825114610507576040517f08c379a00000000000000000000000000000000000000000000000000000000081526004016104fe906114bd565b60405180910390fd5b600960029054906101000a900473ffffffffffffffffffffffffffffffffffffffff1673ffffffffffffffffffffffffffffffffffffffff163373ffffffffffffffffffffffffffffffffffffffff1614610597576040517f08c379a000000000000000000000000000000000000000000000000000000000815260040161058e9061131d565b60405180910390fd5b60001515600960009054906101000a900460ff161515146105ed576040517f08c379a00000000000000000000000000000000000000000000000000000000081526004016105e49061139d565b60405180910390fd5b60011515600960019054906101000a900460ff16151514610643576040517f08c379a000000000000000000000000000000000000000000000000000000000815260040161063a906114dd565b60405180910390fd5b60016005546106529190611702565b600b5442610660919061175c565b116106a0576040517f08c379a0000000000000000000000000000000000000000000000000000000008152600401610697906113dd565b60405180910390fd5b600190505b8151811161078b578181815181106106e6577f4e487b7100000000000000000000000000000000000000000000000000000000600052603260045260246000fd5b602002602001015173ffffffffffffffffffffffffffffffffffffffff166108fc60088381548110610741577f4e487b7100000000000000000000000000000000000000000000000000000000600052603260045260246000fd5b90600052602060002001549081150290604051600060405180830381858888f19350505050158015610777573d6000803e3d6000fd5b508080610783906117ea565b9150506106a5565b600160009054906101000a900473ffffffffffffffffffffffffffffffffffffffff1673ffffffffffffffffffffffffffffffffffffffff166108fc479081150290604051600060405180830381858888f193505050501580156107f3573d6000803e3d6000fd5b505050565b6000600380541061083e576040517f08c379a0000000000000000000000000000000000000000000000000000000008152600401610835906114fd565b60405180910390fd5b60001515600960009054906101000a900460ff16151514610894576040517f08c379a000000000000000000000000000000000000000000000000000000000815260040161088b9061137d565b60405180910390fd5b60001515600960019054906101000a900460ff161515146108ea576040517f08c379a00000000000000000000000000000000000000000000000000000000081526004016108e1906113fd565b60405180910390fd5b60075434101561092f576040517f08c379a00000000000000000000000000000000000000000000000000000000081526004016109269061143d565b60405180910390fd5b60045483511015610975576040517f08c379a000000000000000000000000000000000000000000000000000000000815260040161096c9061147d565b60405180910390fd5b60008251116109b9576040517f08c379a00000000000000000000000000000000000000000000000000000000081526004016109b09061133d565b60405180910390fd5b82518251146109fd576040517f08c379a00000000000000000000000000000000000000000000000000000000081526004016109f49061141d565b60405180910390fd5b6000805b8351811015610a6b57838181518110610a43577f4e487b7100000000000000000000000000000000000000000000000000000000600052603260045260246000fd5b602002602001015182610a5691906116ac565b91508080610a63906117ea565b915050610a01565b50600081118015610a7c5750606481105b610abb576040517f08c379a0000000000000000000000000000000000000000000000000000000008152600401610ab29061151d565b60405180910390fd5b6000600c600060036000815480929190610ad4906117ea565b9190505581526020019081526020016000209050338160000160006101000a81548173ffffffffffffffffffffffffffffffffffffffff021916908373ffffffffffffffffffffffffffffffffffffffff16021790555084816001019080519060200190610b43929190610b6a565b5083816002019080519060200190610b5c929190610b6a565b506000549250505092915050565b828054828255906000526020600020908101928215610ba6579160200282015b82811115610ba5578251825591602001919060010190610b8a565b5b509050610bb39190610bb7565b5090565b5b80821115610bd0576000816000905550600101610bb8565b5090565b6000610be7610be284611643565b611612565b90508083825260208201905082856020860282011115610c0657600080fd5b60005b85811015610c365781610c1c8882610cac565b845260208401935060208301925050600181019050610c09565b5050509392505050565b6000610c53610c4e8461166f565b611612565b90508083825260208201905082856020860282011115610c7257600080fd5b60005b85811015610ca25781610c888882610d15565b845260208401935060208301925050600181019050610c75565b5050509392505050565b600081359050610cbb81611891565b92915050565b600082601f830112610cd257600080fd5b8135610ce2848260208601610bd4565b91505092915050565b600082601f830112610cfc57600080fd5b8135610d0c848260208601610c40565b91505092915050565b600081359050610d24816118a8565b92915050565b600060208284031215610d3c57600080fd5b600082013567ffffffffffffffff811115610d5657600080fd5b610d6284828501610cc1565b91505092915050565b60008060408385031215610d7e57600080fd5b600083013567ffffffffffffffff811115610d9857600080fd5b610da485828601610ceb565b925050602083013567ffffffffffffffff811115610dc157600080fd5b610dcd85828601610ceb565b9150509250929050565b610de081611790565b82525050565b610def816117b4565b82525050565b6000610e0260268361169b565b91507f6f6e6c7920746865206f7267616e697a6174696f6e2063616e20656e6420746860008301527f652067616d6500000000000000000000000000000000000000000000000000006020830152604082019050919050565b6000610e68601f8361169b565b91507f57656967687461676520666f7220636f696e73206973206e6f742073656e74006000830152602082019050919050565b6000610ea8601e8361169b565b91507f4d69736d6174636820696e206e756d626572206f6620706c61796572732e00006000830152602082019050919050565b6000610ee860148361169b565b91507f5468652067616d652068617320737461727465640000000000000000000000006000830152602082019050919050565b6000610f2860108361169b565b91507f5468652067616d65206973206c697665000000000000000000000000000000006000830152602082019050919050565b6000610f6860288361169b565b91507f6f6e6c7920746865206f7267616e697a6174696f6e2063616e2073746172742060008301527f7468652067616d650000000000000000000000000000000000000000000000006020830152604082019050919050565b6000610fce60198361169b565b91507f47616d65206973207374696c6c20696e2070726f6772657373000000000000006000830152602082019050919050565b600061100e60128361169b565b91507f5468652067616d652068617320656e64656400000000000000000000000000006000830152602082019050919050565b600061104e60268361169b565b91507f57656967687461676520666f7220616c6c20636f696e73206973206e6f74207060008301527f726573656e7400000000000000000000000000000000000000000000000000006020830152604082019050919050565b60006110b460388361169b565b91507f506c6179657220686173206e6f7420636f6e747269627574656420746865206560008301527f7861637420616d6f756e7420666f72207468652067616d6500000000000000006020830152604082019050919050565b600061111a60148361169b565b91507f5468652067616d65206973206e6f74206c6976650000000000000000000000006000830152602082019050919050565b600061115a60238361169b565b91507f596f75206861766520746f2063686f6f7365206174206c65617374203720636f60008301527f696e7300000000000000000000000000000000000000000000000000000000006020830152604082019050919050565b60006111c0601e8361169b565b91507f5468652067616d652068617320616c726561647920636f6d706c6574656400006000830152602082019050919050565b6000611200601d8361169b565b91507f4d69736d6174636820696e206e756d626572206f662077696e6e6572730000006000830152602082019050919050565b6000611240601f8361169b565b91507f5468652067616d6520686173206e6f74206265656e20636f6d706c65746564006000830152602082019050919050565b600061128060198361169b565b91507f54686520706c6179657220636f756e74207265616368656421000000000000006000830152602082019050919050565b60006112c060178361169b565b91507f576569676874616765206973206e6f742070726f7065720000000000000000006000830152602082019050919050565b6112fc816117e0565b82525050565b60006020820190506113176000830184610de6565b92915050565b6000602082019050818103600083015261133681610df5565b9050919050565b6000602082019050818103600083015261135681610e5b565b9050919050565b6000602082019050818103600083015261137681610e9b565b9050919050565b6000602082019050818103600083015261139681610edb565b9050919050565b600060208201905081810360008301526113b681610f1b565b9050919050565b600060208201905081810360008301526113d681610f5b565b9050919050565b600060208201905081810360008301526113f681610fc1565b9050919050565b6000602082019050818103600083015261141681611001565b9050919050565b6000602082019050818103600083015261143681611041565b9050919050565b60006020820190508181036000830152611456816110a7565b9050919050565b600060208201905081810360008301526114768161110d565b9050919050565b600060208201905081810360008301526114968161114d565b9050919050565b600060208201905081810360008301526114b6816111b3565b9050919050565b600060208201905081810360008301526114d6816111f3565b9050919050565b600060208201905081810360008301526114f681611233565b9050919050565b6000602082019050818103600083015261151681611273565b9050919050565b60006020820190508181036000830152611536816112b3565b9050919050565b600060208201905061155260008301846112f3565b92915050565b60006101808201905061156e600083018f6112f3565b61157b602083018e610dd7565b611588604083018d6112f3565b611595606083018c6112f3565b6115a2608083018b6112f3565b6115af60a083018a6112f3565b6115bc60c08301896112f3565b6115c960e08301886112f3565b6115d76101008301876112f3565b6115e56101208301866112f3565b6115f36101408301856112f3565b6116016101608301846112f3565b9d9c50505050505050505050505050565b6000604051905081810181811067ffffffffffffffff8211171561163957611638611862565b5b8060405250919050565b600067ffffffffffffffff82111561165e5761165d611862565b5b602082029050602081019050919050565b600067ffffffffffffffff82111561168a57611689611862565b5b602082029050602081019050919050565b600082825260208201905092915050565b60006116b7826117e0565b91506116c2836117e0565b9250827fffffffffffffffffffffffffffffffffffffffffffffffffffffffffffffffff038211156116f7576116f6611833565b5b828201905092915050565b600061170d826117e0565b9150611718836117e0565b9250817fffffffffffffffffffffffffffffffffffffffffffffffffffffffffffffffff048311821515161561175157611750611833565b5b828202905092915050565b6000611767826117e0565b9150611772836117e0565b92508282101561178557611784611833565b5b828203905092915050565b600061179b826117c0565b9050919050565b60006117ad826117c0565b9050919050565b60008115159050919050565b600073ffffffffffffffffffffffffffffffffffffffff82169050919050565b6000819050919050565b60006117f5826117e0565b91507fffffffffffffffffffffffffffffffffffffffffffffffffffffffffffffffff82141561182857611827611833565b5b600182019050919050565b7f4e487b7100000000000000000000000000000000000000000000000000000000600052601160045260246000fd5b7f4e487b7100000000000000000000000000000000000000000000000000000000600052604160045260246000fd5b61189a816117a2565b81146118a557600080fd5b50565b6118b1816117e0565b81146118bc57600080fd5b5056fea2646970667358221220e60a22443646911acc14aac6901e70829d9daeca68850ffdd9f7dd4cfc99248064736f6c63430008000033",
  "immutableReferences": {},
  "source": "// Coin Fantasy Game\r\n// SPDX-License-Identifier: CoinFantasy Game\r\n\r\npragma solidity ^0.8.0;\r\n\r\n\r\ncontract Game {\r\n    uint256 gameId;\r\n    address gameOwner;\r\n    uint256 gamePool;\r\n    uint256 numPlayers;\r\n    uint256 numCoins;\r\n    // uint256 contractBalance;\r\n    uint256 gameTime;\r\n    uint256 numWinners;\r\n    uint256 playerContribution;\r\n    uint256[] winnerWeights;\r\n    bool live;\r\n    bool completed;\r\n    address orgAddress = 0x0d77B3d1E78e6DE6e0326E08B4B9CF1791e4E236;\r\n    address payable orgWallet = payable(address(orgAddress));\r\n    uint256 startTime = block.timestamp;\r\n    // int256[] startPrice;\r\n    // int256[] endPrice;\r\n\r\n    struct Player {\r\n        address player;\r\n        uint256[] coins;\r\n        uint256[] weightage;\r\n    }\r\n\r\n    mapping(uint256 => Player) players;\r\n\r\n    constructor(\r\n        uint256 _gameId,\r\n        uint256 _numCoins,\r\n        uint256 _gameTime,\r\n        uint256 _numWinners,\r\n        uint256[] memory _winnerWeights,\r\n        uint256 _gamePool,\r\n        uint256 _lockIn,\r\n        uint256 _playerContribution\r\n    ) payable {\r\n\r\n        require(\r\n            100 * msg.value >= (_lockIn * _gamePool * 1 wei),\r\n            \"Creator needs to lockIn 10% to create the game\"\r\n        );\r\n\r\n        require(\r\n            _numWinners == _winnerWeights.length,\r\n            \"Number of winners doesn't match with the weightage of winners\"\r\n        );\r\n\r\n        winnerWeights = _winnerWeights;\r\n\r\n        gameId = _gameId;\r\n        gameOwner = msg.sender;\r\n        numPlayers = 0;\r\n        numCoins = _numCoins;\r\n        // contractBalance = msg.value;\r\n        gameTime = _gameTime;\r\n        numWinners = _numWinners;\r\n        gamePool = _gamePool;\r\n        playerContribution = _playerContribution;\r\n        live = false;\r\n        completed = false;\r\n    }\r\n\r\n\r\n    function startGame() public {\r\n        require(numPlayers == 3, \"Mismatch in number of players.\");\r\n        require(\r\n            msg.sender == orgAddress,\r\n            \"only the organization can start the game\"\r\n        );\r\n        live = true;\r\n    }\r\n\r\n    function joinGame(uint256[] memory coins, uint256[] memory weightage)\r\n        public\r\n        payable\r\n        returns (uint256 _gameId)\r\n    {\r\n        require(numPlayers < 3, \"The player count reached!\");\r\n        require(live == false, \"The game has started\");\r\n        require(completed == false, \"The game has ended\");\r\n        require(\r\n            msg.value >= playerContribution,\r\n            \"Player has not contributed the exact amount for the game\"\r\n        );\r\n        require(\r\n            coins.length >= numCoins,\r\n            \"You have to choose at least 7 coins\"\r\n        );\r\n        require(weightage.length > 0, \"Weightage for coins is not sent\");\r\n        require(\r\n            weightage.length == coins.length,\r\n            \"Weightage for all coins is not present\"\r\n        );\r\n\r\n        uint256 totalWeightage = 0;\r\n        for (uint256 i = 0; i < weightage.length; i++) {\r\n            totalWeightage += weightage[i];\r\n        }\r\n\r\n        require(\r\n            totalWeightage > 0 && totalWeightage < 100,\r\n            \"Weightage is not proper\"\r\n        );\r\n\r\n        Player storage newPlayer = players[numPlayers++];\r\n        newPlayer.player = msg.sender;\r\n        newPlayer.coins = coins;\r\n        newPlayer.weightage = weightage;\r\n        // contractBalance += msg.value;\r\n        return gameId;\r\n    }\r\n\r\n\r\n    function finalize() public {\r\n        selfdestruct(payable(address(this)));\r\n    }\r\n\r\n    function endGame() public returns (bool) {\r\n        require(\r\n            msg.sender == orgAddress,\r\n            \"only the organization can end the game\"\r\n        );\r\n        require(live == true, \"The game is not live\");\r\n        require(completed == false, \"The game has already completed\");\r\n        require(block.timestamp - startTime> gameTime * 1, \"Game is still in progress\");\r\n\r\n        live = false;\r\n        completed = true;\r\n        \r\n\r\n        return true;\r\n    }\r\n\r\n    function distributePrize(address payable[] memory winners) public {\r\n        uint256 i;\r\n        require(winners.length == numWinners, \"Mismatch in number of winners\");\r\n        require(\r\n            msg.sender == orgAddress,\r\n            \"only the organization can end the game\"\r\n        );\r\n        require(live == false, \"The game is live\");\r\n        require(completed == true, \"The game has not been completed\");\r\n        require(block.timestamp - startTime > gameTime * 1, \"Game is still in progress\");\r\n\r\n        for (i = 1; i <= winners.length; i++) {\r\n            winners[i].transfer(winnerWeights[i]);\r\n        }\r\n        payable(gameOwner).transfer(address(this).balance);\r\n    }\r\n\r\n    function getGameState()\r\n        public\r\n        view\r\n        returns (\r\n            uint256, // gameId,\r\n            address, // gameOwner,\r\n            uint256, // gamePool,\r\n            uint256, // numPlayers,\r\n            uint256, // numCoins,\r\n            uint256, // contractBalance,\r\n            //gameTime - should be in seconds\r\n            uint256, // gameTime,\r\n            uint256, // numWinners,\r\n            uint256, // playerContribution\r\n            uint256, //account balance\r\n            uint256,  //startTime\r\n            uint256   //ends in\r\n        )\r\n    {\r\n        return (\r\n            gameId,\r\n            gameOwner,\r\n            gamePool,\r\n            numPlayers,\r\n            numCoins,\r\n            address(this).balance,\r\n            gameTime,\r\n            numWinners,\r\n            playerContribution,\r\n            address(this).balance,\r\n            startTime,\r\n            gameTime * 1 - (block.timestamp - startTime)\r\n        );\r\n    }\r\n}\r\n",
  "sourcePath": "D:/projects/coinFantasy/CoinFantasy/contracts/CoinGame.sol",
  "compiler": {
    "name": "solc",
    "version": "0.8.0+commit.c7dfd78e.Emscripten.clang"
  },
  "schemaVersion": "3.3.4",
  "updatedAt": "2021-04-15T06:45:02.874Z",
  "networkType": "ethereum",
  "devdoc": {
    "kind": "dev",
    "methods": {},
    "version": 1
  },
  "userdoc": {
    "kind": "user",
    "methods": {},
    "version": 1
  }
}