{
  "contractName": "Game",
  "abi": [
    {
      "inputs": [
        {
          "internalType": "uint256",
          "name": "_gameId",
          "type": "uint256"
        },
        {
          "internalType": "uint256",
          "name": "_numCoins",
          "type": "uint256"
        },
        {
          "internalType": "uint256",
          "name": "_gameTime",
          "type": "uint256"
        },
        {
          "internalType": "uint256",
          "name": "_numPlayers",
          "type": "uint256"
        },
        {
          "internalType": "uint256",
          "name": "_numWinners",
          "type": "uint256"
        },
        {
          "internalType": "uint256[]",
          "name": "_winnerWeights",
          "type": "uint256[]"
        },
        {
          "internalType": "uint256",
          "name": "_gamePool",
          "type": "uint256"
        },
        {
          "internalType": "uint256",
          "name": "_lockIn",
          "type": "uint256"
        },
        {
          "internalType": "uint256",
          "name": "_playerContribution",
          "type": "uint256"
        },
        {
          "internalType": "address",
          "name": "_token",
          "type": "address"
        }
      ],
      "stateMutability": "payable",
      "type": "constructor",
      "payable": true
    },
    {
      "inputs": [
        {
          "internalType": "uint256",
          "name": "amount",
          "type": "uint256"
        }
      ],
      "name": "buyToken",
      "outputs": [
        {
          "internalType": "bool",
          "name": "",
          "type": "bool"
        }
      ],
      "stateMutability": "nonpayable",
      "type": "function"
    },
    {
      "inputs": [],
      "name": "startGame",
      "outputs": [],
      "stateMutability": "nonpayable",
      "type": "function"
    },
    {
      "inputs": [
        {
          "internalType": "uint256[]",
          "name": "coins",
          "type": "uint256[]"
        },
        {
          "internalType": "uint256[]",
          "name": "weightage",
          "type": "uint256[]"
        },
        {
          "internalType": "uint256",
          "name": "amount",
          "type": "uint256"
        }
      ],
      "name": "joinGame",
      "outputs": [
        {
          "internalType": "uint256",
          "name": "_gameId",
          "type": "uint256"
        }
      ],
      "stateMutability": "nonpayable",
      "type": "function"
    },
    {
      "inputs": [],
      "name": "finalize",
      "outputs": [],
      "stateMutability": "nonpayable",
      "type": "function"
    },
    {
      "inputs": [],
      "name": "endGame",
      "outputs": [
        {
          "internalType": "bool",
          "name": "",
          "type": "bool"
        }
      ],
      "stateMutability": "nonpayable",
      "type": "function"
    },
    {
      "inputs": [
        {
          "internalType": "address[]",
          "name": "winners",
          "type": "address[]"
        }
      ],
      "name": "distributePrize",
      "outputs": [],
      "stateMutability": "nonpayable",
      "type": "function"
    },
    {
      "inputs": [],
      "name": "getGameState",
      "outputs": [
        {
          "internalType": "uint256",
          "name": "",
          "type": "uint256"
        },
        {
          "internalType": "address",
          "name": "",
          "type": "address"
        },
        {
          "internalType": "uint256",
          "name": "",
          "type": "uint256"
        },
        {
          "internalType": "uint256",
          "name": "",
          "type": "uint256"
        },
        {
          "internalType": "uint256",
          "name": "",
          "type": "uint256"
        },
        {
          "internalType": "uint256",
          "name": "",
          "type": "uint256"
        },
        {
          "internalType": "uint256",
          "name": "",
          "type": "uint256"
        },
        {
          "internalType": "uint256",
          "name": "",
          "type": "uint256"
        },
        {
          "internalType": "uint256",
          "name": "",
          "type": "uint256"
        },
        {
          "internalType": "uint256",
          "name": "",
          "type": "uint256"
        },
        {
          "internalType": "uint256",
          "name": "",
          "type": "uint256"
        },
        {
          "internalType": "uint256",
          "name": "",
          "type": "uint256"
        }
      ],
      "stateMutability": "view",
      "type": "function",
      "constant": true
    }
  ],
  "bytecode": "0x608060405273604bcd042d2d5b355ece14b6ac3224d23f29a51c600a60026101000a81548173ffffffffffffffffffffffffffffffffffffffff021916908373ffffffffffffffffffffffffffffffffffffffff160217905550600a60029054906101000a900473ffffffffffffffffffffffffffffffffffffffff16600b60006101000a81548173ffffffffffffffffffffffffffffffffffffffff021916908373ffffffffffffffffffffffffffffffffffffffff16021790555042600c5560405162002a2138038062002a218339818101604052810190620000e59190620003f5565b60018484620000f5919062000686565b62000101919062000686565b34606462000110919062000686565b101562000154576040517f08c379a00000000000000000000000000000000000000000000000000000000081526004016200014b90620005f0565b60405180910390fd5b845186146200019a576040517f08c379a00000000000000000000000000000000000000000000000000000000081526004016200019190620005ce565b60405180910390fd5b8460089080519060200190620001b2929190620002b4565b508960008190555033600160006101000a81548173ffffffffffffffffffffffffffffffffffffffff021916908373ffffffffffffffffffffffffffffffffffffffff16021790555086600981905550600060038190555088600481905550876005819055508560068190555083600281905550816007819055506000600a60006101000a81548160ff0219169083151502179055506000600a60016101000a81548160ff02191690831515021790555080600d60006101000a81548173ffffffffffffffffffffffffffffffffffffffff021916908373ffffffffffffffffffffffffffffffffffffffff16021790555050505050505050505050620007b7565b828054828255906000526020600020908101928215620002f3579160200282015b82811115620002f2578251825591602001919060010190620002d5565b5b50905062000302919062000306565b5090565b5b808211156200032157600081600090555060010162000307565b5090565b60006200033c620003368462000646565b62000612565b905080838252602082019050828560208602820111156200035c57600080fd5b60005b85811015620003905781620003758882620003de565b8452602084019350602083019250506001810190506200035f565b5050509392505050565b600081519050620003ab8162000783565b92915050565b600082601f830112620003c357600080fd5b8151620003d584826020860162000325565b91505092915050565b600081519050620003ef816200079d565b92915050565b6000806000806000806000806000806101408b8d0312156200041657600080fd5b6000620004268d828e01620003de565b9a50506020620004398d828e01620003de565b99505060406200044c8d828e01620003de565b98505060606200045f8d828e01620003de565b9750506080620004728d828e01620003de565b96505060a08b015167ffffffffffffffff8111156200049057600080fd5b6200049e8d828e01620003b1565b95505060c0620004b18d828e01620003de565b94505060e0620004c48d828e01620003de565b935050610100620004d88d828e01620003de565b925050610120620004ec8d828e016200039a565b9150509295989b9194979a5092959850565b60006200050d603d8362000675565b91507f4e756d626572206f662077696e6e65727320646f65736e2774206d617463682060008301527f776974682074686520776569676874616765206f662077696e6e6572730000006020830152604082019050919050565b600062000575602e8362000675565b91507f43726561746f72206e6565647320746f206c6f636b496e2031302520746f206360008301527f7265617465207468652067616d650000000000000000000000000000000000006020830152604082019050919050565b60006020820190508181036000830152620005e981620004fe565b9050919050565b600060208201905081810360008301526200060b8162000566565b9050919050565b6000604051905081810181811067ffffffffffffffff821117156200063c576200063b62000754565b5b8060405250919050565b600067ffffffffffffffff82111562000664576200066362000754565b5b602082029050602081019050919050565b600082825260208201905092915050565b600062000693826200071b565b9150620006a0836200071b565b9250817fffffffffffffffffffffffffffffffffffffffffffffffffffffffffffffffff0483118215151615620006dc57620006db62000725565b5b828202905092915050565b6000620006f482620006fb565b9050919050565b600073ffffffffffffffffffffffffffffffffffffffff82169050919050565b6000819050919050565b7f4e487b7100000000000000000000000000000000000000000000000000000000600052601160045260246000fd5b7f4e487b7100000000000000000000000000000000000000000000000000000000600052604160045260246000fd5b6200078e81620006e7565b81146200079a57600080fd5b50565b620007a8816200071b565b8114620007b457600080fd5b50565b61225a80620007c76000396000f3fe608060405234801561001057600080fd5b506004361061007d5760003560e01c8063719e43d51161005b578063719e43d5146100da578063b7d0628b1461010a578063d65ab5f214610133578063f1d5f9111461013d5761007d565b80632d296bf1146100825780634bb278f3146100b25780636cbc2ded146100bc575b600080fd5b61009c600480360381019061009791906114fb565b610159565b6040516100a99190611c02565b60405180910390f35b6100ba61034d565b005b6100c46105e0565b6040516100d19190611c02565b60405180910390f35b6100f460048036038101906100ef9190611453565b6107b8565b6040516101019190611e9d565b60405180910390f35b610112610b75565b60405161012a9c9b9a99989796959493929190611eb8565b60405180910390f35b61013b610c11565b005b61015760048036038101906101529190611412565b610d04565b005b600080821161019d576040517f08c379a000000000000000000000000000000000000000000000000000000000815260040161019490611cfd565b60405180910390fd5b6000600d60009054906101000a900473ffffffffffffffffffffffffffffffffffffffff1673ffffffffffffffffffffffffffffffffffffffff1663dd62ed3e33306040518363ffffffff1660e01b81526004016101fc929190611b79565b60206040518083038186803b15801561021457600080fd5b505afa158015610228573d6000803e3d6000fd5b505050506040513d601f19601f8201168201806040525081019061024c9190611524565b905082811015610291576040517f08c379a000000000000000000000000000000000000000000000000000000000815260040161028890611d1d565b60405180910390fd5b600d60009054906101000a900473ffffffffffffffffffffffffffffffffffffffff1673ffffffffffffffffffffffffffffffffffffffff166323b872dd3330866040518463ffffffff1660e01b81526004016102f093929190611ba2565b602060405180830381600087803b15801561030a57600080fd5b505af115801561031e573d6000803e3d6000fd5b505050506040513d601f19601f8201168201806040525081019061034291906114d2565b506001915050919050565b600a60029054906101000a900473ffffffffffffffffffffffffffffffffffffffff1673ffffffffffffffffffffffffffffffffffffffff163373ffffffffffffffffffffffffffffffffffffffff16146103dd576040517f08c379a00000000000000000000000000000000000000000000000000000000081526004016103d490611c1d565b60405180910390fd5b600b60009054906101000a900473ffffffffffffffffffffffffffffffffffffffff1673ffffffffffffffffffffffffffffffffffffffff166108fc479081150290604051600060405180830381858888f19350505050158015610445573d6000803e3d6000fd5b506000600d60009054906101000a900473ffffffffffffffffffffffffffffffffffffffff1673ffffffffffffffffffffffffffffffffffffffff166370a08231306040518263ffffffff1660e01b81526004016104a39190611b5e565b60206040518083038186803b1580156104bb57600080fd5b505afa1580156104cf573d6000803e3d6000fd5b505050506040513d601f19601f820116820180604052508101906104f39190611524565b9050600d60009054906101000a900473ffffffffffffffffffffffffffffffffffffffff1673ffffffffffffffffffffffffffffffffffffffff1663a9059cbb600a60029054906101000a900473ffffffffffffffffffffffffffffffffffffffff16836040518363ffffffff1660e01b8152600401610574929190611bd9565b602060405180830381600087803b15801561058e57600080fd5b505af11580156105a2573d6000803e3d6000fd5b505050506040513d601f19601f820116820180604052508101906105c691906114d2565b503073ffffffffffffffffffffffffffffffffffffffff16ff5b6000600a60029054906101000a900473ffffffffffffffffffffffffffffffffffffffff1673ffffffffffffffffffffffffffffffffffffffff163373ffffffffffffffffffffffffffffffffffffffff1614610672576040517f08c379a000000000000000000000000000000000000000000000000000000000815260040161066990611c1d565b60405180910390fd5b60011515600a60009054906101000a900460ff161515146106c8576040517f08c379a00000000000000000000000000000000000000000000000000000000081526004016106bf90611dbd565b60405180910390fd5b60001515600a60019054906101000a900460ff1615151461071e576040517f08c379a000000000000000000000000000000000000000000000000000000000815260040161071590611dfd565b60405180910390fd5b600160055461072d9190612062565b600c544261073b91906120bc565b1161077b576040517f08c379a000000000000000000000000000000000000000000000000000000000815260040161077290611d3d565b60405180910390fd5b6000600a60006101000a81548160ff0219169083151502179055506001600a60016101000a81548160ff0219169083151502179055506001905090565b600060095460035410610800576040517f08c379a00000000000000000000000000000000000000000000000000000000081526004016107f790611e5d565b60405180910390fd5b60001515600a60009054906101000a900460ff16151514610856576040517f08c379a000000000000000000000000000000000000000000000000000000000815260040161084d90611c9d565b60405180910390fd5b60001515600a60019054906101000a900460ff161515146108ac576040517f08c379a00000000000000000000000000000000000000000000000000000000081526004016108a390611d5d565b60405180910390fd5b6007548210156108f1576040517f08c379a00000000000000000000000000000000000000000000000000000000081526004016108e890611d9d565b60405180910390fd5b60045484511015610937576040517f08c379a000000000000000000000000000000000000000000000000000000000815260040161092e90611ddd565b60405180910390fd5b600083511161097b576040517f08c379a000000000000000000000000000000000000000000000000000000000815260040161097290611c5d565b60405180910390fd5b83518351146109bf576040517f08c379a00000000000000000000000000000000000000000000000000000000081526004016109b690611d7d565b60405180910390fd5b6109c882610159565b610a07576040517f08c379a00000000000000000000000000000000000000000000000000000000081526004016109fe90611c3d565b60405180910390fd5b6000805b8451811015610a7557848181518110610a4d577f4e487b7100000000000000000000000000000000000000000000000000000000600052603260045260246000fd5b602002602001015182610a60919061200c565b91508080610a6d90612138565b915050610a0b565b50600081118015610a865750606481105b610ac5576040517f08c379a0000000000000000000000000000000000000000000000000000000008152600401610abc90611e7d565b60405180910390fd5b6000600e600060036000815480929190610ade90612138565b9190505581526020019081526020016000209050338160000160006101000a81548173ffffffffffffffffffffffffffffffffffffffff021916908373ffffffffffffffffffffffffffffffffffffffff16021790555085816001019080519060200190610b4d929190611228565b5084816002019080519060200190610b66929190611228565b50600054925050509392505050565b600080600080600080600080600080600080600054600160009054906101000a900473ffffffffffffffffffffffffffffffffffffffff166002546003546004544760055460065460075447600c54600c5442610bd291906120bc565b6001600554610be19190612062565b610beb91906120bc565b9b509b509b509b509b509b509b509b509b509b509b509b50909192939495969798999a9b565b60095460035414610c57576040517f08c379a0000000000000000000000000000000000000000000000000000000008152600401610c4e90611c7d565b60405180910390fd5b600a60029054906101000a900473ffffffffffffffffffffffffffffffffffffffff1673ffffffffffffffffffffffffffffffffffffffff163373ffffffffffffffffffffffffffffffffffffffff1614610ce7576040517f08c379a0000000000000000000000000000000000000000000000000000000008152600401610cde90611cdd565b60405180910390fd5b6001600a60006101000a81548160ff021916908315150217905550565b6000600654825114610d4b576040517f08c379a0000000000000000000000000000000000000000000000000000000008152600401610d4290611e1d565b60405180910390fd5b600a60029054906101000a900473ffffffffffffffffffffffffffffffffffffffff1673ffffffffffffffffffffffffffffffffffffffff163373ffffffffffffffffffffffffffffffffffffffff1614610ddb576040517f08c379a0000000000000000000000000000000000000000000000000000000008152600401610dd290611c1d565b60405180910390fd5b60001515600a60009054906101000a900460ff16151514610e31576040517f08c379a0000000000000000000000000000000000000000000000000000000008152600401610e2890611cbd565b60405180910390fd5b60011515600a60019054906101000a900460ff16151514610e87576040517f08c379a0000000000000000000000000000000000000000000000000000000008152600401610e7e90611e3d565b60405180910390fd5b6001600554610e969190612062565b600c5442610ea491906120bc565b11610ee4576040517f08c379a0000000000000000000000000000000000000000000000000000000008152600401610edb90611d3d565b60405180910390fd5b600090505b815181101561103957600d60009054906101000a900473ffffffffffffffffffffffffffffffffffffffff1673ffffffffffffffffffffffffffffffffffffffff1663a9059cbb838381518110610f69577f4e487b7100000000000000000000000000000000000000000000000000000000600052603260045260246000fd5b602002602001015160088481548110610fab577f4e487b7100000000000000000000000000000000000000000000000000000000600052603260045260246000fd5b90600052602060002001546040518363ffffffff1660e01b8152600401610fd3929190611bd9565b602060405180830381600087803b158015610fed57600080fd5b505af1158015611001573d6000803e3d6000fd5b505050506040513d601f19601f8201168201806040525081019061102591906114d2565b50808061103190612138565b915050610ee9565b600160009054906101000a900473ffffffffffffffffffffffffffffffffffffffff1673ffffffffffffffffffffffffffffffffffffffff166108fc479081150290604051600060405180830381858888f193505050501580156110a1573d6000803e3d6000fd5b506000600d60009054906101000a900473ffffffffffffffffffffffffffffffffffffffff1673ffffffffffffffffffffffffffffffffffffffff166370a08231306040518263ffffffff1660e01b81526004016110ff9190611b5e565b60206040518083038186803b15801561111757600080fd5b505afa15801561112b573d6000803e3d6000fd5b505050506040513d601f19601f8201168201806040525081019061114f9190611524565b9050600d60009054906101000a900473ffffffffffffffffffffffffffffffffffffffff1673ffffffffffffffffffffffffffffffffffffffff1663a9059cbb600160009054906101000a900473ffffffffffffffffffffffffffffffffffffffff16836040518363ffffffff1660e01b81526004016111d0929190611bd9565b602060405180830381600087803b1580156111ea57600080fd5b505af11580156111fe573d6000803e3d6000fd5b505050506040513d601f19601f8201168201806040525081019061122291906114d2565b50505050565b828054828255906000526020600020908101928215611264579160200282015b82811115611263578251825591602001919060010190611248565b5b5090506112719190611275565b5090565b5b8082111561128e576000816000905550600101611276565b5090565b60006112a56112a084611fa3565b611f72565b905080838252602082019050828560208602820111156112c457600080fd5b60005b858110156112f457816112da888261136a565b8452602084019350602083019250506001810190506112c7565b5050509392505050565b600061131161130c84611fcf565b611f72565b9050808382526020820190508285602086028201111561133057600080fd5b60005b85811015611360578161134688826113e8565b845260208401935060208301925050600181019050611333565b5050509392505050565b600081359050611379816121df565b92915050565b600082601f83011261139057600080fd5b81356113a0848260208601611292565b91505092915050565b600082601f8301126113ba57600080fd5b81356113ca8482602086016112fe565b91505092915050565b6000815190506113e2816121f6565b92915050565b6000813590506113f78161220d565b92915050565b60008151905061140c8161220d565b92915050565b60006020828403121561142457600080fd5b600082013567ffffffffffffffff81111561143e57600080fd5b61144a8482850161137f565b91505092915050565b60008060006060848603121561146857600080fd5b600084013567ffffffffffffffff81111561148257600080fd5b61148e868287016113a9565b935050602084013567ffffffffffffffff8111156114ab57600080fd5b6114b7868287016113a9565b92505060406114c8868287016113e8565b9150509250925092565b6000602082840312156114e457600080fd5b60006114f2848285016113d3565b91505092915050565b60006020828403121561150d57600080fd5b600061151b848285016113e8565b91505092915050565b60006020828403121561153657600080fd5b6000611544848285016113fd565b91505092915050565b611556816120f0565b82525050565b61156581612102565b82525050565b6000611578602683611ffb565b91507f6f6e6c7920746865206f7267616e697a6174696f6e2063616e20656e6420746860008301527f652067616d6500000000000000000000000000000000000000000000000000006020830152604082019050919050565b60006115de601883611ffb565b91507f546f6b656e207472616e73616374696f6e206661696c656400000000000000006000830152602082019050919050565b600061161e601f83611ffb565b91507f57656967687461676520666f7220636f696e73206973206e6f742073656e74006000830152602082019050919050565b600061165e601e83611ffb565b91507f4d69736d6174636820696e206e756d626572206f6620706c61796572732e00006000830152602082019050919050565b600061169e601483611ffb565b91507f5468652067616d652068617320737461727465640000000000000000000000006000830152602082019050919050565b60006116de601083611ffb565b91507f5468652067616d65206973206c697665000000000000000000000000000000006000830152602082019050919050565b600061171e602883611ffb565b91507f6f6e6c7920746865206f7267616e697a6174696f6e2063616e2073746172742060008301527f7468652067616d650000000000000000000000000000000000000000000000006020830152604082019050919050565b6000611784602583611ffb565b91507f596f75206e65656420746f2073656c6c206174206c6561737420736f6d65207460008301527f6f6b656e730000000000000000000000000000000000000000000000000000006020830152604082019050919050565b60006117ea601983611ffb565b91507f436865636b2074686520746f6b656e20616c6c6f77616e6365000000000000006000830152602082019050919050565b600061182a601983611ffb565b91507f47616d65206973207374696c6c20696e2070726f6772657373000000000000006000830152602082019050919050565b600061186a601283611ffb565b91507f5468652067616d652068617320656e64656400000000000000000000000000006000830152602082019050919050565b60006118aa602683611ffb565b91507f57656967687461676520666f7220616c6c20636f696e73206973206e6f74207060008301527f726573656e7400000000000000000000000000000000000000000000000000006020830152604082019050919050565b6000611910603883611ffb565b91507f506c6179657220686173206e6f7420636f6e747269627574656420746865206560008301527f7861637420616d6f756e7420666f72207468652067616d6500000000000000006020830152604082019050919050565b6000611976601483611ffb565b91507f5468652067616d65206973206e6f74206c6976650000000000000000000000006000830152602082019050919050565b60006119b6602383611ffb565b91507f596f75206861766520746f2063686f6f7365206174206c65617374203720636f60008301527f696e7300000000000000000000000000000000000000000000000000000000006020830152604082019050919050565b6000611a1c601e83611ffb565b91507f5468652067616d652068617320616c726561647920636f6d706c6574656400006000830152602082019050919050565b6000611a5c601d83611ffb565b91507f4d69736d6174636820696e206e756d626572206f662077696e6e6572730000006000830152602082019050919050565b6000611a9c601f83611ffb565b91507f5468652067616d6520686173206e6f74206265656e20636f6d706c65746564006000830152602082019050919050565b6000611adc601983611ffb565b91507f54686520706c6179657220636f756e74207265616368656421000000000000006000830152602082019050919050565b6000611b1c601783611ffb565b91507f576569676874616765206973206e6f742070726f7065720000000000000000006000830152602082019050919050565b611b588161212e565b82525050565b6000602082019050611b73600083018461154d565b92915050565b6000604082019050611b8e600083018561154d565b611b9b602083018461154d565b9392505050565b6000606082019050611bb7600083018661154d565b611bc4602083018561154d565b611bd16040830184611b4f565b949350505050565b6000604082019050611bee600083018561154d565b611bfb6020830184611b4f565b9392505050565b6000602082019050611c17600083018461155c565b92915050565b60006020820190508181036000830152611c368161156b565b9050919050565b60006020820190508181036000830152611c56816115d1565b9050919050565b60006020820190508181036000830152611c7681611611565b9050919050565b60006020820190508181036000830152611c9681611651565b9050919050565b60006020820190508181036000830152611cb681611691565b9050919050565b60006020820190508181036000830152611cd6816116d1565b9050919050565b60006020820190508181036000830152611cf681611711565b9050919050565b60006020820190508181036000830152611d1681611777565b9050919050565b60006020820190508181036000830152611d36816117dd565b9050919050565b60006020820190508181036000830152611d568161181d565b9050919050565b60006020820190508181036000830152611d768161185d565b9050919050565b60006020820190508181036000830152611d968161189d565b9050919050565b60006020820190508181036000830152611db681611903565b9050919050565b60006020820190508181036000830152611dd681611969565b9050919050565b60006020820190508181036000830152611df6816119a9565b9050919050565b60006020820190508181036000830152611e1681611a0f565b9050919050565b60006020820190508181036000830152611e3681611a4f565b9050919050565b60006020820190508181036000830152611e5681611a8f565b9050919050565b60006020820190508181036000830152611e7681611acf565b9050919050565b60006020820190508181036000830152611e9681611b0f565b9050919050565b6000602082019050611eb26000830184611b4f565b92915050565b600061018082019050611ece600083018f611b4f565b611edb602083018e61154d565b611ee8604083018d611b4f565b611ef5606083018c611b4f565b611f02608083018b611b4f565b611f0f60a083018a611b4f565b611f1c60c0830189611b4f565b611f2960e0830188611b4f565b611f37610100830187611b4f565b611f45610120830186611b4f565b611f53610140830185611b4f565b611f61610160830184611b4f565b9d9c50505050505050505050505050565b6000604051905081810181811067ffffffffffffffff82111715611f9957611f986121b0565b5b8060405250919050565b600067ffffffffffffffff821115611fbe57611fbd6121b0565b5b602082029050602081019050919050565b600067ffffffffffffffff821115611fea57611fe96121b0565b5b602082029050602081019050919050565b600082825260208201905092915050565b60006120178261212e565b91506120228361212e565b9250827fffffffffffffffffffffffffffffffffffffffffffffffffffffffffffffffff0382111561205757612056612181565b5b828201905092915050565b600061206d8261212e565b91506120788361212e565b9250817fffffffffffffffffffffffffffffffffffffffffffffffffffffffffffffffff04831182151516156120b1576120b0612181565b5b828202905092915050565b60006120c78261212e565b91506120d28361212e565b9250828210156120e5576120e4612181565b5b828203905092915050565b60006120fb8261210e565b9050919050565b60008115159050919050565b600073ffffffffffffffffffffffffffffffffffffffff82169050919050565b6000819050919050565b60006121438261212e565b91507fffffffffffffffffffffffffffffffffffffffffffffffffffffffffffffffff82141561217657612175612181565b5b600182019050919050565b7f4e487b7100000000000000000000000000000000000000000000000000000000600052601160045260246000fd5b7f4e487b7100000000000000000000000000000000000000000000000000000000600052604160045260246000fd5b6121e8816120f0565b81146121f357600080fd5b50565b6121ff81612102565b811461220a57600080fd5b50565b6122168161212e565b811461222157600080fd5b5056fea26469706673582212205107c7e5828f9303225f0471b8ceb13f251db5ec08369e3b9aa9eb8c98b3a85664736f6c63430008000033",
  "immutableReferences": {},
  "source": "// Coin Fantasy Game\r\n// SPDX-License-Identifier: CoinFantasy Game\r\n\r\npragma solidity ^0.8.0;\r\n\r\nimport \"@openzeppelin/contracts/token/ERC20/ERC20.sol\";\r\n\r\n\r\ncontract Game{\r\n    uint256 gameId;\r\n    address gameOwner;\r\n    uint256 gamePool;\r\n    uint256 curNumPlayers;\r\n    uint256 numCoins;\r\n    uint256 gameTime;\r\n    uint256 numWinners;\r\n    uint256 playerContribution;\r\n    uint256[] winnerWeights;\r\n    uint256 numPlayers;\r\n    bool live;\r\n    bool completed;\r\n    address orgAddress = 0x604BCD042D2d5B355ecE14B6aC3224d23F29a51c;\r\n    address payable orgWallet = payable(address(orgAddress));\r\n    uint256 startTime = block.timestamp;\r\n    ERC20 usdc;\r\n\r\n    struct Player {\r\n        address player;\r\n        uint256[] coins;\r\n        uint256[] weightage;\r\n    }\r\n\r\n    mapping(uint256 => Player) players;\r\n\r\n    constructor(\r\n        uint256 _gameId,//                      -0\r\n        uint256 _numCoins,//                    -1\r\n        uint256 _gameTime,//                    -2\r\n        uint256 _numPlayers,//                  -3\r\n        uint256 _numWinners,//                  -4\r\n        uint256[] memory _winnerWeights,//      -5\r\n        uint256 _gamePool,//                    -6\r\n        uint256 _lockIn,//                      -7\r\n        uint256 _playerContribution,//          -8\r\n        address _token//                        -9\r\n    ) payable {\r\n        require(\r\n            100 * msg.value >= (_lockIn * _gamePool * 1 wei),\r\n            \"Creator needs to lockIn 10% to create the game\"\r\n        );\r\n\r\n        require(\r\n            _numWinners == _winnerWeights.length,\r\n            \"Number of winners doesn't match with the weightage of winners\"\r\n        );\r\n\r\n        winnerWeights = _winnerWeights;\r\n\r\n        gameId = _gameId;\r\n        gameOwner = msg.sender;\r\n        numPlayers = _numPlayers;\r\n        curNumPlayers = 0;\r\n        numCoins = _numCoins;\r\n        gameTime = _gameTime;\r\n        numWinners = _numWinners;\r\n        gamePool = _gamePool;\r\n        playerContribution = _playerContribution;\r\n        live = false;\r\n        completed = false;\r\n        usdc = ERC20(_token);\r\n    }\r\n\r\n    function buyToken(uint256 amount) public returns (bool) {\r\n        require(amount > 0, \"You need to sell at least some tokens\");\r\n        uint256 allowance = usdc.allowance(msg.sender, address(this));\r\n        require(allowance >= amount, \"Check the token allowance\");\r\n        usdc.transferFrom(msg.sender, address(this), amount);\r\n        return true;\r\n    }\r\n\r\n\r\n    function startGame() public {\r\n        require(curNumPlayers == numPlayers, \"Mismatch in number of players.\");\r\n        require(\r\n            msg.sender == orgAddress,\r\n            \"only the organization can start the game\"\r\n        );\r\n        live = true;\r\n    }\r\n\r\n    function joinGame(uint256[] memory coins, uint256[] memory weightage, uint256 amount)\r\n        public\r\n        returns (uint256 _gameId)\r\n    {\r\n        require(curNumPlayers < numPlayers, \"The player count reached!\");\r\n        require(live == false, \"The game has started\");\r\n        require(completed == false, \"The game has ended\");\r\n        require(\r\n            amount >= playerContribution,\r\n            \"Player has not contributed the exact amount for the game\"\r\n        );\r\n        require(\r\n            coins.length >= numCoins,\r\n            \"You have to choose at least 7 coins\"\r\n        );\r\n        require(weightage.length > 0, \"Weightage for coins is not sent\");\r\n        require(\r\n            weightage.length == coins.length,\r\n            \"Weightage for all coins is not present\"\r\n        );\r\n\r\n        require(buyToken(amount), \"Token transaction failed\");\r\n\r\n        uint256 totalWeightage = 0;\r\n        for (uint256 i = 0; i < weightage.length; i++) {\r\n            totalWeightage += weightage[i];\r\n        }\r\n\r\n        require(\r\n            totalWeightage > 0 && totalWeightage < 100,\r\n            \"Weightage is not proper\"\r\n        );\r\n\r\n        Player storage newPlayer = players[curNumPlayers++];\r\n        newPlayer.player = msg.sender;\r\n        newPlayer.coins = coins;\r\n        newPlayer.weightage = weightage;\r\n        return gameId;\r\n    }\r\n\r\n    function finalize() public {\r\n        require(\r\n            msg.sender == orgAddress,\r\n            \"only the organization can end the game\"\r\n        );\r\n        orgWallet.transfer(address(this).balance);\r\n        uint256 rem_balance = usdc.balanceOf(address(this));\r\n        usdc.transfer(orgAddress, rem_balance);\r\n        \r\n        selfdestruct(payable(address(this)));\r\n        \r\n    }\r\n\r\n    function endGame() public returns (bool) {\r\n        require(\r\n            msg.sender == orgAddress,\r\n            \"only the organization can end the game\"\r\n        );\r\n        require(live == true, \"The game is not live\");\r\n        require(completed == false, \"The game has already completed\");\r\n        require(\r\n            block.timestamp - startTime > gameTime * 1,\r\n            \"Game is still in progress\"\r\n        );\r\n\r\n        live = false;\r\n        completed = true;\r\n\r\n        return true;\r\n    }\r\n\r\n    function distributePrize(address[] memory winners) public {\r\n        uint256 i;\r\n        require(winners.length == numWinners, \"Mismatch in number of winners\");\r\n        require(\r\n            msg.sender == orgAddress,\r\n            \"only the organization can end the game\"\r\n        );\r\n        require(live == false, \"The game is live\");\r\n        require(completed == true, \"The game has not been completed\");\r\n        require(\r\n            block.timestamp - startTime > gameTime * 1,\r\n            \"Game is still in progress\"\r\n        );\r\n\r\n        for (i = 0; i < winners.length; i++) {\r\n            usdc.transfer(winners[i], winnerWeights[i]);\r\n        }\r\n        payable(gameOwner).transfer(address(this).balance);\r\n        uint256 balance = usdc.balanceOf(address(this));\r\n        usdc.transfer(gameOwner, balance);\r\n    }\r\n\r\n    function getGameState()\r\n        public\r\n        view\r\n        returns (\r\n            uint256,// gameId,                  -0\r\n            address,// gameOwner,               -1\r\n            uint256,// gamePool,                -2\r\n            uint256,// numPlayers,              -3\r\n            uint256,// numCoins,                -4\r\n            uint256,// contractBalance,         -5\r\n            //gameTime - should be in seconds\r\n            uint256,// gameTime,                -6\r\n            uint256,// numWinners,              -7\r\n            uint256,// playerContribution       -8\r\n            uint256,//account balance           -9\r\n            uint256,//startTime                 -10\r\n            uint256//ends in                    -11\r\n            // bool,   //live                   -12\r\n            // bool    //completed              -13\r\n        )\r\n    {\r\n        return (\r\n            gameId,\r\n            gameOwner,\r\n            gamePool,\r\n            curNumPlayers,\r\n            numCoins,\r\n            address(this).balance,\r\n            gameTime,\r\n            numWinners,\r\n            playerContribution,\r\n            address(this).balance,\r\n            startTime,\r\n            gameTime * 1 - (block.timestamp - startTime)\r\n            // live,\r\n            // completed\r\n        );\r\n    }\r\n}\r\n",
  "sourcePath": "D:/projects/coinFantasy/CoinFantasy/contracts/CoinGame.sol",
  "compiler": {
    "name": "solc",
    "version": "0.8.0+commit.c7dfd78e.Emscripten.clang"
  },
  "schemaVersion": "3.3.4",
  "updatedAt": "2021-04-22T12:10:28.452Z",
  "networkType": "ethereum",
  "devdoc": {
    "kind": "dev",
    "methods": {},
    "version": 1
  },
  "userdoc": {
    "kind": "user",
    "methods": {},
    "version": 1
  }
}