{
  "contractName": "Game",
  "abi": [
    {
      "inputs": [
        {
          "internalType": "uint256",
          "name": "_gameId",
          "type": "uint256"
        },
        {
          "internalType": "uint256",
          "name": "_numCoins",
          "type": "uint256"
        },
        {
          "internalType": "uint256",
          "name": "_gameTime",
          "type": "uint256"
        },
        {
          "internalType": "uint256",
          "name": "_numWinners",
          "type": "uint256"
        },
        {
          "internalType": "uint256[]",
          "name": "_winnerWeights",
          "type": "uint256[]"
        },
        {
          "internalType": "uint256",
          "name": "_gamePool",
          "type": "uint256"
        },
        {
          "internalType": "uint256",
          "name": "_lockIn",
          "type": "uint256"
        },
        {
          "internalType": "uint256",
          "name": "_playerContribution",
          "type": "uint256"
        }
      ],
      "stateMutability": "payable",
      "type": "constructor",
      "payable": true
    },
    {
      "inputs": [],
      "name": "startGame",
      "outputs": [],
      "stateMutability": "nonpayable",
      "type": "function"
    },
    {
      "inputs": [
        {
          "internalType": "uint256[]",
          "name": "coins",
          "type": "uint256[]"
        },
        {
          "internalType": "uint256[]",
          "name": "weightage",
          "type": "uint256[]"
        }
      ],
      "name": "joinGame",
      "outputs": [
        {
          "internalType": "uint256",
          "name": "_gameId",
          "type": "uint256"
        }
      ],
      "stateMutability": "payable",
      "type": "function",
      "payable": true
    },
    {
      "inputs": [],
      "name": "finalize",
      "outputs": [],
      "stateMutability": "nonpayable",
      "type": "function"
    },
    {
      "inputs": [],
      "name": "gameEnded",
      "outputs": [
        {
          "internalType": "bool",
          "name": "",
          "type": "bool"
        }
      ],
      "stateMutability": "nonpayable",
      "type": "function"
    },
    {
      "inputs": [
        {
          "internalType": "address payable[]",
          "name": "winners",
          "type": "address[]"
        }
      ],
      "name": "distributePrize",
      "outputs": [],
      "stateMutability": "nonpayable",
      "type": "function"
    },
    {
      "inputs": [],
      "name": "getGameState",
      "outputs": [
        {
          "internalType": "uint256",
          "name": "",
          "type": "uint256"
        },
        {
          "internalType": "address",
          "name": "",
          "type": "address"
        },
        {
          "internalType": "uint256",
          "name": "",
          "type": "uint256"
        },
        {
          "internalType": "uint256",
          "name": "",
          "type": "uint256"
        },
        {
          "internalType": "uint256",
          "name": "",
          "type": "uint256"
        },
        {
          "internalType": "uint256",
          "name": "",
          "type": "uint256"
        },
        {
          "internalType": "uint256",
          "name": "",
          "type": "uint256"
        },
        {
          "internalType": "uint256",
          "name": "",
          "type": "uint256"
        },
        {
          "internalType": "uint256",
          "name": "",
          "type": "uint256"
        },
        {
          "internalType": "uint256",
          "name": "",
          "type": "uint256"
        }
      ],
      "stateMutability": "view",
      "type": "function",
      "constant": true
    }
  ],
  "bytecode": "0x6080604052730d77b3d1e78e6de6e0326e08b4b9cf1791e4e236600960026101000a81548173ffffffffffffffffffffffffffffffffffffffff021916908373ffffffffffffffffffffffffffffffffffffffff160217905550600960029054906101000a900473ffffffffffffffffffffffffffffffffffffffff16600a60006101000a81548173ffffffffffffffffffffffffffffffffffffffff021916908373ffffffffffffffffffffffffffffffffffffffff16021790555060405162001ec938038062001ec98339818101604052810190620000e1919062000390565b60018383620000f19190620005f4565b620000fd9190620005f4565b3460646200010c9190620005f4565b101562000150576040517f08c379a000000000000000000000000000000000000000000000000000000000815260040162000147906200055e565b60405180910390fd5b8351851462000196576040517f08c379a00000000000000000000000000000000000000000000000000000000081526004016200018d906200053c565b60405180910390fd5b8360089080519060200190620001ae92919062000266565b508760008190555033600160006101000a81548173ffffffffffffffffffffffffffffffffffffffff021916908373ffffffffffffffffffffffffffffffffffffffff160217905550600060038190555086600481905550856005819055508460068190555082600281905550806007819055506000600960006101000a81548160ff0219169083151502179055506000600960016101000a81548160ff0219169083151502179055505050505050505050620006d7565b828054828255906000526020600020908101928215620002a5579160200282015b82811115620002a457825182559160200191906001019062000287565b5b509050620002b49190620002b8565b5090565b5b80821115620002d3576000816000905550600101620002b9565b5090565b6000620002ee620002e884620005b4565b62000580565b905080838252602082019050828560208602820111156200030e57600080fd5b60005b8581101562000342578162000327888262000379565b84526020840193506020830192505060018101905062000311565b5050509392505050565b600082601f8301126200035e57600080fd5b815162000370848260208601620002d7565b91505092915050565b6000815190506200038a81620006bd565b92915050565b600080600080600080600080610100898b031215620003ae57600080fd5b6000620003be8b828c0162000379565b9850506020620003d18b828c0162000379565b9750506040620003e48b828c0162000379565b9650506060620003f78b828c0162000379565b955050608089015167ffffffffffffffff8111156200041557600080fd5b620004238b828c016200034c565b94505060a0620004368b828c0162000379565b93505060c0620004498b828c0162000379565b92505060e06200045c8b828c0162000379565b9150509295985092959890939650565b60006200047b603d83620005e3565b91507f4e756d626572206f662077696e6e65727320646f65736e2774206d617463682060008301527f776974682074686520776569676874616765206f662077696e6e6572730000006020830152604082019050919050565b6000620004e3602e83620005e3565b91507f43726561746f72206e6565647320746f206c6f636b496e2031302520746f206360008301527f7265617465207468652067616d650000000000000000000000000000000000006020830152604082019050919050565b6000602082019050818103600083015262000557816200046c565b9050919050565b600060208201905081810360008301526200057981620004d4565b9050919050565b6000604051905081810181811067ffffffffffffffff82111715620005aa57620005a96200068e565b5b8060405250919050565b600067ffffffffffffffff821115620005d257620005d16200068e565b5b602082029050602081019050919050565b600082825260208201905092915050565b6000620006018262000655565b91506200060e8362000655565b9250817fffffffffffffffffffffffffffffffffffffffffffffffffffffffffffffffff04831182151516156200064a57620006496200065f565b5b828202905092915050565b6000819050919050565b7f4e487b7100000000000000000000000000000000000000000000000000000000600052601160045260246000fd5b7f4e487b7100000000000000000000000000000000000000000000000000000000600052604160045260246000fd5b620006c88162000655565b8114620006d457600080fd5b50565b6117e280620006e76000396000f3fe6080604052600436106100555760003560e01c80632f6fe3961461005a5780634bb278f314610085578063b7d0628b1461009c578063d65ab5f2146100d0578063f1d5f911146100e7578063f4aaf6f214610110575b600080fd5b34801561006657600080fd5b5061006f610140565b60405161007c919061129b565b60405180910390f35b34801561009157600080fd5b5061009a6102ff565b005b3480156100a857600080fd5b506100b1610318565b6040516100c79a999897969594939291906114f1565b60405180910390f35b3480156100dc57600080fd5b506100e5610381565b005b3480156100f357600080fd5b5061010e60048036038101906101099190610cc3565b610472565b005b61012a60048036038101906101259190610d04565b610791565b60405161013791906114d6565b60405180910390f35b6000600960029054906101000a900473ffffffffffffffffffffffffffffffffffffffff1673ffffffffffffffffffffffffffffffffffffffff163373ffffffffffffffffffffffffffffffffffffffff16146101d2576040517f08c379a00000000000000000000000000000000000000000000000000000000081526004016101c9906112b6565b60405180910390fd5b60011515600960009054906101000a900460ff16151514610228576040517f08c379a000000000000000000000000000000000000000000000000000000000815260040161021f906113f6565b60405180910390fd5b60001515600960019054906101000a900460ff1615151461027e576040517f08c379a000000000000000000000000000000000000000000000000000000000815260040161027590611436565b60405180910390fd5b60055442116102c2576040517f08c379a00000000000000000000000000000000000000000000000000000000081526004016102b990611376565b60405180910390fd5b6000600960006101000a81548160ff0219169083151502179055506001600960016101000a81548160ff0219169083151502179055506001905090565b3073ffffffffffffffffffffffffffffffffffffffff16ff5b600080600080600080600080600080600054600160009054906101000a900473ffffffffffffffffffffffffffffffffffffffff166002546003546004544760055460065460075447995099509950995099509950995099509950995090919293949596979899565b60038054146103c5576040517f08c379a00000000000000000000000000000000000000000000000000000000081526004016103bc906112f6565b60405180910390fd5b600960029054906101000a900473ffffffffffffffffffffffffffffffffffffffff1673ffffffffffffffffffffffffffffffffffffffff163373ffffffffffffffffffffffffffffffffffffffff1614610455576040517f08c379a000000000000000000000000000000000000000000000000000000000815260040161044c90611356565b60405180910390fd5b6001600960006101000a81548160ff021916908315150217905550565b60006006548251146104b9576040517f08c379a00000000000000000000000000000000000000000000000000000000081526004016104b090611456565b60405180910390fd5b600960029054906101000a900473ffffffffffffffffffffffffffffffffffffffff1673ffffffffffffffffffffffffffffffffffffffff163373ffffffffffffffffffffffffffffffffffffffff1614610549576040517f08c379a0000000000000000000000000000000000000000000000000000000008152600401610540906112b6565b60405180910390fd5b60001515600960009054906101000a900460ff1615151461059f576040517f08c379a000000000000000000000000000000000000000000000000000000000815260040161059690611336565b60405180910390fd5b60011515600960019054906101000a900460ff161515146105f5576040517f08c379a00000000000000000000000000000000000000000000000000000000081526004016105ec90611476565b60405180910390fd5b6005544211610639576040517f08c379a000000000000000000000000000000000000000000000000000000000815260040161063090611376565b60405180910390fd5b600190505b815181116107245781818151811061067f577f4e487b7100000000000000000000000000000000000000000000000000000000600052603260045260246000fd5b602002602001015173ffffffffffffffffffffffffffffffffffffffff166108fc600883815481106106da577f4e487b7100000000000000000000000000000000000000000000000000000000600052603260045260246000fd5b90600052602060002001549081150290604051600060405180830381858888f19350505050158015610710573d6000803e3d6000fd5b50808061071c906116d7565b91505061063e565b600160009054906101000a900473ffffffffffffffffffffffffffffffffffffffff1673ffffffffffffffffffffffffffffffffffffffff166108fc479081150290604051600060405180830381858888f1935050505015801561078c573d6000803e3d6000fd5b505050565b600060038054106107d7576040517f08c379a00000000000000000000000000000000000000000000000000000000081526004016107ce90611496565b60405180910390fd5b60001515600960009054906101000a900460ff1615151461082d576040517f08c379a000000000000000000000000000000000000000000000000000000000815260040161082490611316565b60405180910390fd5b60001515600960019054906101000a900460ff16151514610883576040517f08c379a000000000000000000000000000000000000000000000000000000000815260040161087a90611396565b60405180910390fd5b6007543410156108c8576040517f08c379a00000000000000000000000000000000000000000000000000000000081526004016108bf906113d6565b60405180910390fd5b6004548351101561090e576040517f08c379a000000000000000000000000000000000000000000000000000000000815260040161090590611416565b60405180910390fd5b6000825111610952576040517f08c379a0000000000000000000000000000000000000000000000000000000008152600401610949906112d6565b60405180910390fd5b8251825114610996576040517f08c379a000000000000000000000000000000000000000000000000000000000815260040161098d906113b6565b60405180910390fd5b6000805b8351811015610a04578381815181106109dc577f4e487b7100000000000000000000000000000000000000000000000000000000600052603260045260246000fd5b6020026020010151826109ef9190611627565b915080806109fc906116d7565b91505061099a565b50600081118015610a155750606481105b610a54576040517f08c379a0000000000000000000000000000000000000000000000000000000008152600401610a4b906114b6565b60405180910390fd5b6000600b600060036000815480929190610a6d906116d7565b9190505581526020019081526020016000209050338160000160006101000a81548173ffffffffffffffffffffffffffffffffffffffff021916908373ffffffffffffffffffffffffffffffffffffffff16021790555084816001019080519060200190610adc929190610b03565b5083816002019080519060200190610af5929190610b03565b506000549250505092915050565b828054828255906000526020600020908101928215610b3f579160200282015b82811115610b3e578251825591602001919060010190610b23565b5b509050610b4c9190610b50565b5090565b5b80821115610b69576000816000905550600101610b51565b5090565b6000610b80610b7b846115be565b61158d565b90508083825260208201905082856020860282011115610b9f57600080fd5b60005b85811015610bcf5781610bb58882610c45565b845260208401935060208301925050600181019050610ba2565b5050509392505050565b6000610bec610be7846115ea565b61158d565b90508083825260208201905082856020860282011115610c0b57600080fd5b60005b85811015610c3b5781610c218882610cae565b845260208401935060208301925050600181019050610c0e565b5050509392505050565b600081359050610c548161177e565b92915050565b600082601f830112610c6b57600080fd5b8135610c7b848260208601610b6d565b91505092915050565b600082601f830112610c9557600080fd5b8135610ca5848260208601610bd9565b91505092915050565b600081359050610cbd81611795565b92915050565b600060208284031215610cd557600080fd5b600082013567ffffffffffffffff811115610cef57600080fd5b610cfb84828501610c5a565b91505092915050565b60008060408385031215610d1757600080fd5b600083013567ffffffffffffffff811115610d3157600080fd5b610d3d85828601610c84565b925050602083013567ffffffffffffffff811115610d5a57600080fd5b610d6685828601610c84565b9150509250929050565b610d798161167d565b82525050565b610d88816116a1565b82525050565b6000610d9b602683611616565b91507f6f6e6c7920746865206f7267616e697a6174696f6e2063616e20656e6420746860008301527f652067616d6500000000000000000000000000000000000000000000000000006020830152604082019050919050565b6000610e01601f83611616565b91507f57656967687461676520666f7220636f696e73206973206e6f742073656e74006000830152602082019050919050565b6000610e41601e83611616565b91507f4d69736d6174636820696e206e756d626572206f6620706c61796572732e00006000830152602082019050919050565b6000610e81601483611616565b91507f5468652067616d652068617320737461727465640000000000000000000000006000830152602082019050919050565b6000610ec1601083611616565b91507f5468652067616d65206973206c697665000000000000000000000000000000006000830152602082019050919050565b6000610f01602883611616565b91507f6f6e6c7920746865206f7267616e697a6174696f6e2063616e2073746172742060008301527f7468652067616d650000000000000000000000000000000000000000000000006020830152604082019050919050565b6000610f67601983611616565b91507f47616d65206973207374696c6c20696e2070726f6772657373000000000000006000830152602082019050919050565b6000610fa7601283611616565b91507f5468652067616d652068617320656e64656400000000000000000000000000006000830152602082019050919050565b6000610fe7602683611616565b91507f57656967687461676520666f7220616c6c20636f696e73206973206e6f74207060008301527f726573656e7400000000000000000000000000000000000000000000000000006020830152604082019050919050565b600061104d603883611616565b91507f506c6179657220686173206e6f7420636f6e747269627574656420746865206560008301527f7861637420616d6f756e7420666f72207468652067616d6500000000000000006020830152604082019050919050565b60006110b3601483611616565b91507f5468652067616d65206973206e6f74206c6976650000000000000000000000006000830152602082019050919050565b60006110f3602383611616565b91507f596f75206861766520746f2063686f6f7365206174206c65617374203720636f60008301527f696e7300000000000000000000000000000000000000000000000000000000006020830152604082019050919050565b6000611159601e83611616565b91507f5468652067616d652068617320616c726561647920636f6d706c6574656400006000830152602082019050919050565b6000611199601d83611616565b91507f4d69736d6174636820696e206e756d626572206f662077696e6e6572730000006000830152602082019050919050565b60006111d9601f83611616565b91507f5468652067616d6520686173206e6f74206265656e20636f6d706c65746564006000830152602082019050919050565b6000611219601983611616565b91507f54686520706c6179657220636f756e74207265616368656421000000000000006000830152602082019050919050565b6000611259601783611616565b91507f576569676874616765206973206e6f742070726f7065720000000000000000006000830152602082019050919050565b611295816116cd565b82525050565b60006020820190506112b06000830184610d7f565b92915050565b600060208201905081810360008301526112cf81610d8e565b9050919050565b600060208201905081810360008301526112ef81610df4565b9050919050565b6000602082019050818103600083015261130f81610e34565b9050919050565b6000602082019050818103600083015261132f81610e74565b9050919050565b6000602082019050818103600083015261134f81610eb4565b9050919050565b6000602082019050818103600083015261136f81610ef4565b9050919050565b6000602082019050818103600083015261138f81610f5a565b9050919050565b600060208201905081810360008301526113af81610f9a565b9050919050565b600060208201905081810360008301526113cf81610fda565b9050919050565b600060208201905081810360008301526113ef81611040565b9050919050565b6000602082019050818103600083015261140f816110a6565b9050919050565b6000602082019050818103600083015261142f816110e6565b9050919050565b6000602082019050818103600083015261144f8161114c565b9050919050565b6000602082019050818103600083015261146f8161118c565b9050919050565b6000602082019050818103600083015261148f816111cc565b9050919050565b600060208201905081810360008301526114af8161120c565b9050919050565b600060208201905081810360008301526114cf8161124c565b9050919050565b60006020820190506114eb600083018461128c565b92915050565b600061014082019050611507600083018d61128c565b611514602083018c610d70565b611521604083018b61128c565b61152e606083018a61128c565b61153b608083018961128c565b61154860a083018861128c565b61155560c083018761128c565b61156260e083018661128c565b61157061010083018561128c565b61157e61012083018461128c565b9b9a5050505050505050505050565b6000604051905081810181811067ffffffffffffffff821117156115b4576115b361174f565b5b8060405250919050565b600067ffffffffffffffff8211156115d9576115d861174f565b5b602082029050602081019050919050565b600067ffffffffffffffff8211156116055761160461174f565b5b602082029050602081019050919050565b600082825260208201905092915050565b6000611632826116cd565b915061163d836116cd565b9250827fffffffffffffffffffffffffffffffffffffffffffffffffffffffffffffffff0382111561167257611671611720565b5b828201905092915050565b6000611688826116ad565b9050919050565b600061169a826116ad565b9050919050565b60008115159050919050565b600073ffffffffffffffffffffffffffffffffffffffff82169050919050565b6000819050919050565b60006116e2826116cd565b91507fffffffffffffffffffffffffffffffffffffffffffffffffffffffffffffffff82141561171557611714611720565b5b600182019050919050565b7f4e487b7100000000000000000000000000000000000000000000000000000000600052601160045260246000fd5b7f4e487b7100000000000000000000000000000000000000000000000000000000600052604160045260246000fd5b6117878161168f565b811461179257600080fd5b50565b61179e816116cd565b81146117a957600080fd5b5056fea26469706673582212204ffc0b50dd7e2d9f785d63a7ada898f8c2ec1635ed0dc93d4ebc12d1b4abcc0364736f6c63430008000033",
  "immutableReferences": {},
  "source": "// Coin Fantasy Game\r\n// SPDX-License-Identifier: CoinFantasy Game\r\n\r\npragma solidity ^0.8.0;\r\n\r\n\r\ncontract Game {\r\n    uint256 gameId;\r\n    address gameOwner;\r\n    uint256 gamePool;\r\n    uint256 numPlayers;\r\n    uint256 numCoins;\r\n    // uint256 contractBalance;\r\n    uint256 gameTime;\r\n    uint256 numWinners;\r\n    uint256 playerContribution;\r\n    uint256[] winnerWeights;\r\n    bool live;\r\n    bool completed;\r\n    address orgAddress = 0x0d77B3d1E78e6DE6e0326E08B4B9CF1791e4E236;\r\n    address payable orgWallet = payable(address(orgAddress));\r\n    // int256[] startPrice;\r\n    // int256[] endPrice;\r\n\r\n    struct Player {\r\n        address player;\r\n        uint256[] coins;\r\n        uint256[] weightage;\r\n    }\r\n\r\n    mapping(uint256 => Player) players;\r\n\r\n    constructor(\r\n        uint256 _gameId,\r\n        uint256 _numCoins,\r\n        uint256 _gameTime,\r\n        uint256 _numWinners,\r\n        uint256[] memory _winnerWeights,\r\n        uint256 _gamePool,\r\n        uint256 _lockIn,\r\n        uint256 _playerContribution\r\n    ) payable {\r\n\r\n        require(\r\n            100 * msg.value >= (_lockIn * _gamePool * 1 wei),\r\n            \"Creator needs to lockIn 10% to create the game\"\r\n        );\r\n\r\n        require(\r\n            _numWinners == _winnerWeights.length,\r\n            \"Number of winners doesn't match with the weightage of winners\"\r\n        );\r\n\r\n        winnerWeights = _winnerWeights;\r\n\r\n        gameId = _gameId;\r\n        gameOwner = msg.sender;\r\n        numPlayers = 0;\r\n        numCoins = _numCoins;\r\n        // contractBalance = msg.value;\r\n        gameTime = _gameTime;\r\n        numWinners = _numWinners;\r\n        gamePool = _gamePool;\r\n        playerContribution = _playerContribution;\r\n        live = false;\r\n        completed = false;\r\n    }\r\n\r\n\r\n    function startGame() public {\r\n        require(numPlayers == 3, \"Mismatch in number of players.\");\r\n        require(\r\n            msg.sender == orgAddress,\r\n            \"only the organization can start the game\"\r\n        );\r\n        live = true;\r\n    }\r\n\r\n    function joinGame(uint256[] memory coins, uint256[] memory weightage)\r\n        public\r\n        payable\r\n        returns (uint256 _gameId)\r\n    {\r\n        require(numPlayers < 3, \"The player count reached!\");\r\n        require(live == false, \"The game has started\");\r\n        require(completed == false, \"The game has ended\");\r\n        require(\r\n            msg.value >= playerContribution,\r\n            \"Player has not contributed the exact amount for the game\"\r\n        );\r\n        require(\r\n            coins.length >= numCoins,\r\n            \"You have to choose at least 7 coins\"\r\n        );\r\n        require(weightage.length > 0, \"Weightage for coins is not sent\");\r\n        require(\r\n            weightage.length == coins.length,\r\n            \"Weightage for all coins is not present\"\r\n        );\r\n\r\n        uint256 totalWeightage = 0;\r\n        for (uint256 i = 0; i < weightage.length; i++) {\r\n            totalWeightage += weightage[i];\r\n        }\r\n\r\n        require(\r\n            totalWeightage > 0 && totalWeightage < 100,\r\n            \"Weightage is not proper\"\r\n        );\r\n\r\n        Player storage newPlayer = players[numPlayers++];\r\n        newPlayer.player = msg.sender;\r\n        newPlayer.coins = coins;\r\n        newPlayer.weightage = weightage;\r\n        // contractBalance += msg.value;\r\n        return gameId;\r\n    }\r\n\r\n\r\n    function finalize() public {\r\n        selfdestruct(payable(address(this)));\r\n    }\r\n\r\n    function gameEnded() public returns (bool) {\r\n        require(\r\n            msg.sender == orgAddress,\r\n            \"only the organization can end the game\"\r\n        );\r\n        require(live == true, \"The game is not live\");\r\n        require(completed == false, \"The game has already completed\");\r\n        require(block.timestamp > gameTime, \"Game is still in progress\");\r\n\r\n        live = false;\r\n        completed = true;\r\n        \r\n\r\n        return true;\r\n    }\r\n\r\n    function distributePrize(address payable[] memory winners) public {\r\n        uint256 i;\r\n        require(winners.length == numWinners, \"Mismatch in number of winners\");\r\n        require(\r\n            msg.sender == orgAddress,\r\n            \"only the organization can end the game\"\r\n        );\r\n        require(live == false, \"The game is live\");\r\n        require(completed == true, \"The game has not been completed\");\r\n        require(block.timestamp > gameTime, \"Game is still in progress\");\r\n\r\n        for (i = 1; i <= winners.length; i++) {\r\n            winners[i].transfer(winnerWeights[i]);\r\n        }\r\n        payable(gameOwner).transfer(address(this).balance);\r\n    }\r\n\r\n    function getGameState()\r\n        public\r\n        view\r\n        returns (\r\n            uint256, // gameId,\r\n            address, // gameOwner,\r\n            uint256, // gamePool,\r\n            uint256, // numPlayers,\r\n            uint256, // numCoins,\r\n            uint256, // contractBalance,\r\n            //gameTime - should be in seconds\r\n            uint256, // gameTime,\r\n            uint256, // numWinners,\r\n            uint256, // playerContribution\r\n            uint256 //account balance\r\n        )\r\n    {\r\n        return (\r\n            gameId,\r\n            gameOwner,\r\n            gamePool,\r\n            numPlayers,\r\n            numCoins,\r\n            address(this).balance,\r\n            gameTime,\r\n            numWinners,\r\n            playerContribution,\r\n            address(this).balance\r\n        );\r\n    }\r\n}\r\n",
  "sourcePath": "D:/projects/coinFantasy/CoinFantasy/contracts/CoinGame.sol",
  "compiler": {
    "name": "solc",
    "version": "0.8.0+commit.c7dfd78e.Emscripten.clang"
  },
  "schemaVersion": "3.3.4",
  "updatedAt": "2021-04-15T06:07:00.922Z",
  "networkType": "ethereum",
  "devdoc": {
    "kind": "dev",
    "methods": {},
    "version": 1
  },
  "userdoc": {
    "kind": "user",
    "methods": {},
    "version": 1
  }
}