{
  "contractName": "Game",
  "abi": [
    {
      "inputs": [
        {
          "internalType": "address",
          "name": "_token",
          "type": "address"
        }
      ],
      "stateMutability": "nonpayable",
      "type": "constructor"
    },
    {
      "inputs": [
        {
          "internalType": "uint256",
          "name": "amount",
          "type": "uint256"
        }
      ],
      "name": "buyToken",
      "outputs": [
        {
          "internalType": "bool",
          "name": "",
          "type": "bool"
        }
      ],
      "stateMutability": "nonpayable",
      "type": "function"
    },
    {
      "inputs": [
        {
          "internalType": "uint256",
          "name": "_gameId",
          "type": "uint256"
        },
        {
          "internalType": "uint256",
          "name": "_numCoins",
          "type": "uint256"
        },
        {
          "internalType": "uint256",
          "name": "_gameTime",
          "type": "uint256"
        },
        {
          "internalType": "uint256",
          "name": "_numPlayers",
          "type": "uint256"
        },
        {
          "internalType": "uint256",
          "name": "_numWinners",
          "type": "uint256"
        },
        {
          "internalType": "uint256[]",
          "name": "_winnerWeights",
          "type": "uint256[]"
        },
        {
          "internalType": "uint256",
          "name": "_gamePool",
          "type": "uint256"
        },
        {
          "internalType": "uint256",
          "name": "_lockIn",
          "type": "uint256"
        },
        {
          "internalType": "uint256",
          "name": "_playerContribution",
          "type": "uint256"
        }
      ],
      "name": "pseudoConstructor",
      "outputs": [],
      "stateMutability": "nonpayable",
      "type": "function"
    },
    {
      "inputs": [
        {
          "internalType": "uint256[]",
          "name": "coins",
          "type": "uint256[]"
        },
        {
          "internalType": "uint256[]",
          "name": "weightage",
          "type": "uint256[]"
        },
        {
          "internalType": "uint256",
          "name": "amount",
          "type": "uint256"
        }
      ],
      "name": "joinGame",
      "outputs": [
        {
          "internalType": "uint256",
          "name": "_gameId",
          "type": "uint256"
        }
      ],
      "stateMutability": "nonpayable",
      "type": "function"
    },
    {
      "inputs": [],
      "name": "startGame",
      "outputs": [],
      "stateMutability": "nonpayable",
      "type": "function"
    },
    {
      "inputs": [],
      "name": "endGame",
      "outputs": [
        {
          "internalType": "bool",
          "name": "",
          "type": "bool"
        }
      ],
      "stateMutability": "nonpayable",
      "type": "function"
    },
    {
      "inputs": [
        {
          "internalType": "address[]",
          "name": "winners",
          "type": "address[]"
        }
      ],
      "name": "distributePrize",
      "outputs": [],
      "stateMutability": "nonpayable",
      "type": "function"
    },
    {
      "inputs": [],
      "name": "finalize",
      "outputs": [],
      "stateMutability": "nonpayable",
      "type": "function"
    },
    {
      "inputs": [],
      "name": "getGameState",
      "outputs": [
        {
          "internalType": "uint256",
          "name": "",
          "type": "uint256"
        },
        {
          "internalType": "address",
          "name": "",
          "type": "address"
        },
        {
          "internalType": "uint256",
          "name": "",
          "type": "uint256"
        },
        {
          "internalType": "uint256",
          "name": "",
          "type": "uint256"
        },
        {
          "internalType": "uint256",
          "name": "",
          "type": "uint256"
        },
        {
          "internalType": "uint256",
          "name": "",
          "type": "uint256"
        },
        {
          "internalType": "uint256",
          "name": "",
          "type": "uint256"
        },
        {
          "internalType": "uint256",
          "name": "",
          "type": "uint256"
        },
        {
          "internalType": "uint256",
          "name": "",
          "type": "uint256"
        },
        {
          "internalType": "uint256",
          "name": "",
          "type": "uint256"
        },
        {
          "internalType": "uint256",
          "name": "",
          "type": "uint256"
        },
        {
          "internalType": "uint256",
          "name": "",
          "type": "uint256"
        }
      ],
      "stateMutability": "view",
      "type": "function",
      "constant": true
    }
  ],
  "bytecode": "0x6080604052734cb1777965c956e620648245794145382bdfd620600a60036101000a81548173ffffffffffffffffffffffffffffffffffffffff021916908373ffffffffffffffffffffffffffffffffffffffff160217905550600a60039054906101000a900473ffffffffffffffffffffffffffffffffffffffff16600b60006101000a81548173ffffffffffffffffffffffffffffffffffffffff021916908373ffffffffffffffffffffffffffffffffffffffff16021790555042600c55348015620000cd57600080fd5b50604051620029a4380380620029a48339818101604052810190620000f391906200016d565b6000600a60026101000a81548160ff02191690831515021790555080600e60006101000a81548173ffffffffffffffffffffffffffffffffffffffff021916908373ffffffffffffffffffffffffffffffffffffffff16021790555050620001e7565b6000815190506200016781620001cd565b92915050565b6000602082840312156200018057600080fd5b6000620001908482850162000156565b91505092915050565b6000620001a682620001ad565b9050919050565b600073ffffffffffffffffffffffffffffffffffffffff82169050919050565b620001d88162000199565b8114620001e457600080fd5b50565b6127ad80620001f76000396000f3fe608060405234801561001057600080fd5b50600436106100885760003560e01c8063b7d0628b1161005b578063b7d0628b14610115578063d65ab5f21461013e578063f1d5f91114610148578063f4ff8a991461016457610088565b80632d296bf11461008d5780634bb278f3146100bd5780636cbc2ded146100c7578063719e43d5146100e5575b600080fd5b6100a760048036038101906100a29190611850565b610180565b6040516100b491906120f5565b60405180910390f35b6100c5610374565b005b6100cf610607565b6040516100dc91906120f5565b60405180910390f35b6100ff60048036038101906100fa91906117a8565b61082e565b60405161010c91906123f0565b60405180910390f35b61011d610c3a565b6040516101359c9b9a9998979695949392919061240b565b60405180910390f35b610146610d25565b005b610162600480360381019061015d9190611767565b610e8a565b005b61017e600480360381019061017991906118a2565b611405565b005b60008082116101c4576040517f08c379a00000000000000000000000000000000000000000000000000000000081526004016101bb90612370565b60405180910390fd5b6000600e60009054906101000a900473ffffffffffffffffffffffffffffffffffffffff1673ffffffffffffffffffffffffffffffffffffffff1663dd62ed3e33306040518363ffffffff1660e01b815260040161022392919061206c565b60206040518083038186803b15801561023b57600080fd5b505afa15801561024f573d6000803e3d6000fd5b505050506040513d601f19601f820116820180604052508101906102739190611879565b9050828110156102b8576040517f08c379a00000000000000000000000000000000000000000000000000000000081526004016102af90612250565b60405180910390fd5b600e60009054906101000a900473ffffffffffffffffffffffffffffffffffffffff1673ffffffffffffffffffffffffffffffffffffffff166323b872dd3330866040518463ffffffff1660e01b815260040161031793929190612095565b602060405180830381600087803b15801561033157600080fd5b505af1158015610345573d6000803e3d6000fd5b505050506040513d601f19601f820116820180604052508101906103699190611827565b506001915050919050565b600a60039054906101000a900473ffffffffffffffffffffffffffffffffffffffff1673ffffffffffffffffffffffffffffffffffffffff163373ffffffffffffffffffffffffffffffffffffffff1614610404576040517f08c379a00000000000000000000000000000000000000000000000000000000081526004016103fb90612130565b60405180910390fd5b600b60009054906101000a900473ffffffffffffffffffffffffffffffffffffffff1673ffffffffffffffffffffffffffffffffffffffff166108fc479081150290604051600060405180830381858888f1935050505015801561046c573d6000803e3d6000fd5b506000600e60009054906101000a900473ffffffffffffffffffffffffffffffffffffffff1673ffffffffffffffffffffffffffffffffffffffff166370a08231306040518263ffffffff1660e01b81526004016104ca9190612051565b60206040518083038186803b1580156104e257600080fd5b505afa1580156104f6573d6000803e3d6000fd5b505050506040513d601f19601f8201168201806040525081019061051a9190611879565b9050600e60009054906101000a900473ffffffffffffffffffffffffffffffffffffffff1673ffffffffffffffffffffffffffffffffffffffff1663a9059cbb600a60039054906101000a900473ffffffffffffffffffffffffffffffffffffffff16836040518363ffffffff1660e01b815260040161059b9291906120cc565b602060405180830381600087803b1580156105b557600080fd5b505af11580156105c9573d6000803e3d6000fd5b505050506040513d601f19601f820116820180604052508101906105ed9190611827565b503073ffffffffffffffffffffffffffffffffffffffff16ff5b6000600a60029054906101000a900460ff16610658576040517f08c379a000000000000000000000000000000000000000000000000000000000815260040161064f90612230565b60405180910390fd5b600a60039054906101000a900473ffffffffffffffffffffffffffffffffffffffff1673ffffffffffffffffffffffffffffffffffffffff163373ffffffffffffffffffffffffffffffffffffffff16146106e8576040517f08c379a00000000000000000000000000000000000000000000000000000000081526004016106df90612130565b60405180910390fd5b60011515600a60009054906101000a900460ff1615151461073e576040517f08c379a0000000000000000000000000000000000000000000000000000000008152600401610735906122f0565b60405180910390fd5b60001515600a60019054906101000a900460ff16151514610794576040517f08c379a000000000000000000000000000000000000000000000000000000000815260040161078b90612330565b60405180910390fd5b60016005546107a391906125b5565b600d54426107b1919061260f565b116107f1576040517f08c379a00000000000000000000000000000000000000000000000000000000081526004016107e890612270565b60405180910390fd5b6000600a60006101000a81548160ff0219169083151502179055506001600a60016101000a81548160ff0219169083151502179055506001905090565b6000600a60029054906101000a900460ff1661087f576040517f08c379a000000000000000000000000000000000000000000000000000000000815260040161087690612230565b60405180910390fd5b600954600354106108c5576040517f08c379a00000000000000000000000000000000000000000000000000000000081526004016108bc906123b0565b60405180910390fd5b60001515600a60009054906101000a900460ff1615151461091b576040517f08c379a0000000000000000000000000000000000000000000000000000000008152600401610912906121d0565b60405180910390fd5b60001515600a60019054906101000a900460ff16151514610971576040517f08c379a000000000000000000000000000000000000000000000000000000000815260040161096890612290565b60405180910390fd5b6007548210156109b6576040517f08c379a00000000000000000000000000000000000000000000000000000000081526004016109ad906122d0565b60405180910390fd5b600454845110156109fc576040517f08c379a00000000000000000000000000000000000000000000000000000000081526004016109f390612310565b60405180910390fd5b6000835111610a40576040517f08c379a0000000000000000000000000000000000000000000000000000000008152600401610a3790612190565b60405180910390fd5b8351835114610a84576040517f08c379a0000000000000000000000000000000000000000000000000000000008152600401610a7b906122b0565b60405180910390fd5b6000805b8451811015610af257848181518110610aca577f4e487b7100000000000000000000000000000000000000000000000000000000600052603260045260246000fd5b602002602001015182610add919061255f565b91508080610aea9061268b565b915050610a88565b50600081118015610b035750606481105b610b42576040517f08c379a0000000000000000000000000000000000000000000000000000000008152600401610b39906123d0565b60405180910390fd5b6000600f600060036000815480929190610b5b9061268b565b9190505581526020019081526020016000209050338160000160006101000a81548173ffffffffffffffffffffffffffffffffffffffff021916908373ffffffffffffffffffffffffffffffffffffffff16021790555085816001019080519060200190610bca92919061157d565b5084816002019080519060200190610be392919061157d565b50610bed84610180565b610c2c576040517f08c379a0000000000000000000000000000000000000000000000000000000008152600401610c2390612150565b60405180910390fd5b600054925050509392505050565b600080600080600080600080600080600080600a60029054906101000a900460ff16610c9b576040517f08c379a0000000000000000000000000000000000000000000000000000000008152600401610c9290612110565b60405180910390fd5b600054600160009054906101000a900473ffffffffffffffffffffffffffffffffffffffff166002546003546004544760055460065460075447600d54600d5442610ce6919061260f565b6001600554610cf591906125b5565b610cff919061260f565b9b509b509b509b509b509b509b509b509b509b509b509b50909192939495969798999a9b565b600a60029054906101000a900460ff16610d74576040517f08c379a0000000000000000000000000000000000000000000000000000000008152600401610d6b90612230565b60405180910390fd5b60095460035414610dba576040517f08c379a0000000000000000000000000000000000000000000000000000000008152600401610db1906121b0565b60405180910390fd5b600a60039054906101000a900473ffffffffffffffffffffffffffffffffffffffff1673ffffffffffffffffffffffffffffffffffffffff163373ffffffffffffffffffffffffffffffffffffffff1614610e4a576040517f08c379a0000000000000000000000000000000000000000000000000000000008152600401610e4190612210565b60405180910390fd5b610258600c5442610e5b919061260f565b1115610e6657600080fd5b6001600a60006101000a81548160ff02191690831515021790555042600d81905550565b600a60029054906101000a900460ff16610ed9576040517f08c379a0000000000000000000000000000000000000000000000000000000008152600401610ed090612230565b60405180910390fd5b6000600654825114610f20576040517f08c379a0000000000000000000000000000000000000000000000000000000008152600401610f1790612350565b60405180910390fd5b600a60039054906101000a900473ffffffffffffffffffffffffffffffffffffffff1673ffffffffffffffffffffffffffffffffffffffff163373ffffffffffffffffffffffffffffffffffffffff1614610fb0576040517f08c379a0000000000000000000000000000000000000000000000000000000008152600401610fa790612130565b60405180910390fd5b60001515600a60009054906101000a900460ff16151514611006576040517f08c379a0000000000000000000000000000000000000000000000000000000008152600401610ffd906121f0565b60405180910390fd5b60011515600a60019054906101000a900460ff1615151461105c576040517f08c379a000000000000000000000000000000000000000000000000000000000815260040161105390612390565b60405180910390fd5b600160055461106b91906125b5565b600d5442611079919061260f565b116110b9576040517f08c379a00000000000000000000000000000000000000000000000000000000081526004016110b090612270565b60405180910390fd5b600090505b815181101561120e57600e60009054906101000a900473ffffffffffffffffffffffffffffffffffffffff1673ffffffffffffffffffffffffffffffffffffffff1663a9059cbb83838151811061113e577f4e487b7100000000000000000000000000000000000000000000000000000000600052603260045260246000fd5b602002602001015160088481548110611180577f4e487b7100000000000000000000000000000000000000000000000000000000600052603260045260246000fd5b90600052602060002001546040518363ffffffff1660e01b81526004016111a89291906120cc565b602060405180830381600087803b1580156111c257600080fd5b505af11580156111d6573d6000803e3d6000fd5b505050506040513d601f19601f820116820180604052508101906111fa9190611827565b5080806112069061268b565b9150506110be565b600160009054906101000a900473ffffffffffffffffffffffffffffffffffffffff1673ffffffffffffffffffffffffffffffffffffffff166108fc479081150290604051600060405180830381858888f19350505050158015611276573d6000803e3d6000fd5b506000600e60009054906101000a900473ffffffffffffffffffffffffffffffffffffffff1673ffffffffffffffffffffffffffffffffffffffff166370a08231306040518263ffffffff1660e01b81526004016112d49190612051565b60206040518083038186803b1580156112ec57600080fd5b505afa158015611300573d6000803e3d6000fd5b505050506040513d601f19601f820116820180604052508101906113249190611879565b9050600e60009054906101000a900473ffffffffffffffffffffffffffffffffffffffff1673ffffffffffffffffffffffffffffffffffffffff1663a9059cbb600160009054906101000a900473ffffffffffffffffffffffffffffffffffffffff16836040518363ffffffff1660e01b81526004016113a59291906120cc565b602060405180830381600087803b1580156113bf57600080fd5b505af11580156113d3573d6000803e3d6000fd5b505050506040513d601f19601f820116820180604052508101906113f79190611827565b50611400610374565b505050565b83518514611448576040517f08c379a000000000000000000000000000000000000000000000000000000000815260040161143f90612170565b60405180910390fd5b836008908051906020019061145e92919061157d565b508860008190555033600160006101000a81548173ffffffffffffffffffffffffffffffffffffffff021916908373ffffffffffffffffffffffffffffffffffffffff16021790555085600981905550600060038190555087600481905550866005819055508460068190555082600281905550806007819055506000600a60006101000a81548160ff0219169083151502179055506000600a60016101000a81548160ff02191690831515021790555061151882610180565b611557576040517f08c379a000000000000000000000000000000000000000000000000000000000815260040161154e90612150565b60405180910390fd5b6001600a60026101000a81548160ff021916908315150217905550505050505050505050565b8280548282559060005260206000209081019282156115b9579160200282015b828111156115b857825182559160200191906001019061159d565b5b5090506115c691906115ca565b5090565b5b808211156115e35760008160009055506001016115cb565b5090565b60006115fa6115f5846124f6565b6124c5565b9050808382526020820190508285602086028201111561161957600080fd5b60005b85811015611649578161162f88826116bf565b84526020840193506020830192505060018101905061161c565b5050509392505050565b600061166661166184612522565b6124c5565b9050808382526020820190508285602086028201111561168557600080fd5b60005b858110156116b5578161169b888261173d565b845260208401935060208301925050600181019050611688565b5050509392505050565b6000813590506116ce81612732565b92915050565b600082601f8301126116e557600080fd5b81356116f58482602086016115e7565b91505092915050565b600082601f83011261170f57600080fd5b813561171f848260208601611653565b91505092915050565b60008151905061173781612749565b92915050565b60008135905061174c81612760565b92915050565b60008151905061176181612760565b92915050565b60006020828403121561177957600080fd5b600082013567ffffffffffffffff81111561179357600080fd5b61179f848285016116d4565b91505092915050565b6000806000606084860312156117bd57600080fd5b600084013567ffffffffffffffff8111156117d757600080fd5b6117e3868287016116fe565b935050602084013567ffffffffffffffff81111561180057600080fd5b61180c868287016116fe565b925050604061181d8682870161173d565b9150509250925092565b60006020828403121561183957600080fd5b600061184784828501611728565b91505092915050565b60006020828403121561186257600080fd5b60006118708482850161173d565b91505092915050565b60006020828403121561188b57600080fd5b600061189984828501611752565b91505092915050565b60008060008060008060008060006101208a8c0312156118c157600080fd5b60006118cf8c828d0161173d565b99505060206118e08c828d0161173d565b98505060406118f18c828d0161173d565b97505060606119028c828d0161173d565b96505060806119138c828d0161173d565b95505060a08a013567ffffffffffffffff81111561193057600080fd5b61193c8c828d016116fe565b94505060c061194d8c828d0161173d565b93505060e061195e8c828d0161173d565b9250506101006119708c828d0161173d565b9150509295985092959850929598565b61198981612643565b82525050565b61199881612655565b82525050565b60006119ab60198361254e565b91507f5468652067616d65206973206e6f7420616374697661746564000000000000006000830152602082019050919050565b60006119eb60268361254e565b91507f6f6e6c7920746865206f7267616e697a6174696f6e2063616e20656e6420746860008301527f652067616d6500000000000000000000000000000000000000000000000000006020830152604082019050919050565b6000611a5160188361254e565b91507f546f6b656e207472616e73616374696f6e206661696c656400000000000000006000830152602082019050919050565b6000611a91603d8361254e565b91507f4e756d626572206f662077696e6e65727320646f65736e2774206d617463682060008301527f776974682074686520776569676874616765206f662077696e6e6572730000006020830152604082019050919050565b6000611af7601f8361254e565b91507f57656967687461676520666f7220636f696e73206973206e6f742073656e74006000830152602082019050919050565b6000611b37601e8361254e565b91507f4d69736d6174636820696e206e756d626572206f6620706c61796572732e00006000830152602082019050919050565b6000611b7760148361254e565b91507f5468652067616d652068617320737461727465640000000000000000000000006000830152602082019050919050565b6000611bb760108361254e565b91507f5468652067616d65206973206c697665000000000000000000000000000000006000830152602082019050919050565b6000611bf760288361254e565b91507f6f6e6c7920746865206f7267616e697a6174696f6e2063616e2073746172742060008301527f7468652067616d650000000000000000000000000000000000000000000000006020830152604082019050919050565b6000611c5d601d8361254e565b91507f5468652067616d65206973206e6f7420796574206163746976617465640000006000830152602082019050919050565b6000611c9d60198361254e565b91507f436865636b2074686520746f6b656e20616c6c6f77616e6365000000000000006000830152602082019050919050565b6000611cdd60198361254e565b91507f47616d65206973207374696c6c20696e2070726f6772657373000000000000006000830152602082019050919050565b6000611d1d60128361254e565b91507f5468652067616d652068617320656e64656400000000000000000000000000006000830152602082019050919050565b6000611d5d60268361254e565b91507f57656967687461676520666f7220616c6c20636f696e73206973206e6f74207060008301527f726573656e7400000000000000000000000000000000000000000000000000006020830152604082019050919050565b6000611dc360388361254e565b91507f506c6179657220686173206e6f7420636f6e747269627574656420746865206560008301527f7861637420616d6f756e7420666f72207468652067616d6500000000000000006020830152604082019050919050565b6000611e2960148361254e565b91507f5468652067616d65206973206e6f74206c6976650000000000000000000000006000830152602082019050919050565b6000611e6960238361254e565b91507f596f75206861766520746f2063686f6f7365206174206c65617374203720636f60008301527f696e7300000000000000000000000000000000000000000000000000000000006020830152604082019050919050565b6000611ecf601e8361254e565b91507f5468652067616d652068617320616c726561647920636f6d706c6574656400006000830152602082019050919050565b6000611f0f601d8361254e565b91507f4d69736d6174636820696e206e756d626572206f662077696e6e6572730000006000830152602082019050919050565b6000611f4f60178361254e565b91507f596f752063616e27742073656e64203020746f6b656e730000000000000000006000830152602082019050919050565b6000611f8f601f8361254e565b91507f5468652067616d6520686173206e6f74206265656e20636f6d706c65746564006000830152602082019050919050565b6000611fcf60198361254e565b91507f54686520706c6179657220636f756e74207265616368656421000000000000006000830152602082019050919050565b600061200f60178361254e565b91507f576569676874616765206973206e6f742070726f7065720000000000000000006000830152602082019050919050565b61204b81612681565b82525050565b60006020820190506120666000830184611980565b92915050565b60006040820190506120816000830185611980565b61208e6020830184611980565b9392505050565b60006060820190506120aa6000830186611980565b6120b76020830185611980565b6120c46040830184612042565b949350505050565b60006040820190506120e16000830185611980565b6120ee6020830184612042565b9392505050565b600060208201905061210a600083018461198f565b92915050565b600060208201905081810360008301526121298161199e565b9050919050565b60006020820190508181036000830152612149816119de565b9050919050565b6000602082019050818103600083015261216981611a44565b9050919050565b6000602082019050818103600083015261218981611a84565b9050919050565b600060208201905081810360008301526121a981611aea565b9050919050565b600060208201905081810360008301526121c981611b2a565b9050919050565b600060208201905081810360008301526121e981611b6a565b9050919050565b6000602082019050818103600083015261220981611baa565b9050919050565b6000602082019050818103600083015261222981611bea565b9050919050565b6000602082019050818103600083015261224981611c50565b9050919050565b6000602082019050818103600083015261226981611c90565b9050919050565b6000602082019050818103600083015261228981611cd0565b9050919050565b600060208201905081810360008301526122a981611d10565b9050919050565b600060208201905081810360008301526122c981611d50565b9050919050565b600060208201905081810360008301526122e981611db6565b9050919050565b6000602082019050818103600083015261230981611e1c565b9050919050565b6000602082019050818103600083015261232981611e5c565b9050919050565b6000602082019050818103600083015261234981611ec2565b9050919050565b6000602082019050818103600083015261236981611f02565b9050919050565b6000602082019050818103600083015261238981611f42565b9050919050565b600060208201905081810360008301526123a981611f82565b9050919050565b600060208201905081810360008301526123c981611fc2565b9050919050565b600060208201905081810360008301526123e981612002565b9050919050565b60006020820190506124056000830184612042565b92915050565b600061018082019050612421600083018f612042565b61242e602083018e611980565b61243b604083018d612042565b612448606083018c612042565b612455608083018b612042565b61246260a083018a612042565b61246f60c0830189612042565b61247c60e0830188612042565b61248a610100830187612042565b612498610120830186612042565b6124a6610140830185612042565b6124b4610160830184612042565b9d9c50505050505050505050505050565b6000604051905081810181811067ffffffffffffffff821117156124ec576124eb612703565b5b8060405250919050565b600067ffffffffffffffff82111561251157612510612703565b5b602082029050602081019050919050565b600067ffffffffffffffff82111561253d5761253c612703565b5b602082029050602081019050919050565b600082825260208201905092915050565b600061256a82612681565b915061257583612681565b9250827fffffffffffffffffffffffffffffffffffffffffffffffffffffffffffffffff038211156125aa576125a96126d4565b5b828201905092915050565b60006125c082612681565b91506125cb83612681565b9250817fffffffffffffffffffffffffffffffffffffffffffffffffffffffffffffffff0483118215151615612604576126036126d4565b5b828202905092915050565b600061261a82612681565b915061262583612681565b925082821015612638576126376126d4565b5b828203905092915050565b600061264e82612661565b9050919050565b60008115159050919050565b600073ffffffffffffffffffffffffffffffffffffffff82169050919050565b6000819050919050565b600061269682612681565b91507fffffffffffffffffffffffffffffffffffffffffffffffffffffffffffffffff8214156126c9576126c86126d4565b5b600182019050919050565b7f4e487b7100000000000000000000000000000000000000000000000000000000600052601160045260246000fd5b7f4e487b7100000000000000000000000000000000000000000000000000000000600052604160045260246000fd5b61273b81612643565b811461274657600080fd5b50565b61275281612655565b811461275d57600080fd5b50565b61276981612681565b811461277457600080fd5b5056fea2646970667358221220bed7c7646d894b7824ba2bd08c3b73591d97806e6a1afdb8f364db2e5ee3d7de64736f6c63430008000033",
  "immutableReferences": {},
  "source": "// Coin Fantasy Game\r\n// SPDX-License-Identifier: CoinFantasy Game\r\n\r\npragma solidity ^0.8.0;\r\n\r\nimport \"@openzeppelin/contracts/token/ERC20/ERC20.sol\";\r\n\r\n\r\ncontract Game{\r\n    uint256 gameId;\r\n    address gameOwner;\r\n    uint256 gamePool;\r\n    uint256 curNumPlayers;\r\n    uint256 numCoins;\r\n    uint256 gameTime;\r\n    uint256 numWinners;\r\n    uint256 playerContribution;\r\n    uint256[] winnerWeights;\r\n    uint256 numPlayers;\r\n    bool live;\r\n    bool completed;\r\n    bool activated;\r\n    address orgAddress = 0x4CB1777965c956E620648245794145382Bdfd620;\r\n    address payable orgWallet = payable(address(orgAddress));\r\n    uint256 createdTime = block.timestamp;\r\n    uint256 startTime;\r\n    ERC20 usdc;\r\n\r\n    struct Player {\r\n        address player;\r\n        uint256[] coins;\r\n        uint256[] weightage;\r\n    }\r\n\r\n    mapping(uint256 => Player) players;\r\n\r\n    constructor(\r\n        address _token\r\n    ){\r\n        activated = false;\r\n        usdc = ERC20(_token);\r\n    }\r\n\r\n    function buyToken(uint256 amount) public returns (bool) {\r\n        require(amount > 0, \"You can't send 0 tokens\");\r\n        uint256 allowance = usdc.allowance(msg.sender, address(this));\r\n        require(allowance >= amount, \"Check the token allowance\");\r\n        usdc.transferFrom(msg.sender, address(this), amount);\r\n        return true;\r\n    }\r\n\r\n    function pseudoConstructor(\r\n        uint256 _gameId,//                      -0\r\n        uint256 _numCoins,//                    -1\r\n        uint256 _gameTime,//                    -2\r\n        uint256 _numPlayers,//                  -3\r\n        uint256 _numWinners,//                  -4\r\n        uint256[] memory _winnerWeights,//      -5\r\n        uint256 _gamePool,//                    -6\r\n        uint256 _lockIn,//                      -7\r\n        uint256 _playerContribution//           -8\r\n    ) public {\r\n\r\n        require(\r\n            _numWinners == _winnerWeights.length,\r\n            \"Number of winners doesn't match with the weightage of winners\"\r\n        );\r\n\r\n        winnerWeights = _winnerWeights;\r\n\r\n        gameId = _gameId;\r\n        gameOwner = msg.sender;\r\n        numPlayers = _numPlayers;\r\n        curNumPlayers = 0;\r\n        numCoins = _numCoins;\r\n        gameTime = _gameTime;\r\n        numWinners = _numWinners;   \r\n        gamePool = _gamePool;\r\n        playerContribution = _playerContribution;\r\n        live = false;\r\n        completed = false;\r\n        require(buyToken(_lockIn), \"Token transaction failed\");\r\n        activated = true;\r\n    }\r\n\r\n  \r\n\r\n\r\n   \r\n\r\n    function joinGame(uint256[] memory coins, uint256[] memory weightage, uint256 amount)\r\n        public\r\n        returns (uint256 _gameId)\r\n    {\r\n        require(activated, \"The game is not yet activated\");\r\n        require(curNumPlayers < numPlayers, \"The player count reached!\");\r\n        require(live == false, \"The game has started\");\r\n        require(completed == false, \"The game has ended\");\r\n        require(\r\n            amount >= playerContribution,\r\n            \"Player has not contributed the exact amount for the game\"\r\n        );\r\n        require(\r\n            coins.length >= numCoins,\r\n            \"You have to choose at least 7 coins\"\r\n        );\r\n        require(weightage.length > 0, \"Weightage for coins is not sent\");\r\n        require(\r\n            weightage.length == coins.length,\r\n            \"Weightage for all coins is not present\"\r\n        );\r\n\r\n        \r\n\r\n        uint256 totalWeightage = 0;\r\n        for (uint256 i = 0; i < weightage.length; i++) {\r\n            totalWeightage += weightage[i];\r\n        }\r\n\r\n        require(\r\n            totalWeightage > 0 && totalWeightage < 100,\r\n            \"Weightage is not proper\"\r\n        );\r\n\r\n        Player storage newPlayer = players[curNumPlayers++];\r\n        newPlayer.player = msg.sender;\r\n        newPlayer.coins = coins;\r\n        newPlayer.weightage = weightage;\r\n\r\n        require(buyToken(amount), \"Token transaction failed\");\r\n\r\n        return gameId;\r\n    }\r\n\r\n     function startGame() public {\r\n        require(activated, \"The game is not yet activated\");\r\n        require(curNumPlayers == numPlayers, \"Mismatch in number of players.\");\r\n        require(\r\n            msg.sender == orgAddress,\r\n            \"only the organization can start the game\"\r\n        );\r\n        require(block.timestamp - createdTime <= 10 minutes);\r\n        live = true;\r\n        startTime = block.timestamp;\r\n    }\r\n\r\n    \r\n\r\n    function endGame() public returns (bool) {\r\n        require(activated, \"The game is not yet activated\");\r\n        require(\r\n            msg.sender == orgAddress,\r\n            \"only the organization can end the game\"\r\n        );\r\n        require(live == true, \"The game is not live\");\r\n        require(completed == false, \"The game has already completed\");\r\n        require(\r\n            block.timestamp - startTime > gameTime * 1,\r\n            \"Game is still in progress\"\r\n        );\r\n\r\n        live = false;\r\n        completed = true;\r\n\r\n        return true;\r\n    }\r\n\r\n    function distributePrize(address[] memory winners) public {\r\n        require(activated, \"The game is not yet activated\");\r\n        uint256 i;\r\n        require(winners.length == numWinners, \"Mismatch in number of winners\");\r\n        require(\r\n            msg.sender == orgAddress,\r\n            \"only the organization can end the game\"\r\n        );\r\n        require(live == false, \"The game is live\");\r\n        require(completed == true, \"The game has not been completed\");\r\n        require(\r\n            block.timestamp - startTime > gameTime * 1,\r\n            \"Game is still in progress\"\r\n        );\r\n\r\n        for (i = 0; i < winners.length; i++) {\r\n            usdc.transfer(winners[i], winnerWeights[i]);\r\n        }\r\n        payable(gameOwner).transfer(address(this).balance);\r\n        uint256 balance = usdc.balanceOf(address(this));\r\n        usdc.transfer(gameOwner, balance);\r\n        finalize();\r\n    }\r\n\r\n    function finalize() public {\r\n        require(\r\n            msg.sender == orgAddress,\r\n            \"only the organization can end the game\"\r\n        );\r\n        orgWallet.transfer(address(this).balance);\r\n        uint256 rem_balance = usdc.balanceOf(address(this));\r\n        usdc.transfer(orgAddress, rem_balance);\r\n        \r\n        selfdestruct(payable(address(this)));\r\n        \r\n    }\r\n\r\n    function getGameState()\r\n        public\r\n        view\r\n        returns (\r\n            uint256,// gameId,                  -0\r\n            address,// gameOwner,               -1\r\n            uint256,// gamePool,                -2\r\n            uint256,// numPlayers,              -3\r\n            uint256,// numCoins,                -4\r\n            uint256,// contractBalance,         -5\r\n            //gameTime - should be in seconds\r\n            uint256,// gameTime,                -6\r\n            uint256,// numWinners,              -7\r\n            uint256,// playerContribution       -8\r\n            uint256,//account balance           -9\r\n            uint256,//startTime                 -10\r\n            uint256//ends in                    -11\r\n            // bool,   //live                   -12\r\n            // bool    //completed              -13\r\n        )\r\n    {\r\n        require(activated, \"The game is not activated\");\r\n        return (\r\n            gameId,\r\n            gameOwner,\r\n            gamePool,\r\n            curNumPlayers,\r\n            numCoins,\r\n            address(this).balance,\r\n            gameTime,\r\n            numWinners,\r\n            playerContribution,\r\n            address(this).balance,\r\n            startTime,\r\n            gameTime * 1 - (block.timestamp - startTime)\r\n            // live,\r\n            // completed\r\n        );\r\n    }\r\n}\r\n",
  "sourcePath": "D:/projects/coinFantasy/CoinFantasy/contracts/CoinGame.sol",
  "compiler": {
    "name": "solc",
    "version": "0.8.0+commit.c7dfd78e.Emscripten.clang"
  },
  "schemaVersion": "3.3.4",
  "updatedAt": "2021-05-03T07:12:00.269Z",
  "networkType": "ethereum",
  "devdoc": {
    "kind": "dev",
    "methods": {},
    "version": 1
  },
  "userdoc": {
    "kind": "user",
    "methods": {},
    "version": 1
  }
}