{
  "contractName": "Game",
  "abi": [
    {
      "inputs": [
        {
          "internalType": "address",
          "name": "_token",
          "type": "address"
        }
      ],
      "stateMutability": "nonpayable",
      "type": "constructor"
    },
    {
      "inputs": [
        {
          "internalType": "uint256",
          "name": "_gameId",
          "type": "uint256"
        },
        {
          "internalType": "uint256",
          "name": "_numCoins",
          "type": "uint256"
        },
        {
          "internalType": "uint256",
          "name": "_gameTime",
          "type": "uint256"
        },
        {
          "internalType": "uint256",
          "name": "_waitTime",
          "type": "uint256"
        },
        {
          "internalType": "uint256",
          "name": "_numPlayers",
          "type": "uint256"
        },
        {
          "internalType": "uint256",
          "name": "_numWinners",
          "type": "uint256"
        },
        {
          "internalType": "uint256[]",
          "name": "_winnerWeights",
          "type": "uint256[]"
        },
        {
          "internalType": "uint256",
          "name": "_gamePool",
          "type": "uint256"
        },
        {
          "internalType": "uint256",
          "name": "_lockIn",
          "type": "uint256"
        },
        {
          "internalType": "uint256",
          "name": "_playerContribution",
          "type": "uint256"
        }
      ],
      "name": "pseudoConstructor",
      "outputs": [],
      "stateMutability": "nonpayable",
      "type": "function"
    },
    {
      "inputs": [
        {
          "internalType": "uint256",
          "name": "amount",
          "type": "uint256"
        }
      ],
      "name": "buyToken",
      "outputs": [
        {
          "internalType": "bool",
          "name": "",
          "type": "bool"
        }
      ],
      "stateMutability": "nonpayable",
      "type": "function"
    },
    {
      "inputs": [
        {
          "internalType": "uint256[]",
          "name": "coins",
          "type": "uint256[]"
        },
        {
          "internalType": "uint256[]",
          "name": "weightage",
          "type": "uint256[]"
        },
        {
          "internalType": "uint256",
          "name": "amount",
          "type": "uint256"
        }
      ],
      "name": "joinGame",
      "outputs": [
        {
          "internalType": "uint256",
          "name": "_gameId",
          "type": "uint256"
        }
      ],
      "stateMutability": "nonpayable",
      "type": "function"
    },
    {
      "inputs": [],
      "name": "expireGame",
      "outputs": [],
      "stateMutability": "nonpayable",
      "type": "function"
    },
    {
      "inputs": [],
      "name": "startGame",
      "outputs": [],
      "stateMutability": "nonpayable",
      "type": "function"
    },
    {
      "inputs": [],
      "name": "endGame",
      "outputs": [
        {
          "internalType": "bool",
          "name": "",
          "type": "bool"
        }
      ],
      "stateMutability": "nonpayable",
      "type": "function"
    },
    {
      "inputs": [
        {
          "internalType": "address[]",
          "name": "winners",
          "type": "address[]"
        }
      ],
      "name": "distributePrize",
      "outputs": [],
      "stateMutability": "nonpayable",
      "type": "function"
    },
    {
      "inputs": [],
      "name": "finalize",
      "outputs": [],
      "stateMutability": "nonpayable",
      "type": "function"
    },
    {
      "inputs": [],
      "name": "getGameState",
      "outputs": [
        {
          "internalType": "uint256",
          "name": "",
          "type": "uint256"
        },
        {
          "internalType": "address",
          "name": "",
          "type": "address"
        },
        {
          "internalType": "uint256",
          "name": "",
          "type": "uint256"
        },
        {
          "internalType": "uint256",
          "name": "",
          "type": "uint256"
        },
        {
          "internalType": "uint256",
          "name": "",
          "type": "uint256"
        },
        {
          "internalType": "uint256",
          "name": "",
          "type": "uint256"
        },
        {
          "internalType": "uint256",
          "name": "",
          "type": "uint256"
        },
        {
          "internalType": "uint256",
          "name": "",
          "type": "uint256"
        },
        {
          "internalType": "uint256",
          "name": "",
          "type": "uint256"
        },
        {
          "internalType": "uint256",
          "name": "",
          "type": "uint256"
        },
        {
          "internalType": "uint256",
          "name": "",
          "type": "uint256"
        },
        {
          "internalType": "uint256",
          "name": "",
          "type": "uint256"
        }
      ],
      "stateMutability": "view",
      "type": "function",
      "constant": true
    }
  ],
  "bytecode": "0x608060405242600b55731c4804d9fa63e90ded85afcce779b9dd67e00f3a600d60036101000a81548173ffffffffffffffffffffffffffffffffffffffff021916908373ffffffffffffffffffffffffffffffffffffffff160217905550600d60039054906101000a900473ffffffffffffffffffffffffffffffffffffffff16600e60006101000a81548173ffffffffffffffffffffffffffffffffffffffff021916908373ffffffffffffffffffffffffffffffffffffffff160217905550348015620000cd57600080fd5b5060405162002fb738038062002fb78339818101604052810190620000f39190620001ae565b6000600d60026101000a81548160ff02191690831515021790555080600f60006101000a81548173ffffffffffffffffffffffffffffffffffffffff021916908373ffffffffffffffffffffffffffffffffffffffff16021790555033600d60036101000a81548173ffffffffffffffffffffffffffffffffffffffff021916908373ffffffffffffffffffffffffffffffffffffffff1602179055505062000228565b600081519050620001a8816200020e565b92915050565b600060208284031215620001c157600080fd5b6000620001d18482850162000197565b91505092915050565b6000620001e782620001ee565b9050919050565b600073ffffffffffffffffffffffffffffffffffffffff82169050919050565b6200021981620001da565b81146200022557600080fd5b50565b612d7f80620002386000396000f3fe608060405234801561001057600080fd5b50600436106100935760003560e01c8063719e43d511610066578063719e43d51461010c578063b7d0628b1461013c578063d65ab5f214610165578063e435e3701461016f578063f1d5f9111461017957610093565b80631c0e8ce4146100985780632d296bf1146100b45780634bb278f3146100e45780636cbc2ded146100ee575b600080fd5b6100b260048036038101906100ad9190611c33565b610195565b005b6100ce60048036038101906100c99190611be1565b610321565b6040516100db9190612627565b60405180910390f35b6100ec610515565b005b6100f66107a8565b6040516101039190612627565b60405180910390f35b61012660048036038101906101219190611b39565b6109cf565b60405161013391906129c2565b60405180910390f35b610144610e6c565b60405161015c9c9b9a999897969594939291906129dd565b60405180910390f35b61016d610f57565b005b6101776110fe565b005b610193600480360381019061018e9190611af8565b611393565b005b3373ffffffffffffffffffffffffffffffffffffffff16600160009054906101000a900473ffffffffffffffffffffffffffffffffffffffff1673ffffffffffffffffffffffffffffffffffffffff1614610225576040517f08c379a000000000000000000000000000000000000000000000000000000000815260040161021c906129a2565b60405180910390fd5b836009908051906020019061023b92919061190e565b508960008190555085600a8190555060006003819055508860048190555087600581905550866006819055508460078190555082600281905550806008819055506000600d60006101000a81548160ff0219169083151502179055506000600d60016101000a81548160ff0219169083151502179055506102bb82610321565b6102fa576040517f08c379a00000000000000000000000000000000000000000000000000000000081526004016102f1906126a2565b60405180910390fd5b6001600d60026101000a81548160ff02191690831515021790555050505050505050505050565b6000808211610365576040517f08c379a000000000000000000000000000000000000000000000000000000000815260040161035c906128c2565b60405180910390fd5b6000600f60009054906101000a900473ffffffffffffffffffffffffffffffffffffffff1673ffffffffffffffffffffffffffffffffffffffff1663dd62ed3e33306040518363ffffffff1660e01b81526004016103c492919061259e565b60206040518083038186803b1580156103dc57600080fd5b505afa1580156103f0573d6000803e3d6000fd5b505050506040513d601f19601f820116820180604052508101906104149190611c0a565b905082811015610459576040517f08c379a0000000000000000000000000000000000000000000000000000000008152600401610450906127a2565b60405180910390fd5b600f60009054906101000a900473ffffffffffffffffffffffffffffffffffffffff1673ffffffffffffffffffffffffffffffffffffffff166323b872dd3330866040518463ffffffff1660e01b81526004016104b8939291906125c7565b602060405180830381600087803b1580156104d257600080fd5b505af11580156104e6573d6000803e3d6000fd5b505050506040513d601f19601f8201168201806040525081019061050a9190611bb8565b506001915050919050565b600d60039054906101000a900473ffffffffffffffffffffffffffffffffffffffff1673ffffffffffffffffffffffffffffffffffffffff163373ffffffffffffffffffffffffffffffffffffffff16146105a5576040517f08c379a000000000000000000000000000000000000000000000000000000000815260040161059c90612682565b60405180910390fd5b600e60009054906101000a900473ffffffffffffffffffffffffffffffffffffffff1673ffffffffffffffffffffffffffffffffffffffff166108fc479081150290604051600060405180830381858888f1935050505015801561060d573d6000803e3d6000fd5b506000600f60009054906101000a900473ffffffffffffffffffffffffffffffffffffffff1673ffffffffffffffffffffffffffffffffffffffff166370a08231306040518263ffffffff1660e01b815260040161066b9190612583565b60206040518083038186803b15801561068357600080fd5b505afa158015610697573d6000803e3d6000fd5b505050506040513d601f19601f820116820180604052508101906106bb9190611c0a565b9050600f60009054906101000a900473ffffffffffffffffffffffffffffffffffffffff1673ffffffffffffffffffffffffffffffffffffffff1663a9059cbb600d60039054906101000a900473ffffffffffffffffffffffffffffffffffffffff16836040518363ffffffff1660e01b815260040161073c9291906125fe565b602060405180830381600087803b15801561075657600080fd5b505af115801561076a573d6000803e3d6000fd5b505050506040513d601f19601f8201168201806040525081019061078e9190611bb8565b503073ffffffffffffffffffffffffffffffffffffffff16ff5b6000600d60029054906101000a900460ff166107f9576040517f08c379a00000000000000000000000000000000000000000000000000000000081526004016107f090612782565b60405180910390fd5b600d60039054906101000a900473ffffffffffffffffffffffffffffffffffffffff1673ffffffffffffffffffffffffffffffffffffffff163373ffffffffffffffffffffffffffffffffffffffff1614610889576040517f08c379a000000000000000000000000000000000000000000000000000000000815260040161088090612682565b60405180910390fd5b60011515600d60009054906101000a900460ff161515146108df576040517f08c379a00000000000000000000000000000000000000000000000000000000081526004016108d690612842565b60405180910390fd5b60001515600d60019054906101000a900460ff16151514610935576040517f08c379a000000000000000000000000000000000000000000000000000000000815260040161092c90612882565b60405180910390fd5b60016005546109449190612b87565b600c54426109529190612be1565b11610992576040517f08c379a0000000000000000000000000000000000000000000000000000000008152600401610989906127c2565b60405180910390fd5b6000600d60006101000a81548160ff0219169083151502179055506001600d60016101000a81548160ff0219169083151502179055506001905090565b60003373ffffffffffffffffffffffffffffffffffffffff16600160009054906101000a900473ffffffffffffffffffffffffffffffffffffffff1673ffffffffffffffffffffffffffffffffffffffff161415610a62576040517f08c379a0000000000000000000000000000000000000000000000000000000008152600401610a5990612922565b60405180910390fd5b600d60029054906101000a900460ff16610ab1576040517f08c379a0000000000000000000000000000000000000000000000000000000008152600401610aa890612782565b60405180910390fd5b600a5460035410610af7576040517f08c379a0000000000000000000000000000000000000000000000000000000008152600401610aee90612942565b60405180910390fd5b60001515600d60009054906101000a900460ff16151514610b4d576040517f08c379a0000000000000000000000000000000000000000000000000000000008152600401610b4490612702565b60405180910390fd5b60001515600d60019054906101000a900460ff16151514610ba3576040517f08c379a0000000000000000000000000000000000000000000000000000000008152600401610b9a906127e2565b60405180910390fd5b600854821015610be8576040517f08c379a0000000000000000000000000000000000000000000000000000000008152600401610bdf90612822565b60405180910390fd5b60045484511015610c2e576040517f08c379a0000000000000000000000000000000000000000000000000000000008152600401610c2590612862565b60405180910390fd5b6000835111610c72576040517f08c379a0000000000000000000000000000000000000000000000000000000008152600401610c69906126c2565b60405180910390fd5b8351835114610cb6576040517f08c379a0000000000000000000000000000000000000000000000000000000008152600401610cad90612802565b60405180910390fd5b6000805b8451811015610d2457848181518110610cfc577f4e487b7100000000000000000000000000000000000000000000000000000000600052603260045260246000fd5b602002602001015182610d0f9190612b31565b91508080610d1c90612c5d565b915050610cba565b50600081118015610d355750606481105b610d74576040517f08c379a0000000000000000000000000000000000000000000000000000000008152600401610d6b90612962565b60405180910390fd5b60006010600060036000815480929190610d8d90612c5d565b9190505581526020019081526020016000209050338160000160006101000a81548173ffffffffffffffffffffffffffffffffffffffff021916908373ffffffffffffffffffffffffffffffffffffffff16021790555085816001019080519060200190610dfc92919061190e565b5084816002019080519060200190610e1592919061190e565b50610e1f84610321565b610e5e576040517f08c379a0000000000000000000000000000000000000000000000000000000008152600401610e55906126a2565b60405180910390fd5b600054925050509392505050565b600080600080600080600080600080600080600d60029054906101000a900460ff16610ecd576040517f08c379a0000000000000000000000000000000000000000000000000000000008152600401610ec490612642565b60405180910390fd5b600054600160009054906101000a900473ffffffffffffffffffffffffffffffffffffffff166002546003546004544760055460075460085447600c54600c5442610f189190612be1565b6001600554610f279190612b87565b610f319190612be1565b9b509b509b509b509b509b509b509b509b509b509b509b50909192939495969798999a9b565b600d60029054906101000a900460ff16610fa6576040517f08c379a0000000000000000000000000000000000000000000000000000000008152600401610f9d90612782565b60405180910390fd5b600a5460035414610fec576040517f08c379a0000000000000000000000000000000000000000000000000000000008152600401610fe3906126e2565b60405180910390fd5b600d60039054906101000a900473ffffffffffffffffffffffffffffffffffffffff1673ffffffffffffffffffffffffffffffffffffffff163373ffffffffffffffffffffffffffffffffffffffff161461107c576040517f08c379a000000000000000000000000000000000000000000000000000000000815260040161107390612762565b60405180910390fd5b600160065461108b9190612b87565b600b54426110999190612be1565b11156110da576040517f08c379a00000000000000000000000000000000000000000000000000000000081526004016110d190612982565b60405180910390fd5b6001600d60006101000a81548160ff02191690831515021790555042600c81905550565b600d60029054906101000a900460ff1661114d576040517f08c379a000000000000000000000000000000000000000000000000000000000815260040161114490612782565b60405180910390fd5b600a5460035410611193576040517f08c379a000000000000000000000000000000000000000000000000000000000815260040161118a90612662565b60405180910390fd5b600d60039054906101000a900473ffffffffffffffffffffffffffffffffffffffff1673ffffffffffffffffffffffffffffffffffffffff163373ffffffffffffffffffffffffffffffffffffffff1614611223576040517f08c379a000000000000000000000000000000000000000000000000000000000815260040161121a90612722565b60405180910390fd5b60016006546112329190612b87565b600b54426112409190612be1565b11611280576040517f08c379a000000000000000000000000000000000000000000000000000000000815260040161127790612902565b60405180910390fd5b60005b60035481101561138857600f60009054906101000a900473ffffffffffffffffffffffffffffffffffffffff1673ffffffffffffffffffffffffffffffffffffffff1663a9059cbb6010600084815260200190815260200160002060000160009054906101000a900473ffffffffffffffffffffffffffffffffffffffff166008546040518363ffffffff1660e01b81526004016113229291906125fe565b602060405180830381600087803b15801561133c57600080fd5b505af1158015611350573d6000803e3d6000fd5b505050506040513d601f19601f820116820180604052508101906113749190611bb8565b50808061138090612c5d565b915050611283565b611390610515565b50565b600d60029054906101000a900460ff166113e2576040517f08c379a00000000000000000000000000000000000000000000000000000000081526004016113d990612782565b60405180910390fd5b6000600754825114611429576040517f08c379a0000000000000000000000000000000000000000000000000000000008152600401611420906128a2565b60405180910390fd5b600d60039054906101000a900473ffffffffffffffffffffffffffffffffffffffff1673ffffffffffffffffffffffffffffffffffffffff163373ffffffffffffffffffffffffffffffffffffffff16146114b9576040517f08c379a00000000000000000000000000000000000000000000000000000000081526004016114b090612682565b60405180910390fd5b60001515600d60009054906101000a900460ff1615151461150f576040517f08c379a000000000000000000000000000000000000000000000000000000000815260040161150690612742565b60405180910390fd5b60011515600d60019054906101000a900460ff16151514611565576040517f08c379a000000000000000000000000000000000000000000000000000000000815260040161155c906128e2565b60405180910390fd5b60016005546115749190612b87565b600c54426115829190612be1565b116115c2576040517f08c379a00000000000000000000000000000000000000000000000000000000081526004016115b9906127c2565b60405180910390fd5b600090505b815181101561171757600f60009054906101000a900473ffffffffffffffffffffffffffffffffffffffff1673ffffffffffffffffffffffffffffffffffffffff1663a9059cbb838381518110611647577f4e487b7100000000000000000000000000000000000000000000000000000000600052603260045260246000fd5b602002602001015160098481548110611689577f4e487b7100000000000000000000000000000000000000000000000000000000600052603260045260246000fd5b90600052602060002001546040518363ffffffff1660e01b81526004016116b19291906125fe565b602060405180830381600087803b1580156116cb57600080fd5b505af11580156116df573d6000803e3d6000fd5b505050506040513d601f19601f820116820180604052508101906117039190611bb8565b50808061170f90612c5d565b9150506115c7565b600160009054906101000a900473ffffffffffffffffffffffffffffffffffffffff1673ffffffffffffffffffffffffffffffffffffffff166108fc479081150290604051600060405180830381858888f1935050505015801561177f573d6000803e3d6000fd5b506000600f60009054906101000a900473ffffffffffffffffffffffffffffffffffffffff1673ffffffffffffffffffffffffffffffffffffffff166370a08231306040518263ffffffff1660e01b81526004016117dd9190612583565b60206040518083038186803b1580156117f557600080fd5b505afa158015611809573d6000803e3d6000fd5b505050506040513d601f19601f8201168201806040525081019061182d9190611c0a565b9050600f60009054906101000a900473ffffffffffffffffffffffffffffffffffffffff1673ffffffffffffffffffffffffffffffffffffffff1663a9059cbb600160009054906101000a900473ffffffffffffffffffffffffffffffffffffffff16836040518363ffffffff1660e01b81526004016118ae9291906125fe565b602060405180830381600087803b1580156118c857600080fd5b505af11580156118dc573d6000803e3d6000fd5b505050506040513d601f19601f820116820180604052508101906119009190611bb8565b50611909610515565b505050565b82805482825590600052602060002090810192821561194a579160200282015b8281111561194957825182559160200191906001019061192e565b5b509050611957919061195b565b5090565b5b8082111561197457600081600090555060010161195c565b5090565b600061198b61198684612ac8565b612a97565b905080838252602082019050828560208602820111156119aa57600080fd5b60005b858110156119da57816119c08882611a50565b8452602084019350602083019250506001810190506119ad565b5050509392505050565b60006119f76119f284612af4565b612a97565b90508083825260208201905082856020860282011115611a1657600080fd5b60005b85811015611a465781611a2c8882611ace565b845260208401935060208301925050600181019050611a19565b5050509392505050565b600081359050611a5f81612d04565b92915050565b600082601f830112611a7657600080fd5b8135611a86848260208601611978565b91505092915050565b600082601f830112611aa057600080fd5b8135611ab08482602086016119e4565b91505092915050565b600081519050611ac881612d1b565b92915050565b600081359050611add81612d32565b92915050565b600081519050611af281612d32565b92915050565b600060208284031215611b0a57600080fd5b600082013567ffffffffffffffff811115611b2457600080fd5b611b3084828501611a65565b91505092915050565b600080600060608486031215611b4e57600080fd5b600084013567ffffffffffffffff811115611b6857600080fd5b611b7486828701611a8f565b935050602084013567ffffffffffffffff811115611b9157600080fd5b611b9d86828701611a8f565b9250506040611bae86828701611ace565b9150509250925092565b600060208284031215611bca57600080fd5b6000611bd884828501611ab9565b91505092915050565b600060208284031215611bf357600080fd5b6000611c0184828501611ace565b91505092915050565b600060208284031215611c1c57600080fd5b6000611c2a84828501611ae3565b91505092915050565b6000806000806000806000806000806101408b8d031215611c5357600080fd5b6000611c618d828e01611ace565b9a50506020611c728d828e01611ace565b9950506040611c838d828e01611ace565b9850506060611c948d828e01611ace565b9750506080611ca58d828e01611ace565b96505060a0611cb68d828e01611ace565b95505060c08b013567ffffffffffffffff811115611cd357600080fd5b611cdf8d828e01611a8f565b94505060e0611cf08d828e01611ace565b935050610100611d028d828e01611ace565b925050610120611d148d828e01611ace565b9150509295989b9194979a5092959850565b611d2f81612c15565b82525050565b611d3e81612c27565b82525050565b6000611d51601983612b20565b91507f5468652067616d65206973206e6f7420616374697661746564000000000000006000830152602082019050919050565b6000611d91602283612b20565b91507f5265717569726564206e756d626572206f6620706c617965727320726561636860008301527f65640000000000000000000000000000000000000000000000000000000000006020830152604082019050919050565b6000611df7602683612b20565b91507f6f6e6c7920746865206f7267616e697a6174696f6e2063616e20656e6420746860008301527f652067616d6500000000000000000000000000000000000000000000000000006020830152604082019050919050565b6000611e5d601883612b20565b91507f546f6b656e207472616e73616374696f6e206661696c656400000000000000006000830152602082019050919050565b6000611e9d601f83612b20565b91507f57656967687461676520666f7220636f696e73206973206e6f742073656e74006000830152602082019050919050565b6000611edd601e83612b20565b91507f4d69736d6174636820696e206e756d626572206f6620706c61796572732e00006000830152602082019050919050565b6000611f1d601483612b20565b91507f5468652067616d652068617320737461727465640000000000000000000000006000830152602082019050919050565b6000611f5d602e83612b20565b91507f6f6e6c7920746865206f7267616e697a6174696f6e2063616e2063616c6c206560008301527f78706972652066756e6374696f6e0000000000000000000000000000000000006020830152604082019050919050565b6000611fc3601083612b20565b91507f5468652067616d65206973206c697665000000000000000000000000000000006000830152602082019050919050565b6000612003602883612b20565b91507f6f6e6c7920746865206f7267616e697a6174696f6e2063616e2073746172742060008301527f7468652067616d650000000000000000000000000000000000000000000000006020830152604082019050919050565b6000612069601d83612b20565b91507f5468652067616d65206973206e6f7420796574206163746976617465640000006000830152602082019050919050565b60006120a9601983612b20565b91507f436865636b2074686520746f6b656e20616c6c6f77616e6365000000000000006000830152602082019050919050565b60006120e9601983612b20565b91507f47616d65206973207374696c6c20696e2070726f6772657373000000000000006000830152602082019050919050565b6000612129601283612b20565b91507f5468652067616d652068617320656e64656400000000000000000000000000006000830152602082019050919050565b6000612169602683612b20565b91507f57656967687461676520666f7220616c6c20636f696e73206973206e6f74207060008301527f726573656e7400000000000000000000000000000000000000000000000000006020830152604082019050919050565b60006121cf603883612b20565b91507f506c6179657220686173206e6f7420636f6e747269627574656420746865206560008301527f7861637420616d6f756e7420666f72207468652067616d6500000000000000006020830152604082019050919050565b6000612235601483612b20565b91507f5468652067616d65206973206e6f74206c6976650000000000000000000000006000830152602082019050919050565b6000612275602383612b20565b91507f596f75206861766520746f2063686f6f7365206174206c65617374203720636f60008301527f696e7300000000000000000000000000000000000000000000000000000000006020830152604082019050919050565b60006122db601e83612b20565b91507f5468652067616d652068617320616c726561647920636f6d706c6574656400006000830152602082019050919050565b600061231b601d83612b20565b91507f4d69736d6174636820696e206e756d626572206f662077696e6e6572730000006000830152602082019050919050565b600061235b601783612b20565b91507f596f752063616e27742073656e64203020746f6b656e730000000000000000006000830152602082019050919050565b600061239b601f83612b20565b91507f5468652067616d6520686173206e6f74206265656e20636f6d706c65746564006000830152602082019050919050565b60006123db601383612b20565b91507f54696d656f7574206e6f742072656163686564000000000000000000000000006000830152602082019050919050565b600061241b601d83612b20565b91507f67616d654f776e65722063616e2774206a6f696e207468652067616d650000006000830152602082019050919050565b600061245b601983612b20565b91507f54686520706c6179657220636f756e74207265616368656421000000000000006000830152602082019050919050565b600061249b601783612b20565b91507f576569676874616765206973206e6f742070726f7065720000000000000000006000830152602082019050919050565b60006124db600883612b20565b91507f54696d656f7574210000000000000000000000000000000000000000000000006000830152602082019050919050565b600061251b602183612b20565b91507f736f6d656f6e6520656c736520637265617465642074686520636f6e7472616360008301527f74000000000000000000000000000000000000000000000000000000000000006020830152604082019050919050565b61257d81612c53565b82525050565b60006020820190506125986000830184611d26565b92915050565b60006040820190506125b36000830185611d26565b6125c06020830184611d26565b9392505050565b60006060820190506125dc6000830186611d26565b6125e96020830185611d26565b6125f66040830184612574565b949350505050565b60006040820190506126136000830185611d26565b6126206020830184612574565b9392505050565b600060208201905061263c6000830184611d35565b92915050565b6000602082019050818103600083015261265b81611d44565b9050919050565b6000602082019050818103600083015261267b81611d84565b9050919050565b6000602082019050818103600083015261269b81611dea565b9050919050565b600060208201905081810360008301526126bb81611e50565b9050919050565b600060208201905081810360008301526126db81611e90565b9050919050565b600060208201905081810360008301526126fb81611ed0565b9050919050565b6000602082019050818103600083015261271b81611f10565b9050919050565b6000602082019050818103600083015261273b81611f50565b9050919050565b6000602082019050818103600083015261275b81611fb6565b9050919050565b6000602082019050818103600083015261277b81611ff6565b9050919050565b6000602082019050818103600083015261279b8161205c565b9050919050565b600060208201905081810360008301526127bb8161209c565b9050919050565b600060208201905081810360008301526127db816120dc565b9050919050565b600060208201905081810360008301526127fb8161211c565b9050919050565b6000602082019050818103600083015261281b8161215c565b9050919050565b6000602082019050818103600083015261283b816121c2565b9050919050565b6000602082019050818103600083015261285b81612228565b9050919050565b6000602082019050818103600083015261287b81612268565b9050919050565b6000602082019050818103600083015261289b816122ce565b9050919050565b600060208201905081810360008301526128bb8161230e565b9050919050565b600060208201905081810360008301526128db8161234e565b9050919050565b600060208201905081810360008301526128fb8161238e565b9050919050565b6000602082019050818103600083015261291b816123ce565b9050919050565b6000602082019050818103600083015261293b8161240e565b9050919050565b6000602082019050818103600083015261295b8161244e565b9050919050565b6000602082019050818103600083015261297b8161248e565b9050919050565b6000602082019050818103600083015261299b816124ce565b9050919050565b600060208201905081810360008301526129bb8161250e565b9050919050565b60006020820190506129d76000830184612574565b92915050565b6000610180820190506129f3600083018f612574565b612a00602083018e611d26565b612a0d604083018d612574565b612a1a606083018c612574565b612a27608083018b612574565b612a3460a083018a612574565b612a4160c0830189612574565b612a4e60e0830188612574565b612a5c610100830187612574565b612a6a610120830186612574565b612a78610140830185612574565b612a86610160830184612574565b9d9c50505050505050505050505050565b6000604051905081810181811067ffffffffffffffff82111715612abe57612abd612cd5565b5b8060405250919050565b600067ffffffffffffffff821115612ae357612ae2612cd5565b5b602082029050602081019050919050565b600067ffffffffffffffff821115612b0f57612b0e612cd5565b5b602082029050602081019050919050565b600082825260208201905092915050565b6000612b3c82612c53565b9150612b4783612c53565b9250827fffffffffffffffffffffffffffffffffffffffffffffffffffffffffffffffff03821115612b7c57612b7b612ca6565b5b828201905092915050565b6000612b9282612c53565b9150612b9d83612c53565b9250817fffffffffffffffffffffffffffffffffffffffffffffffffffffffffffffffff0483118215151615612bd657612bd5612ca6565b5b828202905092915050565b6000612bec82612c53565b9150612bf783612c53565b925082821015612c0a57612c09612ca6565b5b828203905092915050565b6000612c2082612c33565b9050919050565b60008115159050919050565b600073ffffffffffffffffffffffffffffffffffffffff82169050919050565b6000819050919050565b6000612c6882612c53565b91507fffffffffffffffffffffffffffffffffffffffffffffffffffffffffffffffff821415612c9b57612c9a612ca6565b5b600182019050919050565b7f4e487b7100000000000000000000000000000000000000000000000000000000600052601160045260246000fd5b7f4e487b7100000000000000000000000000000000000000000000000000000000600052604160045260246000fd5b612d0d81612c15565b8114612d1857600080fd5b50565b612d2481612c27565b8114612d2f57600080fd5b50565b612d3b81612c53565b8114612d4657600080fd5b5056fea26469706673582212204b11bee9ef48432b378db925ed348c0b375f2b04396b8c797483d2c8bd77a54b64736f6c63430008000033",
  "immutableReferences": {},
  "source": "// Coin Fantasy Game\r\n// SPDX-License-Identifier: CoinFantasy Game\r\n\r\npragma solidity ^0.8.0;\r\n\r\nimport \"@openzeppelin/contracts/token/ERC20/ERC20.sol\";\r\n\r\n\r\ncontract Game{\r\n    uint256 gameId;\r\n    address gameOwner;\r\n    uint256 gamePool;\r\n    uint256 curNumPlayers;\r\n    uint256 numCoins;\r\n    uint256 gameTime;\r\n    uint256 waitTime;\r\n   \r\n    uint256 numWinners;\r\n    uint256 playerContribution;\r\n    uint256[] winnerWeights;\r\n    uint256 numPlayers;\r\n\r\n    uint256 createdTime = block.timestamp;\r\n    uint256 startTime;\r\n    bool live;\r\n    bool completed;\r\n    bool activated;\r\n    address orgAddress = 0x1c4804d9FA63E90dED85aFcCe779b9dD67E00f3a;\r\n    address payable orgWallet = payable(address(orgAddress));\r\n    \r\n    ERC20 usdc;\r\n\r\n    struct Player {\r\n        address player;\r\n        uint256[] coins;\r\n        uint256[] weightage;\r\n    }\r\n\r\n    mapping(uint256 => Player) players;\r\n\r\n    constructor(\r\n        address _token\r\n    ){\r\n        activated = false;\r\n        usdc = ERC20(_token);\r\n        orgAddress = msg.sender;\r\n    }\r\n\r\n    function pseudoConstructor(\r\n        uint256 _gameId,//                      -0\r\n        uint256 _numCoins,//                    -1\r\n        uint256 _gameTime,//                    -2\r\n        uint256 _waitTime,//                    -3\r\n        uint256 _numPlayers,//                  -4\r\n        uint256 _numWinners,//                  -5\r\n        uint256[] memory _winnerWeights,//      -6\r\n        uint256 _gamePool,//                    -7\r\n        uint256 _lockIn,//                      -8\r\n        uint256 _playerContribution//           -9\r\n    ) public {\r\n\r\n        // require(\r\n        //     _numWinners == _winnerWeights.length,\r\n        //     \"Number of winners doesn't match with the weightage of winners\"\r\n        // );\r\n        require(gameOwner == msg.sender, \"someone else created the contract\");\r\n\r\n\r\n        winnerWeights = _winnerWeights;\r\n\r\n        gameId = _gameId;\r\n        \r\n        numPlayers = _numPlayers;\r\n        curNumPlayers = 0;\r\n        numCoins = _numCoins;\r\n        gameTime = _gameTime;\r\n        waitTime = _waitTime;\r\n        numWinners = _numWinners;   \r\n        gamePool = _gamePool;\r\n        playerContribution = _playerContribution;\r\n        live = false;\r\n        completed = false;\r\n        require(buyToken(_lockIn), \"Token transaction failed\");\r\n        activated = true;\r\n    }\r\n\r\n    function buyToken(uint256 amount) public returns (bool) {\r\n        require(amount > 0, \"You can't send 0 tokens\");\r\n        uint256 allowance = usdc.allowance(msg.sender, address(this));\r\n        require(allowance >= amount, \"Check the token allowance\");\r\n        usdc.transferFrom(msg.sender, address(this), amount);\r\n        return true;\r\n    }\r\n\r\n\r\n    \r\n\r\n    function joinGame(uint256[] memory coins, uint256[] memory weightage, uint256 amount)\r\n        public\r\n        returns (uint256 _gameId)\r\n    {\r\n        require(gameOwner != msg.sender, \"gameOwner can't join the game\");\r\n        require(activated, \"The game is not yet activated\");\r\n        require(curNumPlayers < numPlayers, \"The player count reached!\");\r\n        require(live == false, \"The game has started\");\r\n        require(completed == false, \"The game has ended\");\r\n        require(\r\n            amount >= playerContribution,\r\n            \"Player has not contributed the exact amount for the game\"\r\n        );\r\n        require(\r\n            coins.length >= numCoins,\r\n            \"You have to choose at least 7 coins\"\r\n        );\r\n        require(weightage.length > 0, \"Weightage for coins is not sent\");\r\n        require(\r\n            weightage.length == coins.length,\r\n            \"Weightage for all coins is not present\"\r\n        );\r\n\r\n        \r\n\r\n        uint256 totalWeightage = 0;\r\n        for (uint256 i = 0; i < weightage.length; i++) {\r\n            totalWeightage += weightage[i];\r\n        }\r\n\r\n        require(\r\n            totalWeightage > 0 && totalWeightage < 100,\r\n            \"Weightage is not proper\"\r\n        );\r\n\r\n        Player storage newPlayer = players[curNumPlayers++];\r\n        newPlayer.player = msg.sender;\r\n        newPlayer.coins = coins;\r\n        newPlayer.weightage = weightage;\r\n\r\n        require(buyToken(amount), \"Token transaction failed\");\r\n\r\n        return gameId;\r\n    }\r\n\r\n    function expireGame() public {\r\n        require(activated, \"The game is not yet activated\");\r\n        require(curNumPlayers < numPlayers, \"Required number of players reached\");\r\n        require(\r\n            msg.sender == orgAddress,\r\n            \"only the organization can call expire function\"\r\n        );\r\n        require(block.timestamp-createdTime > waitTime*1, \"Timeout not reached\");\r\n\r\n        uint256 i;\r\n        for(i = 0; i < curNumPlayers; i++){\r\n            usdc.transfer(players[i].player, playerContribution);\r\n        }\r\n        finalize();\r\n    }\r\n\r\n    function startGame() public {\r\n        require(activated, \"The game is not yet activated\");\r\n        require(curNumPlayers == numPlayers, \"Mismatch in number of players.\");\r\n        require(\r\n            msg.sender == orgAddress,\r\n            \"only the organization can start the game\"\r\n        );\r\n        require(block.timestamp-createdTime <= waitTime*1, \"Timeout!\");\r\n        live = true;\r\n        startTime = block.timestamp;\r\n    }\r\n\r\n    \r\n\r\n    function endGame() public returns (bool) {\r\n        require(activated, \"The game is not yet activated\");\r\n        require(\r\n            msg.sender == orgAddress,\r\n            \"only the organization can end the game\"\r\n        );\r\n        require(live == true, \"The game is not live\");\r\n        require(completed == false, \"The game has already completed\");\r\n        require(\r\n            block.timestamp - startTime > gameTime * 1,\r\n            \"Game is still in progress\"\r\n        );\r\n\r\n        live = false;\r\n        completed = true;\r\n\r\n        return true;\r\n    }\r\n\r\n    function distributePrize(address[] memory winners) public {\r\n        require(activated, \"The game is not yet activated\");\r\n        uint256 i;\r\n        require(winners.length == numWinners, \"Mismatch in number of winners\");\r\n        require(\r\n            msg.sender == orgAddress,\r\n            \"only the organization can end the game\"\r\n        );\r\n        require(live == false, \"The game is live\");\r\n        require(completed == true, \"The game has not been completed\");\r\n        require(\r\n            block.timestamp - startTime > gameTime * 1,\r\n            \"Game is still in progress\"\r\n        );\r\n\r\n        for (i = 0; i < winners.length; i++) {\r\n            usdc.transfer(winners[i], winnerWeights[i]);\r\n        }\r\n        payable(gameOwner).transfer(address(this).balance);\r\n        uint256 balance = usdc.balanceOf(address(this));\r\n        usdc.transfer(gameOwner, balance);\r\n        finalize();\r\n    }\r\n\r\n    function finalize() public {\r\n        require(\r\n            msg.sender == orgAddress,\r\n            \"only the organization can end the game\"\r\n        );\r\n        orgWallet.transfer(address(this).balance);\r\n        uint256 rem_balance = usdc.balanceOf(address(this));\r\n        usdc.transfer(orgAddress, rem_balance);\r\n        \r\n        selfdestruct(payable(address(this)));\r\n        \r\n    }\r\n\r\n    function getGameState()\r\n        public\r\n        view\r\n        returns (\r\n            uint256,// gameId,                  -0\r\n            address,// gameOwner,               -1\r\n            uint256,// gamePool,                -2\r\n            uint256,// numPlayers,              -3\r\n            uint256,// numCoins,                -4\r\n            uint256,// contractBalance,         -5\r\n            //gameTime - should be in seconds\r\n            uint256,// gameTime,                -6\r\n            uint256,// numWinners,              -7\r\n            uint256,// playerContribution       -8\r\n            uint256,//account balance           -9\r\n            uint256,//startTime                 -10\r\n            uint256//ends in                    -11\r\n            // bool,   //live                   -12\r\n            // bool    //completed              -13\r\n        )\r\n    {\r\n        require(activated, \"The game is not activated\");\r\n        return (\r\n            gameId,\r\n            gameOwner,\r\n            gamePool,\r\n            curNumPlayers,\r\n            numCoins,\r\n            address(this).balance,\r\n            gameTime,\r\n            numWinners,\r\n            playerContribution,\r\n            address(this).balance,\r\n            startTime,\r\n            gameTime * 1 - (block.timestamp - startTime)\r\n            // live,\r\n            // completed\r\n        );\r\n    }\r\n}\r\n",
  "sourcePath": "D:/projects/coinFantasy/CoinFantasy/contracts/CoinGame.sol",
  "compiler": {
    "name": "solc",
    "version": "0.8.0+commit.c7dfd78e.Emscripten.clang"
  },
  "schemaVersion": "3.3.4",
  "updatedAt": "2021-04-30T12:56:54.057Z",
  "networkType": "ethereum",
  "devdoc": {
    "kind": "dev",
    "methods": {},
    "version": 1
  },
  "userdoc": {
    "kind": "user",
    "methods": {},
    "version": 1
  }
}