{
  "contractName": "Game",
  "abi": [
    {
      "inputs": [
        {
          "internalType": "uint256",
          "name": "_gameId",
          "type": "uint256"
        },
        {
          "internalType": "uint256",
          "name": "_numCoins",
          "type": "uint256"
        },
        {
          "internalType": "uint256",
          "name": "_gameTime",
          "type": "uint256"
        },
        {
          "internalType": "uint256",
          "name": "_numWinners",
          "type": "uint256"
        },
        {
          "internalType": "uint256[]",
          "name": "_winnerWeights",
          "type": "uint256[]"
        },
        {
          "internalType": "uint256",
          "name": "_gamePool",
          "type": "uint256"
        },
        {
          "internalType": "uint256",
          "name": "_lockIn",
          "type": "uint256"
        },
        {
          "internalType": "uint256",
          "name": "_playerContribution",
          "type": "uint256"
        }
      ],
      "stateMutability": "payable",
      "type": "constructor"
    },
    {
      "inputs": [],
      "name": "startGame",
      "outputs": [],
      "stateMutability": "nonpayable",
      "type": "function"
    },
    {
      "inputs": [
        {
          "internalType": "uint256[]",
          "name": "coins",
          "type": "uint256[]"
        },
        {
          "internalType": "uint256[]",
          "name": "weightage",
          "type": "uint256[]"
        }
      ],
      "name": "joinGame",
      "outputs": [
        {
          "internalType": "uint256",
          "name": "_gameId",
          "type": "uint256"
        }
      ],
      "stateMutability": "payable",
      "type": "function"
    },
    {
      "inputs": [],
      "name": "finalize",
      "outputs": [],
      "stateMutability": "nonpayable",
      "type": "function"
    },
    {
      "inputs": [],
      "name": "gameEnded",
      "outputs": [
        {
          "internalType": "bool",
          "name": "",
          "type": "bool"
        }
      ],
      "stateMutability": "nonpayable",
      "type": "function"
    },
    {
      "inputs": [],
      "name": "sendData",
      "outputs": [
        {
          "internalType": "int256[]",
          "name": "",
          "type": "int256[]"
        },
        {
          "internalType": "int256[]",
          "name": "",
          "type": "int256[]"
        }
      ],
      "stateMutability": "view",
      "type": "function"
    },
    {
      "inputs": [
        {
          "internalType": "address payable[]",
          "name": "winners",
          "type": "address[]"
        }
      ],
      "name": "distributePrize",
      "outputs": [],
      "stateMutability": "nonpayable",
      "type": "function"
    },
    {
      "inputs": [],
      "name": "getGameState",
      "outputs": [
        {
          "internalType": "uint256",
          "name": "",
          "type": "uint256"
        },
        {
          "internalType": "address",
          "name": "",
          "type": "address"
        },
        {
          "internalType": "uint256",
          "name": "",
          "type": "uint256"
        },
        {
          "internalType": "uint256",
          "name": "",
          "type": "uint256"
        },
        {
          "internalType": "uint256",
          "name": "",
          "type": "uint256"
        },
        {
          "internalType": "uint256",
          "name": "",
          "type": "uint256"
        },
        {
          "internalType": "uint256",
          "name": "",
          "type": "uint256"
        },
        {
          "internalType": "uint256",
          "name": "",
          "type": "uint256"
        },
        {
          "internalType": "uint256",
          "name": "",
          "type": "uint256"
        },
        {
          "internalType": "uint256",
          "name": "",
          "type": "uint256"
        }
      ],
      "stateMutability": "view",
      "type": "function"
    }
  ],
  "bytecode": "0x608060405273604bcd042d2d5b355ece14b6ac3224d23f29a51c600a60026101000a81548173ffffffffffffffffffffffffffffffffffffffff021916908373ffffffffffffffffffffffffffffffffffffffff160217905550600a60029054906101000a900473ffffffffffffffffffffffffffffffffffffffff16600b60006101000a81548173ffffffffffffffffffffffffffffffffffffffff021916908373ffffffffffffffffffffffffffffffffffffffff16021790555060405162002389380380620023898339818101604052810190620000e19190620004fc565b600c738a753747a1fa494ec906ce90e9f37563a8af630e9080600181540180825580915050600190039060005260206000200160009091909190916101000a81548173ffffffffffffffffffffffffffffffffffffffff021916908373ffffffffffffffffffffffffffffffffffffffff160217905550600c73d8bd0a1cb028a31aa859a21a3758685a95de46239080600181540180825580915050600190039060005260206000200160009091909190916101000a81548173ffffffffffffffffffffffffffffffffffffffff021916908373ffffffffffffffffffffffffffffffffffffffff160217905550600c73ece365b379e1dd183b20fc5f022230c044d514049080600181540180825580915050600190039060005260206000200160009091909190916101000a81548173ffffffffffffffffffffffffffffffffffffffff021916908373ffffffffffffffffffffffffffffffffffffffff1602179055506001838362000256919062000760565b62000262919062000760565b34606462000271919062000760565b1015620002b5576040517f08c379a0000000000000000000000000000000000000000000000000000000008152600401620002ac90620006ca565b60405180910390fd5b83518514620002fb576040517f08c379a0000000000000000000000000000000000000000000000000000000008152600401620002f290620006a8565b60405180910390fd5b836009908051906020019062000313929190620003d2565b508760008190555033600160006101000a81548173ffffffffffffffffffffffffffffffffffffffff021916908373ffffffffffffffffffffffffffffffffffffffff16021790555060006003819055508660048190555034600581905550856006819055508460078190555082600281905550806008819055506000600a60006101000a81548160ff0219169083151502179055506000600a60016101000a81548160ff021916908315150217905550505050505050505062000843565b82805482825590600052602060002090810192821562000411579160200282015b8281111562000410578251825591602001919060010190620003f3565b5b50905062000420919062000424565b5090565b5b808211156200043f57600081600090555060010162000425565b5090565b60006200045a620004548462000720565b620006ec565b905080838252602082019050828560208602820111156200047a57600080fd5b60005b85811015620004ae5781620004938882620004e5565b8452602084019350602083019250506001810190506200047d565b5050509392505050565b600082601f830112620004ca57600080fd5b8151620004dc84826020860162000443565b91505092915050565b600081519050620004f68162000829565b92915050565b600080600080600080600080610100898b0312156200051a57600080fd5b60006200052a8b828c01620004e5565b98505060206200053d8b828c01620004e5565b9750506040620005508b828c01620004e5565b9650506060620005638b828c01620004e5565b955050608089015167ffffffffffffffff8111156200058157600080fd5b6200058f8b828c01620004b8565b94505060a0620005a28b828c01620004e5565b93505060c0620005b58b828c01620004e5565b92505060e0620005c88b828c01620004e5565b9150509295985092959890939650565b6000620005e7603d836200074f565b91507f4e756d626572206f662077696e6e65727320646f65736e2774206d617463682060008301527f776974682074686520776569676874616765206f662077696e6e6572730000006020830152604082019050919050565b60006200064f602e836200074f565b91507f43726561746f72206e6565647320746f206c6f636b496e2031302520746f206360008301527f7265617465207468652067616d650000000000000000000000000000000000006020830152604082019050919050565b60006020820190508181036000830152620006c381620005d8565b9050919050565b60006020820190508181036000830152620006e58162000640565b9050919050565b6000604051905081810181811067ffffffffffffffff82111715620007165762000715620007fa565b5b8060405250919050565b600067ffffffffffffffff8211156200073e576200073d620007fa565b5b602082029050602081019050919050565b600082825260208201905092915050565b60006200076d82620007c1565b91506200077a83620007c1565b9250817fffffffffffffffffffffffffffffffffffffffffffffffffffffffffffffffff0483118215151615620007b657620007b5620007cb565b5b828202905092915050565b6000819050919050565b7f4e487b7100000000000000000000000000000000000000000000000000000000600052601160045260246000fd5b7f4e487b7100000000000000000000000000000000000000000000000000000000600052604160045260246000fd5b6200083481620007c1565b81146200084057600080fd5b50565b611b3680620008536000396000f3fe6080604052600436106100705760003560e01c8063b7d0628b1161004e578063b7d0628b146100e3578063d65ab5f214610117578063f1d5f9111461012e578063f4aaf6f21461015757610070565b80632f6fe396146100755780634bb278f3146100a05780638911be30146100b7575b600080fd5b34801561008157600080fd5b5061008a610187565b60405161009791906115a8565b60405180910390f35b3480156100ac57600080fd5b506100b5610489565b005b3480156100c357600080fd5b506100cc6104a2565b6040516100da929190611571565b60405180910390f35b3480156100ef57600080fd5b506100f8610555565b60405161010e9a999897969594939291906117be565b60405180910390f35b34801561012357600080fd5b5061012c6105c0565b005b34801561013a57600080fd5b5061015560048036038101906101509190610f1d565b6107f4565b005b610171600480360381019061016c9190610f5e565b610993565b60405161017e91906117a3565b60405180910390f35b6000600a60029054906101000a900473ffffffffffffffffffffffffffffffffffffffff1673ffffffffffffffffffffffffffffffffffffffff163373ffffffffffffffffffffffffffffffffffffffff1614610219576040517f08c379a0000000000000000000000000000000000000000000000000000000008152600401610210906115c3565b60405180910390fd5b60011515600a60009054906101000a900460ff1615151461026f576040517f08c379a0000000000000000000000000000000000000000000000000000000008152600401610266906116e3565b60405180910390fd5b60001515600a60019054906101000a900460ff161515146102c5576040517f08c379a00000000000000000000000000000000000000000000000000000000081526004016102bc90611723565b60405180910390fd5b6006544211610309576040517f08c379a000000000000000000000000000000000000000000000000000000000815260040161030090611663565b60405180910390fd5b6000600a60006101000a81548160ff0219169083151502179055506001600a60016101000a81548160ff02191690831515021790555060005b600454811015610481576000806000806000600c868154811061038e577f4e487b7100000000000000000000000000000000000000000000000000000000600052603260045260246000fd5b9060005260206000200160009054906101000a900473ffffffffffffffffffffffffffffffffffffffff1673ffffffffffffffffffffffffffffffffffffffff1663feaf968c6040518163ffffffff1660e01b815260040160a06040518083038186803b1580156103fe57600080fd5b505afa158015610412573d6000803e3d6000fd5b505050506040513d601f19601f820116820180604052508101906104369190610fca565b94509450945094509450600e84908060018154018082558091505060019003906000526020600020016000909190919091505550505050508080610479906119fd565b915050610342565b600191505090565b3073ffffffffffffffffffffffffffffffffffffffff16ff5b606080600d600e818054806020026020016040519081016040528092919081815260200182805480156104f457602002820191906000526020600020905b8154815260200190600101908083116104e0575b505050505091508080548060200260200160405190810160405280929190818152602001828054801561054657602002820191906000526020600020905b815481526020019060010190808311610532575b50505050509050915091509091565b600080600080600080600080600080600054600160009054906101000a900473ffffffffffffffffffffffffffffffffffffffff1660025460035460045460055460065460075460085447995099509950995099509950995099509950995090919293949596979899565b6003805414610604576040517f08c379a00000000000000000000000000000000000000000000000000000000081526004016105fb90611603565b60405180910390fd5b600a60029054906101000a900473ffffffffffffffffffffffffffffffffffffffff1673ffffffffffffffffffffffffffffffffffffffff163373ffffffffffffffffffffffffffffffffffffffff1614610694576040517f08c379a000000000000000000000000000000000000000000000000000000000815260040161068b90611643565b60405180910390fd5b6001600a60006101000a81548160ff02191690831515021790555060005b6004548110156107f1576000806000806000600c86815481106106fe577f4e487b7100000000000000000000000000000000000000000000000000000000600052603260045260246000fd5b9060005260206000200160009054906101000a900473ffffffffffffffffffffffffffffffffffffffff1673ffffffffffffffffffffffffffffffffffffffff1663feaf968c6040518163ffffffff1660e01b815260040160a06040518083038186803b15801561076e57600080fd5b505afa158015610782573d6000803e3d6000fd5b505050506040513d601f19601f820116820180604052508101906107a69190610fca565b94509450945094509450600d849080600181540180825580915050600190039060005260206000200160009091909190915055505050505080806107e9906119fd565b9150506106b2565b50565b600060075482511461083b576040517f08c379a000000000000000000000000000000000000000000000000000000000815260040161083290611743565b60405180910390fd5b600190505b8151811161092657818181518110610881577f4e487b7100000000000000000000000000000000000000000000000000000000600052603260045260246000fd5b602002602001015173ffffffffffffffffffffffffffffffffffffffff166108fc600983815481106108dc577f4e487b7100000000000000000000000000000000000000000000000000000000600052603260045260246000fd5b90600052602060002001549081150290604051600060405180830381858888f19350505050158015610912573d6000803e3d6000fd5b50808061091e906119fd565b915050610840565b600b60009054906101000a900473ffffffffffffffffffffffffffffffffffffffff1673ffffffffffffffffffffffffffffffffffffffff166108fc479081150290604051600060405180830381858888f1935050505015801561098e573d6000803e3d6000fd5b505050565b600060038054106109d9576040517f08c379a00000000000000000000000000000000000000000000000000000000081526004016109d090611763565b60405180910390fd5b60001515600a60009054906101000a900460ff16151514610a2f576040517f08c379a0000000000000000000000000000000000000000000000000000000008152600401610a2690611623565b60405180910390fd5b60001515600a60019054906101000a900460ff16151514610a85576040517f08c379a0000000000000000000000000000000000000000000000000000000008152600401610a7c90611683565b60405180910390fd5b600854341015610aca576040517f08c379a0000000000000000000000000000000000000000000000000000000008152600401610ac1906116c3565b60405180910390fd5b60045483511015610b10576040517f08c379a0000000000000000000000000000000000000000000000000000000008152600401610b0790611703565b60405180910390fd5b6000825111610b54576040517f08c379a0000000000000000000000000000000000000000000000000000000008152600401610b4b906115e3565b60405180910390fd5b8251825114610b98576040517f08c379a0000000000000000000000000000000000000000000000000000000008152600401610b8f906116a3565b60405180910390fd5b6000805b8351811015610c0657838181518110610bde577f4e487b7100000000000000000000000000000000000000000000000000000000600052603260045260246000fd5b602002602001015182610bf1919061192d565b91508080610bfe906119fd565b915050610b9c565b50600081118015610c175750606481105b610c56576040517f08c379a0000000000000000000000000000000000000000000000000000000008152600401610c4d90611783565b60405180910390fd5b6000600f600060036000815480929190610c6f906119fd565b9190505581526020019081526020016000209050338160000160006101000a81548173ffffffffffffffffffffffffffffffffffffffff021916908373ffffffffffffffffffffffffffffffffffffffff16021790555084816001019080519060200190610cde929190610d1e565b5083816002019080519060200190610cf7929190610d1e565b503460056000828254610d0a919061192d565b925050819055506000549250505092915050565b828054828255906000526020600020908101928215610d5a579160200282015b82811115610d59578251825591602001919060010190610d3e565b5b509050610d679190610d6b565b5090565b5b80821115610d84576000816000905550600101610d6c565b5090565b6000610d9b610d968461188b565b61185a565b90508083825260208201905082856020860282011115610dba57600080fd5b60005b85811015610dea5781610dd08882610e60565b845260208401935060208301925050600181019050610dbd565b5050509392505050565b6000610e07610e02846118b7565b61185a565b90508083825260208201905082856020860282011115610e2657600080fd5b60005b85811015610e565781610e3c8882610ede565b845260208401935060208301925050600181019050610e29565b5050509392505050565b600081359050610e6f81611aa4565b92915050565b600082601f830112610e8657600080fd5b8135610e96848260208601610d88565b91505092915050565b600082601f830112610eb057600080fd5b8135610ec0848260208601610df4565b91505092915050565b600081519050610ed881611abb565b92915050565b600081359050610eed81611ad2565b92915050565b600081519050610f0281611ad2565b92915050565b600081519050610f1781611ae9565b92915050565b600060208284031215610f2f57600080fd5b600082013567ffffffffffffffff811115610f4957600080fd5b610f5584828501610e75565b91505092915050565b60008060408385031215610f7157600080fd5b600083013567ffffffffffffffff811115610f8b57600080fd5b610f9785828601610e9f565b925050602083013567ffffffffffffffff811115610fb457600080fd5b610fc085828601610e9f565b9150509250929050565b600080600080600060a08688031215610fe257600080fd5b6000610ff088828901610f08565b955050602061100188828901610ec9565b945050604061101288828901610ef3565b935050606061102388828901610ef3565b925050608061103488828901610f08565b9150509295509295909350565b600061104d83836110d5565b60208301905092915050565b61106281611983565b82525050565b6000611073826118f3565b61107d818561190b565b9350611088836118e3565b8060005b838110156110b95781516110a08882611041565b97506110ab836118fe565b92505060018101905061108c565b5085935050505092915050565b6110cf816119a7565b82525050565b6110de816119b3565b82525050565b60006110f160268361191c565b91507f6f6e6c7920746865206f7267616e697a6174696f6e2063616e20656e6420746860008301527f652067616d6500000000000000000000000000000000000000000000000000006020830152604082019050919050565b6000611157601f8361191c565b91507f57656967687461676520666f7220636f696e73206973206e6f742073656e74006000830152602082019050919050565b6000611197601e8361191c565b91507f4d69736d6174636820696e206e756d626572206f6620706c61796572732e00006000830152602082019050919050565b60006111d760148361191c565b91507f5468652067616d652068617320737461727465640000000000000000000000006000830152602082019050919050565b600061121760288361191c565b91507f6f6e6c7920746865206f7267616e697a6174696f6e2063616e2073746172742060008301527f7468652067616d650000000000000000000000000000000000000000000000006020830152604082019050919050565b600061127d60198361191c565b91507f47616d65206973207374696c6c20696e2070726f6772657373000000000000006000830152602082019050919050565b60006112bd60128361191c565b91507f5468652067616d652068617320656e64656400000000000000000000000000006000830152602082019050919050565b60006112fd60268361191c565b91507f57656967687461676520666f7220616c6c20636f696e73206973206e6f74207060008301527f726573656e7400000000000000000000000000000000000000000000000000006020830152604082019050919050565b600061136360388361191c565b91507f506c6179657220686173206e6f7420636f6e747269627574656420746865206560008301527f7861637420616d6f756e7420666f72207468652067616d6500000000000000006020830152604082019050919050565b60006113c960148361191c565b91507f5468652067616d65206973206e6f74206c6976650000000000000000000000006000830152602082019050919050565b600061140960238361191c565b91507f596f75206861766520746f2063686f6f7365206174206c65617374203720636f60008301527f696e7300000000000000000000000000000000000000000000000000000000006020830152604082019050919050565b600061146f601e8361191c565b91507f5468652067616d652068617320616c726561647920636f6d706c6574656400006000830152602082019050919050565b60006114af601d8361191c565b91507f4d69736d6174636820696e206e756d626572206f662077696e6e6572730000006000830152602082019050919050565b60006114ef60198361191c565b91507f54686520706c6179657220636f756e74207265616368656421000000000000006000830152602082019050919050565b600061152f60178361191c565b91507f576569676874616765206973206e6f742070726f7065720000000000000000006000830152602082019050919050565b61156b816119dd565b82525050565b6000604082019050818103600083015261158b8185611068565b9050818103602083015261159f8184611068565b90509392505050565b60006020820190506115bd60008301846110c6565b92915050565b600060208201905081810360008301526115dc816110e4565b9050919050565b600060208201905081810360008301526115fc8161114a565b9050919050565b6000602082019050818103600083015261161c8161118a565b9050919050565b6000602082019050818103600083015261163c816111ca565b9050919050565b6000602082019050818103600083015261165c8161120a565b9050919050565b6000602082019050818103600083015261167c81611270565b9050919050565b6000602082019050818103600083015261169c816112b0565b9050919050565b600060208201905081810360008301526116bc816112f0565b9050919050565b600060208201905081810360008301526116dc81611356565b9050919050565b600060208201905081810360008301526116fc816113bc565b9050919050565b6000602082019050818103600083015261171c816113fc565b9050919050565b6000602082019050818103600083015261173c81611462565b9050919050565b6000602082019050818103600083015261175c816114a2565b9050919050565b6000602082019050818103600083015261177c816114e2565b9050919050565b6000602082019050818103600083015261179c81611522565b9050919050565b60006020820190506117b86000830184611562565b92915050565b6000610140820190506117d4600083018d611562565b6117e1602083018c611059565b6117ee604083018b611562565b6117fb606083018a611562565b6118086080830189611562565b61181560a0830188611562565b61182260c0830187611562565b61182f60e0830186611562565b61183d610100830185611562565b61184b610120830184611562565b9b9a5050505050505050505050565b6000604051905081810181811067ffffffffffffffff8211171561188157611880611a75565b5b8060405250919050565b600067ffffffffffffffff8211156118a6576118a5611a75565b5b602082029050602081019050919050565b600067ffffffffffffffff8211156118d2576118d1611a75565b5b602082029050602081019050919050565b6000819050602082019050919050565b600081519050919050565b6000602082019050919050565b600082825260208201905092915050565b600082825260208201905092915050565b6000611938826119dd565b9150611943836119dd565b9250827fffffffffffffffffffffffffffffffffffffffffffffffffffffffffffffffff0382111561197857611977611a46565b5b828201905092915050565b600061198e826119bd565b9050919050565b60006119a0826119bd565b9050919050565b60008115159050919050565b6000819050919050565b600073ffffffffffffffffffffffffffffffffffffffff82169050919050565b6000819050919050565b600069ffffffffffffffffffff82169050919050565b6000611a08826119dd565b91507fffffffffffffffffffffffffffffffffffffffffffffffffffffffffffffffff821415611a3b57611a3a611a46565b5b600182019050919050565b7f4e487b7100000000000000000000000000000000000000000000000000000000600052601160045260246000fd5b7f4e487b7100000000000000000000000000000000000000000000000000000000600052604160045260246000fd5b611aad81611995565b8114611ab857600080fd5b50565b611ac4816119b3565b8114611acf57600080fd5b50565b611adb816119dd565b8114611ae657600080fd5b50565b611af2816119e7565b8114611afd57600080fd5b5056fea26469706673582212203c1038bf65a3ad2b542ed4b6a7585ce0eb2be94922472396775463b57faf078a64736f6c63430008000033",
  "immutableReferences": {},
  "source": "// Coin Fantasy Game\r\n// SPDX-License-Identifier: CoinFantasy Game\r\n\r\npragma solidity ^0.8.0;\r\nimport \"@chainlink/contracts/src/v0.6/interfaces/AggregatorV3Interface.sol\";\r\n// import \"https://github.com/smartcontractkit/chainlink/blob/master/evm-contracts/src/v0.6/interfaces/AggregatorV3Interface.sol\";\r\n\r\n\r\ncontract Game {\r\n    uint gameId;\r\n    address gameOwner;\r\n    uint gamePool;\r\n    uint numPlayers;\r\n    uint numCoins;\r\n    uint contractBalance;\r\n    //gameTime - should be in seconds\r\n    uint gameTime;\r\n    uint numWinners;\r\n    uint playerContribution;\r\n    uint[] winnerWeights;\r\n    bool live;\r\n    bool completed;\r\n    address orgAddress = 0x604BCD042D2d5B355ecE14B6aC3224d23F29a51c;\r\n    address payable orgWallet = payable(address(orgAddress));\r\n    AggregatorV3Interface[] internal priceFeed;\r\n    int[] startPrice;\r\n    int[] endPrice;\r\n\r\n    struct Player {\r\n\r\n        address player;\r\n        uint[] coins;\r\n        uint[] weightage;\r\n    }\r\n    \r\n    mapping(uint => Player) players;\r\n    \r\n    constructor(uint _gameId, uint _numCoins, uint _gameTime, uint _numWinners, uint [] memory _winnerWeights,\r\n    uint _gamePool, uint _lockIn, uint _playerContribution) payable {\r\n        \r\n        /*Creator needs to mandatory lock in 10% of the gamePool money\r\n        * Lock In amount needs to be sent from the front end because we cannot calculate\r\n        * floating point (10%) in Solidity.\r\n        * Same for playerContribution - it has to come from the front end since\r\n        * totalGamePool/numOfPlayers cannot be done in Solidity\r\n        */\r\n\r\n        priceFeed.push(AggregatorV3Interface(0x8A753747A1Fa494EC906cE90E9f37563A8AF630e));//ETH\r\n        priceFeed.push(AggregatorV3Interface(0xd8bD0a1cB028a31AA859A21A3758685a95dE4623));//LINK\r\n        priceFeed.push(AggregatorV3Interface(0xECe365B379E1dD183B20fc5f022230C044d51404));//BTC\r\n        require(100*msg.value >= (_lockIn *_gamePool*1 wei), \"Creator needs to lockIn 10% to create the game\");\r\n\r\n        require(_numWinners == _winnerWeights.length, \"Number of winners doesn't match with the weightage of winners\");\r\n\r\n        winnerWeights = _winnerWeights;\r\n        \r\n        //Generates a unique GameID for every game\r\n        gameId = _gameId;\r\n        gameOwner = msg.sender;\r\n        numPlayers = 0;\r\n        numCoins = _numCoins;\r\n        contractBalance = msg.value;\r\n        gameTime = _gameTime;\r\n        numWinners = _numWinners;\r\n        gamePool = _gamePool;\r\n        playerContribution = _playerContribution;\r\n        live = false;\r\n        completed = false;\r\n    }\r\n\r\n    //assuming the contract address is availably publically, \r\n    //steps are taken to restrict the control function\r\n\r\n    function startGame() public {\r\n        require(numPlayers == 3, \"Mismatch in number of players.\");\r\n        require(msg.sender==orgAddress, \"only the organization can start the game\");\r\n        live = true;\r\n        \r\n        uint i;\r\n        for(i=0; i < numCoins; i++){\r\n            (\r\n                uint80 roundID, \r\n                int price,\r\n                uint startedAt,\r\n                uint timeStamp,\r\n                uint80 answeredInRound\r\n            ) = priceFeed[i].latestRoundData();\r\n            startPrice.push(price);\r\n        }\r\n\r\n    }\r\n    \r\n    function joinGame(uint[] memory coins, uint[] memory weightage) public payable returns(uint _gameId) {\r\n\r\n        require(numPlayers < 3, \"The player count reached!\");\r\n        require(live==false, \"The game has started\");\r\n        require(completed==false, \"The game has ended\");\r\n        require(msg.value >= playerContribution, \"Player has not contributed the exact amount for the game\");\r\n        require(coins.length >= numCoins, \"You have to choose at least 7 coins\");\r\n        require(weightage.length > 0, \"Weightage for coins is not sent\");\r\n        require(weightage.length == coins.length, \"Weightage for all coins is not present\");\r\n        \r\n        uint totalWeightage = 0;\r\n        for(uint i = 0; i< weightage.length; i++){\r\n            totalWeightage+= weightage[i];\r\n        }\r\n        \r\n        require(totalWeightage > 0 && totalWeightage < 100, \"Weightage is not proper\");\r\n        \r\n        Player storage newPlayer = players[numPlayers++];\r\n        newPlayer.player = msg.sender;\r\n        newPlayer.coins = coins;\r\n        newPlayer.weightage = weightage;\r\n        contractBalance += msg.value;\r\n        return gameId;\r\n        \r\n    }\r\n    \r\n    //Selfdestruct the contract and send the remaining funds to the contract address\r\n\r\n    function finalize() public {\r\n        selfdestruct(payable(address(this)));\r\n    }\r\n    \r\n    function gameEnded() public returns(bool) {\r\n\r\n        require(msg.sender==orgAddress, \"only the organization can end the game\");\r\n        require(live==true, \"The game is not live\");\r\n        require(completed==false, \"The game has already completed\");\r\n        require(block.timestamp > gameTime, \"Game is still in progress\");\r\n\r\n        live = false;\r\n        completed= true;\r\n        uint i;\r\n        for(i=0; i < numCoins; i++){\r\n            (\r\n                uint80 roundID, \r\n                int price,\r\n                uint startedAt,\r\n                uint timeStamp,\r\n                uint80 answeredInRound\r\n            ) = priceFeed[i].latestRoundData();\r\n            endPrice.push(price);\r\n        }\r\n        \r\n\r\n        //Do the Oracle thing and calculate the winner/winners\r\n\r\n        /*\r\n\r\n        //for 5 coins\r\n        Based on the logic we decide, distribute the prize within numWinners\r\n        */\r\n        return true;\r\n        \r\n    }\r\n\r\n    function sendData() public view returns(int[] memory, int[] memory){\r\n        return (startPrice, endPrice);\r\n    }\r\n    \r\n\r\n    //Change it to internal later, keep public only for testing purposes\r\n\r\n    //this is to be set as private function\r\n    function distributePrize(address payable[] memory winners) public {\r\n        uint i;\r\n        require(winners.length==numWinners, \"Mismatch in number of winners\");\r\n        for(i = 1; i <= winners.length; i++){\r\n            winners[i].transfer(winnerWeights[i]);\r\n        }\r\n        orgWallet.transfer(address(this).balance);\r\n    }\r\n\r\n    function getGameState() public view returns (\r\n        uint,// gameId,\r\n        address, // gameOwner,\r\n        uint, // gamePool,\r\n        uint, // numPlayers,\r\n        uint, // numCoins,\r\n        uint, // contractBalance,\r\n        //gameTime - should be in seconds\r\n        uint, // gameTime,\r\n        uint, // numWinners,\r\n        uint, // playerContribution\r\n        uint //account balance\r\n    ){\r\n        return(gameId, gameOwner, gamePool, numPlayers, numCoins, contractBalance, gameTime, numWinners, playerContribution, address(this).balance);\r\n    }\r\n    \r\n    \r\n}\r\n",
  "sourcePath": "D:/projects/coinFantasy/CoinFantasy/contracts/CoinGame.sol",
  "compiler": {
    "name": "solc",
    "version": "0.8.0+commit.c7dfd78e.Emscripten.clang"
  },
  "schemaVersion": "3.3.4",
  "updatedAt": "2021-04-06T12:10:04.693Z",
  "devdoc": {
    "kind": "dev",
    "methods": {},
    "version": 1
  },
  "userdoc": {
    "kind": "user",
    "methods": {},
    "version": 1
  }
}