{
  "contractName": "Game",
  "abi": [
    {
      "inputs": [
        {
          "internalType": "uint256",
          "name": "_gameId",
          "type": "uint256"
        },
        {
          "internalType": "uint256",
          "name": "_numCoins",
          "type": "uint256"
        },
        {
          "internalType": "uint256",
          "name": "_gameTime",
          "type": "uint256"
        },
        {
          "internalType": "uint256",
          "name": "_numWinners",
          "type": "uint256"
        },
        {
          "internalType": "uint256",
          "name": "_gamePool",
          "type": "uint256"
        },
        {
          "internalType": "uint256",
          "name": "_lockIn",
          "type": "uint256"
        },
        {
          "internalType": "uint256",
          "name": "_playerContribution",
          "type": "uint256"
        }
      ],
      "stateMutability": "payable",
      "type": "constructor"
    },
    {
      "inputs": [
        {
          "internalType": "uint256[]",
          "name": "coins",
          "type": "uint256[]"
        },
        {
          "internalType": "uint256[]",
          "name": "weightage",
          "type": "uint256[]"
        }
      ],
      "name": "joinGame",
      "outputs": [
        {
          "internalType": "uint256",
          "name": "_gameId",
          "type": "uint256"
        }
      ],
      "stateMutability": "payable",
      "type": "function"
    },
    {
      "inputs": [],
      "name": "finalize",
      "outputs": [],
      "stateMutability": "nonpayable",
      "type": "function"
    },
    {
      "inputs": [],
      "name": "gameEnded",
      "outputs": [
        {
          "internalType": "bool",
          "name": "",
          "type": "bool"
        }
      ],
      "stateMutability": "view",
      "type": "function"
    },
    {
      "inputs": [
        {
          "internalType": "address payable",
          "name": "winner",
          "type": "address"
        },
        {
          "internalType": "uint256",
          "name": "amount",
          "type": "uint256"
        }
      ],
      "name": "distributePrize",
      "outputs": [],
      "stateMutability": "nonpayable",
      "type": "function"
    },
    {
      "inputs": [],
      "name": "getGameState",
      "outputs": [
        {
          "internalType": "uint256",
          "name": "",
          "type": "uint256"
        },
        {
          "internalType": "address",
          "name": "",
          "type": "address"
        },
        {
          "internalType": "uint256",
          "name": "",
          "type": "uint256"
        },
        {
          "internalType": "uint256",
          "name": "",
          "type": "uint256"
        },
        {
          "internalType": "uint256",
          "name": "",
          "type": "uint256"
        },
        {
          "internalType": "uint256",
          "name": "",
          "type": "uint256"
        },
        {
          "internalType": "uint256",
          "name": "",
          "type": "uint256"
        },
        {
          "internalType": "uint256",
          "name": "",
          "type": "uint256"
        },
        {
          "internalType": "uint256",
          "name": "",
          "type": "uint256"
        }
      ],
      "stateMutability": "view",
      "type": "function"
    }
  ],
  "bytecode": "0x608060405260405162000faa38038062000faa833981810160405281019062000029919062000136565b600183836200003991906200027e565b6200004591906200027e565b3460646200005491906200027e565b101562000098576040517f08c379a00000000000000000000000000000000000000000000000000000000081526004016200008f906200024b565b60405180910390fd5b8660008190555033600160006101000a81548173ffffffffffffffffffffffffffffffffffffffff021916908373ffffffffffffffffffffffffffffffffffffffff16021790555060006003819055508560048190555034600581905550846006819055508360078190555082600281905550806008819055505050505050505062000332565b600081519050620001308162000318565b92915050565b600080600080600080600060e0888a0312156200015257600080fd5b6000620001628a828b016200011f565b9750506020620001758a828b016200011f565b9650506040620001888a828b016200011f565b95505060606200019b8a828b016200011f565b9450506080620001ae8a828b016200011f565b93505060a0620001c18a828b016200011f565b92505060c0620001d48a828b016200011f565b91505092959891949750929550565b6000620001f2602e836200026d565b91507f43726561746f72206e6565647320746f206c6f636b496e2031302520746f206360008301527f7265617465207468652067616d650000000000000000000000000000000000006020830152604082019050919050565b600060208201905081810360008301526200026681620001e3565b9050919050565b600082825260208201905092915050565b60006200028b82620002df565b91506200029883620002df565b9250817fffffffffffffffffffffffffffffffffffffffffffffffffffffffffffffffff0483118215151615620002d457620002d3620002e9565b5b828202905092915050565b6000819050919050565b7f4e487b7100000000000000000000000000000000000000000000000000000000600052601160045260246000fd5b6200032381620002df565b81146200032f57600080fd5b50565b610c6880620003426000396000f3fe60806040526004361061004a5760003560e01c80632f6fe3961461004f5780634bb278f31461007a578063b7d0628b14610091578063d5ea209a146100c4578063f4aaf6f2146100ed575b600080fd5b34801561005b57600080fd5b5061006461011d565b60405161007191906108bc565b60405180910390f35b34801561008657600080fd5b5061008f61016a565b005b34801561009d57600080fd5b506100a6610183565b6040516100bb999897969594939291906109b2565b60405180910390f35b3480156100d057600080fd5b506100eb60048036038101906100e691906105f5565b6101e8565b005b61010760048036038101906101029190610631565b610233565b6040516101149190610997565b60405180910390f35b60006006544211610163576040517f08c379a000000000000000000000000000000000000000000000000000000000815260040161015a906108f7565b60405180910390fd5b6001905090565b3073ffffffffffffffffffffffffffffffffffffffff16ff5b60008060008060008060008060008054600160009054906101000a900473ffffffffffffffffffffffffffffffffffffffff16600254600354600454600554600654600754600854985098509850985098509850985098509850909192939495969798565b8173ffffffffffffffffffffffffffffffffffffffff166108fc829081150290604051600060405180830381858888f1935050505015801561022e573d6000803e3d6000fd5b505050565b60006008543414610279576040517f08c379a000000000000000000000000000000000000000000000000000000000815260040161027090610937565b60405180910390fd5b60008351116102bd576040517f08c379a00000000000000000000000000000000000000000000000000000000081526004016102b490610957565b60405180910390fd5b6000825111610301576040517f08c379a00000000000000000000000000000000000000000000000000000000081526004016102f8906108d7565b60405180910390fd5b8251825114610345576040517f08c379a000000000000000000000000000000000000000000000000000000000815260040161033c90610917565b60405180910390fd5b6000805b83518110156103b35783818151811061038b577f4e487b7100000000000000000000000000000000000000000000000000000000600052603260045260246000fd5b60200260200101518261039e9190610aad565b915080806103ab90610b5d565b915050610349565b506000811180156103c45750606481105b610403576040517f08c379a00000000000000000000000000000000000000000000000000000000081526004016103fa90610977565b60405180910390fd5b6000600960006003600081548092919061041c90610b5d565b9190505581526020019081526020016000209050338160000160006101000a81548173ffffffffffffffffffffffffffffffffffffffff021916908373ffffffffffffffffffffffffffffffffffffffff1602179055508481600101908051906020019061048b9291906104cb565b50838160020190805190602001906104a49291906104cb565b5034600560008282546104b79190610aad565b925050819055506000549250505092915050565b828054828255906000526020600020908101928215610507579160200282015b828111156105065782518255916020019190600101906104eb565b5b5090506105149190610518565b5090565b5b80821115610531576000816000905550600101610519565b5090565b600061054861054384610a70565b610a3f565b9050808382526020820190508285602086028201111561056757600080fd5b60005b85811015610597578161057d88826105e0565b84526020840193506020830192505060018101905061056a565b5050509392505050565b6000813590506105b081610c04565b92915050565b600082601f8301126105c757600080fd5b81356105d7848260208601610535565b91505092915050565b6000813590506105ef81610c1b565b92915050565b6000806040838503121561060857600080fd5b6000610616858286016105a1565b9250506020610627858286016105e0565b9150509250929050565b6000806040838503121561064457600080fd5b600083013567ffffffffffffffff81111561065e57600080fd5b61066a858286016105b6565b925050602083013567ffffffffffffffff81111561068757600080fd5b610693858286016105b6565b9150509250929050565b6106a681610b03565b82525050565b6106b581610b27565b82525050565b60006106c8601f83610a9c565b91507f57656967687461676520666f7220636f696e73206973206e6f742073656e74006000830152602082019050919050565b6000610708601983610a9c565b91507f47616d65206973207374696c6c20696e2070726f6772657373000000000000006000830152602082019050919050565b6000610748602683610a9c565b91507f57656967687461676520666f7220616c6c20636f696e73206973206e6f74207060008301527f726573656e7400000000000000000000000000000000000000000000000000006020830152604082019050919050565b60006107ae603883610a9c565b91507f506c6179657220686173206e6f7420636f6e747269627574656420746865206560008301527f7861637420616d6f756e7420666f72207468652067616d6500000000000000006020830152604082019050919050565b6000610814602383610a9c565b91507f596f75206861766520746f2063686f6f7365206174206c65617374203720636f60008301527f696e7300000000000000000000000000000000000000000000000000000000006020830152604082019050919050565b600061087a601783610a9c565b91507f576569676874616765206973206e6f742070726f7065720000000000000000006000830152602082019050919050565b6108b681610b53565b82525050565b60006020820190506108d160008301846106ac565b92915050565b600060208201905081810360008301526108f0816106bb565b9050919050565b60006020820190508181036000830152610910816106fb565b9050919050565b600060208201905081810360008301526109308161073b565b9050919050565b60006020820190508181036000830152610950816107a1565b9050919050565b6000602082019050818103600083015261097081610807565b9050919050565b600060208201905081810360008301526109908161086d565b9050919050565b60006020820190506109ac60008301846108ad565b92915050565b6000610120820190506109c8600083018c6108ad565b6109d5602083018b61069d565b6109e2604083018a6108ad565b6109ef60608301896108ad565b6109fc60808301886108ad565b610a0960a08301876108ad565b610a1660c08301866108ad565b610a2360e08301856108ad565b610a316101008301846108ad565b9a9950505050505050505050565b6000604051905081810181811067ffffffffffffffff82111715610a6657610a65610bd5565b5b8060405250919050565b600067ffffffffffffffff821115610a8b57610a8a610bd5565b5b602082029050602081019050919050565b600082825260208201905092915050565b6000610ab882610b53565b9150610ac383610b53565b9250827fffffffffffffffffffffffffffffffffffffffffffffffffffffffffffffffff03821115610af857610af7610ba6565b5b828201905092915050565b6000610b0e82610b33565b9050919050565b6000610b2082610b33565b9050919050565b60008115159050919050565b600073ffffffffffffffffffffffffffffffffffffffff82169050919050565b6000819050919050565b6000610b6882610b53565b91507fffffffffffffffffffffffffffffffffffffffffffffffffffffffffffffffff821415610b9b57610b9a610ba6565b5b600182019050919050565b7f4e487b7100000000000000000000000000000000000000000000000000000000600052601160045260246000fd5b7f4e487b7100000000000000000000000000000000000000000000000000000000600052604160045260246000fd5b610c0d81610b15565b8114610c1857600080fd5b50565b610c2481610b53565b8114610c2f57600080fd5b5056fea2646970667358221220d8d967e841d694ae441fe5b3ccd6b9f1dd9d126df8c78de2e048bece7fabbe8464736f6c63430008000033",
  "immutableReferences": {},
  "source": "// Coin Fantasy Game\r\n// SPDX-License-Identifier: CoinFantasy Game\r\n\r\npragma solidity ^0.8.0;\r\nimport \"@chainlink/contracts/src/v0.6/interfaces/AggregatorV3Interface.sol\";\r\n\r\n\r\ncontract Game {\r\n    uint gameId;\r\n    address gameOwner;\r\n    uint gamePool;\r\n    uint numPlayers;\r\n    uint numCoins;\r\n    uint contractBalance;\r\n    //gameTime - should be in seconds\r\n    uint gameTime;\r\n    uint numWinners;\r\n    uint playerContribution;\r\n    \r\n    struct Player {\r\n\r\n        address player;\r\n        uint[] coins;\r\n        uint[] weightage;\r\n    }\r\n    \r\n    mapping(uint => Player) players;\r\n    \r\n    constructor(uint _gameId, uint _numCoins, uint _gameTime, uint _numWinners, \r\n    uint _gamePool, uint _lockIn, uint _playerContribution) payable {\r\n        \r\n        /*Creator needs to mandatory lock in 10% of the gamePool money\r\n        * Lock In amount needs to be sent from the front end because we cannot calculate\r\n        * floating point (10%) in Solidity.\r\n        * Same for playerContribution - it has to come from the front end since\r\n        * totalGamePool/numOfPlayers cannot be done in Solidity\r\n        */\r\n        \r\n        require(100*msg.value >= (_lockIn *_gamePool*1 wei), \"Creator needs to lockIn 10% to create the game\");\r\n        \r\n        //Generates a unique GameID for every game\r\n        gameId = _gameId;\r\n        gameOwner = msg.sender;\r\n        numPlayers = 0;\r\n        numCoins = _numCoins;\r\n        contractBalance = msg.value;\r\n        gameTime = _gameTime;\r\n        numWinners = _numWinners;\r\n        gamePool = _gamePool;\r\n        playerContribution = _playerContribution;\r\n        \r\n    }\r\n    \r\n    function joinGame(uint[] memory coins, uint[] memory weightage) public payable returns(uint _gameId) {\r\n        require(msg.value == playerContribution, \"Player has not contributed the exact amount for the game\");\r\n        require(coins.length > 0, \"You have to choose at least 7 coins\");\r\n        require(weightage.length > 0, \"Weightage for coins is not sent\");\r\n        require(weightage.length == coins.length, \"Weightage for all coins is not present\");\r\n        \r\n        uint totalWeightage = 0;\r\n        for(uint i = 0; i< weightage.length; i++){\r\n            totalWeightage+= weightage[i];\r\n        }\r\n        \r\n        require(totalWeightage > 0 && totalWeightage < 100, \"Weightage is not proper\");\r\n        \r\n        Player storage newPlayer = players[numPlayers++];\r\n        newPlayer.player = msg.sender;\r\n        newPlayer.coins = coins;\r\n        newPlayer.weightage = weightage;\r\n        contractBalance += msg.value;\r\n        return gameId;\r\n        \r\n    }\r\n    \r\n    //Selfdestruct the contract and send the remaining funds to the contract address\r\n\r\n    function finalize() public {\r\n        selfdestruct(payable(address(this)));\r\n    }\r\n    \r\n    function gameEnded() public view returns(bool) {\r\n        require(block.timestamp > gameTime, \"Game is still in progress\");\r\n        //Do the Oracle thing and calculate the winner/winners\r\n        /*\r\n        Based on the logic we decide, distribute the prize within numWinners\r\n        */\r\n        return true;\r\n        \r\n    }\r\n    \r\n    //Change it to internal later, keep public only for testing purposes\r\n    function distributePrize(address payable winner, uint amount) public {\r\n        winner.transfer(amount);\r\n    }\r\n\r\n    function getGameState() public view returns (\r\n        uint,// gameId,\r\n        address, // gameOwner,\r\n        uint, // gamePool,\r\n        uint, // numPlayers,\r\n        uint, // numCoins,\r\n        uint, // contractBalance,\r\n        //gameTime - should be in seconds\r\n        uint, // gameTime,\r\n        uint, // numWinners,\r\n        uint // playerContribution\r\n    ){\r\n        return(gameId, gameOwner, gamePool, numPlayers, numCoins, contractBalance, gameTime, numWinners, playerContribution);\r\n    }\r\n    \r\n    \r\n}\r\n",
  "sourcePath": "D:/projects/coinFantasy/CoinFantasy/contracts/CoinGame.sol",
  "compiler": {
    "name": "solc",
    "version": "0.8.0+commit.c7dfd78e.Emscripten.clang"
  },
  "schemaVersion": "3.3.4",
  "updatedAt": "2021-04-02T09:29:33.380Z",
  "devdoc": {
    "kind": "dev",
    "methods": {},
    "version": 1
  },
  "userdoc": {
    "kind": "user",
    "methods": {},
    "version": 1
  }
}